:020000022000DC
:10600000000004205D620200B5620200B762020077
:10601000B9620200BB620200BD6202000000000023
:10602000000000000000000000000000BF6202004D
:10603000C162020000000000C3620200C5620200EB
:106040001D980200CB620200CD9C0200CF620200CC
:10605000D1620200D3620200219B0200D7620200DB
:10606000D9620200DB620200DD620200DF62020030
:10607000E1620200E3620200E5620200E762020000
:10608000E96202009D700200ED620200EF62020010
:1060900039710200F3620200D5E70200F7620200E4
:1060A000F9620200FB620200FD620200FF62020070
:1060B0000163020003630200C7620200C7620200BC
:1060C0000563020007630200096302000B6302001C
:1060D0000D6302000F6302001163020013630200EC
:1060E000156302001763020019630200C762020011
:1060F000C76202001D630200C76202001B63020048
:10610000354936480A1A02D0072291438D46344950
:1061100034480A1A06D00722914381F309880222E3
:1061200082F3148830483149314A00F044F831484C
:106130003149324A00F03FF831483249324A00F0E2
:106140003AF832483249334A00F035F83248334998
:10615000334A00F030F833483349344A00F02BF822
:1061600033483449344A00F026F834483449002290
:1061700000F02CF833483449002200F027F8334867
:106180003349091A082902DB002202604160314AC2
:1061900090471F481F49884205D00268043003B465
:1061A000904703BCF7E700208646EC46002000211C
:1061B000294A9047FEE7884207D0521A05D0037853
:1061C00001300B700131013AF9D17047884202D099
:1061D00002700130FAE770470000042000E003205D
:1061E0000000042000000420DCFE020064220020E5
:1061F000D8220020206302002063020074ED020018
:10620000DCFE02006422002064220020E0EE020096
:10621000E0EE0200E0EE0200E0EE0200E0EE02003E
:10622000E0EE0200E0EE0200E0EE0200DCFE020022
:1062300050FF0200D8220020D8220020D8220020BF
:10624000003100200031002000310020003100200A
:106250000051002081620200CDAD02000F484FF0D6
:106260000701884385460E4880470E48016841F47F
:1062700070010160BFF34F8FBFF36F8FFFF740BF17
:1062800009480A490A4A884207D0521A05D00378B9
:1062900001300B700131013AF9D170470000042040
:1062A0007D92020088ED00E08CEE020010220020BA
:1062B00064220020FEE7FEE7FEE7FEE7FEE7FEE7DA
:1062C000FEE7FEE7FEE7FEE7FEE7FEE7FEE7FEE7A6
:1062D000FEE7FEE7FEE7FEE7FEE7FEE7FEE7FEE796
:1062E000FEE7FEE7FEE7FEE7FEE7FEE7FEE7FEE786
:1062F000FEE7FEE7FEE7FEE7FEE7FEE7FEE7FEE776
:10630000FEE7FEE7FEE7FEE7FEE7FEE7FEE7FEE765
:10631000FEE7FEE7FEE7FEE7FEE7FEE7FEE700BF7B
:10632000F0B595B01C46164608460D4602F0B5FE7F
:106330001A9B0D93CDE9086400242346082205A981
:1063400028460A948DF82C400C9402F0E2FE079B3C
:106350000293069B03939DF814308DF8114003F0CF
:106360000302012A1DD1BDF81440059EC3F3C203E8
:10637000C4F383148DF81030A20008230EA9284618
:1063800002F0C7FEC6F3952608AB0093224602AB87
:106390000EA9304600F0E8FB284602F082FE15B058
:1063A000F0BD022AF8D1BDF81640C3F3C203A40918
:1063B0008DF810300827082C264628BF08263B46B3
:1063C00032460EA9284602F0A4FEA41B08AB02AA7E
:1063D00031460EA8374400F02BFC002CEBD1DBE754
:1063E000014B01221A7070471923002070470000EA
:1063F00070B50E4D06460FCD88B06C460FC495E8BB
:106400000F00002E84E80F004FF00603084A0948E9
:10641000009308BF0022694603F08CF908B100F030
:1064200091FD054B1E7008B070BD00BFE0EE02008C
:10643000E163020064220020D822002007B5044B4B
:106440000093044A4023FFF76BFF03B05DF804FBA1
:1064500059640200D922002038B50D4B0D4D0020A3
:1064600018700D4804782D5DD2B21C4665B1043019
:1064700004F09EF808B100F065FD084B1A7812B1DF
:106480002378002BFBD038BD0C3003F06FFEF1E712
:1064900019230020682B002064220020D82200202D
:1064A00008B50848084A0378D35C3BB1043004F0CF
:1064B00029F80020BDE80840FFF79ABF0C3003F030
:1064C000FFFDF6E764220020682B00200120FFF783
:1064D0008FBF000010B5054CFFF7F8FF04212046E0
:1064E00000F0B2FA0123637210BD00BF78220020D1
:1064F000037813F0030F03F0040202D012B9104620
:106500007047B2B103F00303012B03D0022B09D073
:10651000012070470A6800880232C0F383100244E9
:106520000A60F5E70B684288023303EB92130B60B5
:10653000EEE70B684288013303EB92130288F4E71D
:106540002DE9F04F87B000230446851C0DF10700AC
:106550000F4690468DF8073000F0E0FF454806688A
:106560003E60D0E90132134401339B1B824600F2A6
:106570001C4600F5836900F21447AB421BD300228E
:10658000B8F1000F70D0052363F3070264F389129A
:10659000DAF80010DAF808309DF807000B400333F2
:1065A0000D444AF82320CAF8005000F0DBFF012018
:1065B00007B0BDE8F08F0121304602F03AF84846B6
:1065C00002F050F8384602F04DF8DAF80400DAF834
:1065D00008B0029000EA0B0003300AEB800002A929
:1065E000FFF786FF029B50BB0BEA03020AEB820215
:1065F00003F1020CD2680392013303EA0B0B0AEB9E
:106600008B0B02F00302012ACDF808C0DBF80C1056
:1066100022D0022A16D08346384602F026F810B15E
:10662000029BCAF804305946304602F002F8DAE913
:1066300001231344DAF8002001339B1A9DE70BEA8B
:106640000300C9E7BDF80E309B0903334FEA114B35
:106650000CEB93030293DFE7BDF80C30C3F3831315
:106660004FEA114B6344F5E7062363F3070264F333
:106670009F528DE7EC23002008B50E4B0E48FF22F9
:106680009A600022C3F81824C3E90022C3F8142436
:1066900083F8202402F0BAFC38B9084A084B0949AB
:1066A0009B1ADB0802469A4200D108BD21F822203D
:1066B0000132F8E7EC2300204CEE0200CCED0200A2
:1066C0004CEE02001022002030B50A4C71B10A4A8B
:1066D0000A49121BD20800239A4201D1002030BD82
:1066E00031F82350854202D00133F5E7034654F8D0
:1066F0003300F4E7CCED02004CEE02001222002041
:10670000094B013903EBC000032909D8DFE801F088
:106710000A020406042070470079704740797047E8
:106720000020704702207047CCED0200034BD3E9F4
:106730000030C31A58425841704700BFEC23002074
:106740002DE9F04786B0FFF7F1FF0646002840F03C
:10675000F3807A4DC5F81804BFF34F8F6868AC68B2
:1067600002902040033005EB800002A9FFF7C0FE35
:10677000029B074600285FD104EA0302991C0133FB
:1067800005EB8202234005EB8303D268DB680493A8
:1067900002F00303022B0392029162D1BDF80E3086
:1067A00067484FEA9319B9F1500FCA4628BF4FF016
:1067B000500A6AF38F130AF10801ADF80E3002F0A7
:1067C0003DFC8046002800F0A58002F066FC03A98D
:1067D0003B460822404602F073FC029924EA010677
:1067E0000136B600B24535D95FFA8AFA7EB3F6B201
:1067F000AAEB060A214003315FFA8AF4B246514EF1
:1068000005EB810108235246404602F059FC36B19F
:106810000AF1080322463146404602F051FC029B31
:1068200009F1030903EB99030293D5F81834002BFF
:106830004AD1D5F8104458E02A689A4204D86A60D0
:10684000304606B0BDE8F08704EA03008AE73D4918
:106850003446D7E7214003310823524605EB810136
:10686000DAE7012B56D1BDF80C303548C3F383115C
:10687000062928BF062161F3891302318900ADF88A
:106880000C3002F0DBFB8046002843D002F005FC10
:106890003B46082203A9404602F012FCBDF80C203A
:1068A000C2F38312BB00974203F10803BDD20299E1
:1068B0004A1C21400331029205EB8101042240462B
:1068C00002F0FEFB0137E9E7404602F0EAFBFFF782
:1068D0002DFF80F00100C6B2B2E7637A23B12368CE
:1068E00041461B68204698476468002CF5D1404615
:1068F00002F0D7FB0DF107008DF8074000F00EFE07
:10690000D5F818340BB9029B6B609DF8070000F0B6
:1069100029FEDCE7D5F8104444B90B4B0B49188825
:10692000000440F0020000F06BF8D0E72368204636
:106930009B6898476468EFE7002681E7EC23002016
:106940004CEE0200F8230020242200200CEF02006D
:106950002DE9F74F284C80460F46924601A90122A7
:1069600018469B46D4F80890FFF7EAFD80B3019DD6
:106970000026A91C5E4506EB010233D100211F4809
:1069800001F016FE80F310006A1C02EA090204EB13
:106990008202000405EA0903033340EA1840D0608C
:1069A00014F8232068F3C50204F8232034F82320C8
:1069B00066F3891224F8232054F8232067F39F22DA
:1069C00044F8232002F0F80242F0010204F82320E8
:1069D00094F820341BB1FFF7B3FE0028FBD103B0BD
:1069E000BDE8F08F09EA020204EB82025AF8263071
:1069F000D3600136BEE700BFEC230020082800204A
:106A000000231A46FFF7A4BF07B50123019201AA8C
:106A1000FFF79EFF03B05DF804FB07B5CDE9002347
:106A200002236A46FFF794FF03B05DF804FB1FB52D
:106A3000CDE90123069B039301AA0323FFF788FFF7
:106A400005B05DF804FB00000F4A30B5D2F81044E1
:106A50000023214641B90372D2F810444CB9C2F860
:106A600010044160184630BD0D7A9D4205D049683A
:106A7000F0E7626842606060F4E701330A2BE8D116
:106A80004FF0FF33EEE700BFEC230020084A38B593
:106A90000123D2F8104482F820341D4604B938BDD1
:106AA0002368657220465B6898476468F6E700BF14
:106AB000EC230020037A052B10B50C460FD0437A47
:106AC00023B1084A0849204601F032FE0749204612
:106AD00001F02EFE2046BDE8104001F01EBE002A47
:106AE000F8D0F3E767EF02006CEF02008CEF0200D2
:106AF000C38873B504460D4633B1144A0092144955
:106B0000144A284601F014FE217A05291CD0637A24
:106B10004BB1A088FFF7F4FD0F4B104953F820202C
:106B2000284601F005FE227A0D4BA08853F822601A
:106B30000021FFF7C9FD0B4903463246284602B043
:106B4000BDE8704001F0F4BD02B070BD67EF020017
:106B500077EF02006FEF020034EF02006CEF0200EB
:106B60009CEF02008FEF02002DE9F04385B01F4635
:106B70000C9D002306460C46904695F80C902B730E
:106B800029463846FFF7B4FFB8F1060F09D8DFE809
:106B900008F00412181F283340003146284601F03F
:106BA000C7FD002229463846FFF784FF85F80C9080
:106BB00005B0BDE8F08322683146284601F0B8FDF3
:106BC000EFE7D4E900233146284601F0B1FDE8E7BC
:106BD000A36800933146D4E90023284601F0A8FDBC
:106BE000DFE7E3680193A36800933146D4E900230B
:106BF000284601F09DFDD4E723690293E3680193E1
:106C0000A36800933146D4E90023284601F090FDA3
:106C1000C7E76369039323690293E3680193A36859
:106C200000933146D4E90023284601F081FDB8E7FE
:106C300008292DE9F84F80460E4617461C4636D8DF
:106C4000002593F80C901D7319461046FFF750FF6E
:106C5000DFF87CA0DFF87CB0AE422AD918F8052016
:106C60005946204601F064FD0135082DF4D116493E
:106C7000DFF864B0204601F05BFD0025AE421DD96F
:106C800018F805A0504607F0A9FF002814BF524687
:106C90002E225946204601F04BFD0135082DEDD13D
:106CA000012221463846FFF705FF84F80C90BDE825
:106CB000F88F5146204601F03BFDD5E703492046B9
:106CC00001F036FDE9E700BF62EF020060EF02006D
:106CD0005EEF020058EF020064EF02002DE9F04F72
:106CE000394E87B04FF00009384B1B785FFA89F5B1
:106CF000AB4202D807B0BDE8F08F354BD3F800A007
:106D00001AF835000124D6E9001EA0F12002C0F1D6
:106D1000200304FA02F224FA03F3134304FA00FCFA
:106D2000009301EA0C030293009B0EEA0303039312
:106D3000DDE9022313430AEBC50B41D0009B21EA96
:106D40000C012EEA0303C6E9001302F0DBFE1AF879
:106D500035502049A5F12002C5F1200304FA02F2C2
:106D600024FA03F31343D1E900C2AC40134004EA10
:106D70000C0105930024C3B2CDE90034009A0491BC
:106D8000C5F12003A5F1200122FA03F302FA01F86C
:106D900048EA03081346AB401F46DDE90434444586
:106DA00008BFBB420CD1DBF804304BB19BF801109B
:106DB0004A1E51425141081A4142414128469847D2
:106DC00009F1010990E700BF4028002010280020A9
:106DD00048280020382800202DE9F041804620482E
:106DE00000F08CFBD0BB0125A8F12004C8F12003E2
:106DF00025FA03F305FA04F41C431A4BD3E90012F5
:106E000005FA08F501EA050602EA040756EA070052
:106E10001E461DD1404602F075FE134BD3E9001209
:106E200088B129432243C3E90012D6E900231C4359
:106E30000E4B0B4819681543C6E900540022BDE803
:106E4000F04100F015BB21EA050122EA0402EAE75D
:106E500021EA050522EA0404C3E90054BDE8F081F3
:106E6000182800204028002038280020142800205E
:106E7000042A2DE9F34105460C4616463AD902F09C
:106E800071FDD8B11C4B1D491D601D4BDFF884807E
:106E90001C701C4B00221E600023C1E900231A490C
:106EA000C1E90023013CE4B200260327FF2C0CD1EA
:106EB000164A1748002100F0C9FA03E002F018FD55
:106EC0000028DFD002B0BDE8F08123B205EBC30299
:106ED00001A992788DF8052015F833008DF8066029
:106EE00042468DF8047002F047FD013CE4B20028F0
:106EF000DCD0E7E70720E5E7482800203828002015
:106F0000102800201428002040280020DD6C0200FA
:106F1000FCEF0200D96D020070B5084D084E002448
:106F20002B789C4201D3002070BD3368012113F8F7
:106F3000340002F09DFD0134F2E700BF102800206C
:106F4000482800201FB50021039001AA44F2010047
:106F5000CDE9011100F004F805B05DF804FB000074
:106F600010B572B6FFF792FDFFF7EAFB0028FBD1E0
:106F7000104C11492088000440F00100FFF740FD4B
:106F80000E4B1B68DB0700D500BE20880C490004AF
:106F900040F00200FFF734FDBFF34F8F09490A4B61
:106FA000CA6802F4E0621343CB60BFF34F8F00BFA7
:106FB000FDE700BF2422002000F00200F0ED00E019
:106FC0000CF0020000ED00E00400FA05094A5378D5
:106FD00091780133DBB2994208BF002311789942BE
:106FE0001FBF03705078182303FB002014BF043028
:106FF000002070474C28002073B5054600240DF191
:1070000007000E468DF8074000F088FA0DF10600E3
:10701000FFF7DCFF90B10670094B9DF80620456034
:107020005A709DF8070000F09DFA24B9054B4FF403
:107030008012C3F80021204602B070BD0424F0E79E
:107040004C28002000E100E0024B4FF43C6043F08C
:107050000103184720F0020038B50C4B0C4C4FF4DC
:107060000032C3F8802001254FF48033C4F8483340
:10707000C4F808336560FFF7E7FF064BA5600024FE
:107080001C60FFF7E1FF044B1C7038BD00E100E01D
:10709000001001406829002059290020F8B51F4B35
:1070A0001F491B680025C1F84051C1F84451C1F87F
:1070B0004851C1F84C51C1F80051C1F804514BB3CB
:1070C000D1F8044517490968641A24F07F442F4613
:1070D0001A68A24209D8A41A15441A7CDE691AB1AA
:1070E0001F74D3E905209047AEB90F4A0F4B1178B2
:1070F0001B788B4205D10133DBB2022B08BF002382
:10710000137012780A4B43F822500A4B4FF4801246
:10711000C3F80021F8BD3346DAE700BF6C29002030
:107120000010014068290020652900206429002002
:107130005C29002000E100E02DE9F04FA04AA149C0
:1071400013780978A04D994285B03CD00133DBB269
:10715000022B08BF002313709C4912789C4B0F68C8
:1071600053F822003B1823F07F4300220B602B686A
:1071700016461446944613B942B12B6006E01968CE
:1071800081420ED902B12B60091A19604FF0010833
:107190002B68DFF844A201930027BEB9DFF840B2A4
:1071A00066E0401A0C44D968C3F800C0D3F81CE06C
:1071B00031B13A1922F07F42C3E90121DE611E4656
:1071C00001227346D7E70026B046E1E73446F66968
:1071D0007E4A63681268DFF80CC2A068991A21F031
:1071E0007F41614500F2A5800144216001222274A3
:1071F0002A680023C4E90133E361002A40F0A28039
:107200002C60CAE75A1C9BF80210D2B291428BF84C
:10721000002004BF00228BF80020182202FB03B3D9
:107220001A799C68022A1CD0032A12D0012A1FD185
:10723000207CE8B9D3E90312A2605A69E2609A6936
:10724000644BA2611B78002B0CBF0B4603466360A6
:10725000BEE700222B681146002B66D142B12B609D
:1072600006E029680A468946002A59D1002323747A
:107270009BF800309BF801209A42C3D12B682FB9AC
:10728000019A9A4202D1B8F1000F43D0002B73D07B
:10729000D3F800A0504D4D4BD5F804751C68DFF8AD
:1072A00048813E1B98F8003026F07F4603369BB994
:1072B0004FF48033C5F84433C5F80433474B4FF4DB
:1072C00000324FF00109C3F880211A60C5F8009020
:1072D000FFF7BAFE88F80090B2452CBF5444A419B9
:1072E00024F07F44C5F84045D5F80435DB1B23F076
:1072F0007F43E41B033324F07F44A3420AD9D5F82B
:107300000435C5F84035FFF79FFE344B4FF400328B
:10731000C3F800212F4B00221A7005B0BDE8F08F92
:1073200094422CD09146D2699EE719740122DB6900
:1073300092E7D31A23F07F43834234BFC31A00235A
:10734000236053E721681368994213D8591A1160D2
:10735000E26155E7091AD8691A4638B10346186838
:107360008842F7D3401A1860184613462160E0613E
:10737000DC6112E71346F2E7FFF76EFECAE74C4501
:1073800011D1CB692B6073B9DFF840E00120CDE962
:107390000212CAF80800CEF800300E4B1870FFF742
:1073A00053FEDDE902121368D269C9F81C2012B13C
:1073B0001068034413602B68994218BF012755E7F2
:1073C00064290020652900206C29002068290020FC
:1073D0005C290020582900200010014000E100E055
:1073E0004C280020FEFF7F005929002008B5FFF738
:1073F00033FE104B00200B2218809A700E4B186041
:107400000E4B18700E4B18700E4B4FF48012E0218B
:10741000C3F8802183F814131A6002F18042A2F5A8
:107420006F22C2F8080583F81113074BD2F8042520
:107430001A6008BD4C2800206C2900206429002017
:107440006529002000E100E068290020074B9B78B7
:107450004BB132B128B10368187C20B959745A6114
:107460007047072070470820704700BF4C28002055
:107470002DE9F7431E4FBB7805460E469046A3B351
:1074800098B304292FD943697BB3437C0024012B93
:107490000DF107000CBF8946A1468DF8074000F0AA
:1074A0003DF80DF10600FFF791FDD0B10123037007
:1074B000104B4560D3F80435C0E90498C0E90236A2
:1074C0009DF806307B709DF8070000F04BF824B95A
:1074D000094B4FF48012C3F80021204603B0BDE8E9
:1074E000F0830424EFE70724F7E70824F5E700BF5B
:1074F0004C2800200010014000E100E0064A92788C
:107500003AB130B1426922B1002202740221FFF780
:1075100073BD0820704700BF4C28002070B5EFF302
:10752000108672B60C4A946801239CB993600B4B89
:107530000B4DD3F8801029401160C3F88050D3F868
:10754000841051604FF0FF32C3F88420047006B9F4
:1075500062B670BD0370FAE77029002000E100E018
:10756000FC06FFBD084B9A6810B55AB150B9EFF34D
:10757000108172B6054A1C6814605C68546098609B
:1075800001B962B610BD00BF7029002000E100E023
:1075900070B5064D0646002455F8043B0BB1304645
:1075A00098470134042CF7D170BD00BF8829002012
:1075B000033080B240F2FD33984230B51FD8124BF1
:1075C0001A783AB91C895D892C440444A4B2B4F5F4
:1075D000806F0AD31A7DA2B99A8BDC8B22440244B5
:1075E00092B2B2F5806F0CD201220A8014461422A6
:1075F00002FB04335A8910445881002030BD092011
:10760000FCE70720FAE700BFBC2900200B4A0C4B1F
:107610005188142000FB0131CB6833B9042049683C
:1076200010700122074801F0E7BA052306491370DC
:1076300002238B80012200230968F3E7A0290020A0
:10764000BC29002050220020742A002007B5002306
:1076500005490093054A09680548082301F048FADE
:1076600003B05DF804FB00BF742A002034F0020070
:107670005022002007B50023009301460823034A47
:10768000034801F035FA03B05DF804FB2CF002006A
:107690005022002013B500230C460093014604231A
:1076A000074A084801F024FA38B9074B142202FBB4
:1076B00004340123237402B010BD0E20FBE700BF89
:1076C00028F0020050220020BC29002037B50A48CB
:1076D0000A4B42689C881968538803250333057058
:1076E0009BB2002000909B0001EB8401044801F054
:1076F000FFF903B030BD00BFA0290020742A00208C
:107700005022002010B50146044800F085FE1C22DE
:107710000446002107F0CBFA204610BD8422002049
:1077200068B10268084B9A4209D14068074B9842F9
:1077300007D0013398420CBF01200320704703207B
:1077400070470020704700BFDEC0ADDEFE011EF1B5
:107750004388033300EB8303994209D382884FF6B1
:10776000FF739A4206D00088B0FA80F04009704753
:1077700002207047012070472DE9F8430223DFF80B
:1077800060800B800D46174600F5805600F1080416
:107790004FF00109B4420FD2236801330CD03146B7
:1077A0002046FFF7D5FF48B10FB187F800900228B7
:1077B0000BD14FF480632B80BDE8F883A368D8F821
:1077C0000020934201D9C8F800302B886288033327
:1077D00013442B806388033304EB8304DAE700BF90
:1077E000B4290020154A142303FB002070B50B6850
:1077F00044680D4604F58056ABB15C88033403EB56
:107800008404B4420DD2236801330AD031462046A5
:10781000FFF79EFF01280BD010F0FF0F05D00228C4
:10782000EFD1002003E00834EBE72C60012070BDAD
:107830006388033304EB8304E3E700BFBC29002023
:10784000436873B504460D466BB3244AD1688B4236
:1078500029D31269934226D813F0030223D1204979
:107860000089098988421ED12068996888421AD106
:107870001C494868834203D900F5805083420ED3E7
:107880008A6993420DD902F58052934209D20123AD
:107890002B800020B0FA80F0400902B070BD134682
:1078A000F6E70A20F6E700232B801E46019601A981
:1078B0002888FFF797FF30B92B8801339BB2012B43
:1078C0002B80F3D9E9E7019B226899689142EED1B8
:1078D0006360034B1B892381DFE700BF5022002038
:1078E000A0290020BC2900202DE9F8431C461C4B90
:1078F0001B7806460F4615466BB372B36CB3DFF8C0
:1079000068804FF01409A388012B01D90A2020E0D8
:1079100009FB03F318F803302BB92146A088FFF7C1
:1079200061FF20B92060A3880133A380EBE72368BF
:107930001EB1998832889142EFD11FB119883A88D7
:107940009142EAD19A68C5E90023064B1B892B8135
:107950000020BDE8F8830220FBE70520F9E700BF1F
:1079600098290020A0290020BC29002008B5074B39
:10797000191D5888FFF736FF18B1BDE80840FFF71A
:10798000A5BEBDE80840FFF741BE00BFA02900200A
:107990002DE9F04FA04FDFF8A49289B00646B84613
:1079A0003B6823B949469D4800F070FD3860D8F81F
:1079B000005029784B1E052B00F2FA80DFE813F007
:1079C00006005E005E00EE00EE005C0126B1944B06
:1079D00000225A600124ECE02B79032B1DD8DFE84C
:1079E00003F015022A358F490B78022B084619D06F
:1079F0000B7D022B4FF0010316D114225343C21802
:107A00000020C8545068FFF735FE03E001232B71B6
:107A1000FFF71CFE002800F0BC80814B00225A605A
:107A20000E24C6E00023E8E77D4A1370002353606C
:107A300041F61D54BDE07C497C48002302222B7195
:107A40008A800122096801F0D7F8E3E7764C002626
:107A50002E712068734DFFF70DFE754BD4F800C0F2
:107A60005A8814235343EA18EE5451682160A188C0
:107A7000C2F804C011810222A280CBE7B5F814A09D
:107A8000AA7DDFF8A0B1AEB1022AEB8806D9142195
:107A900001FB0AB1DA1C088902440A81142202FBA4
:107AA0000ABAC3F57F43BAF80A20FD331344AAF893
:107AB0000A308FE7142303FB0AB318895C6804EBD0
:107AC0008004062A68D8DFE802F0274D35431D59A7
:107AD000040041F61D54AA7DEB88022A06D9142120
:107AE00001FB0AB1DA1C088902440A81142202FB54
:107AF0000ABAC3F57F43BAF80A20FD331344AAF843
:107B00000A3056E04B484C4900234360AB690360A0
:107B1000FFF796FE002871D00223AB750023009377
:107B20000423EA182146414800F0E2FF002830D043
:107B30000E24D0E72B69002B14BF03230123AB7560
:107B40000023009305F10C02042304F10801EAE785
:107B50000123AB750022EB8800929B002A6904F197
:107B60000C01E0E703290CBF05230623AB750023B6
:107B70000093042305F10802E118D4E70623AB754E
:107B80002D4B19882B4B5868FFF784FD04460028BD
:107B9000A1D109B0BDE8F08F0F249CE7002E7FF43F
:107BA00019AF2B79012B4BD0E3B1022B3FF440AF3F
:107BB0000F241422002103A807F079F841F61D5381
:107BC0009C4208BF0024D8F8003004941A78023A86
:107BD000042A00F20581DFE812F0E600F200150148
:107BE0001D01240102232B710DF10A01EB6803939F
:107BF00003A8CDE90466FFF723FE08B90A24D8E7F5
:107C00000498BDF80A108388EB8003882B81FFF766
:107C100041FD044627E000BFB8290020842200204F
:107C200098290020BC290020742A0020502200201E
:107C3000A02900207C290020802A0020B0290020D3
:107C4000DFF8FCA103AA53463146A81DFFF74CFEFE
:107C5000044658B9BAF804100498FFF71BFD04460F
:107C60000A2C3FF4E5AE002CA3D192E7082231465E
:107C7000504607F01CF8F3E7002E7FF4ABAE6B4BD9
:107C80001A7BAAB11E731A78013A062A90D801A16C
:107C900051F822F03B7D0200617D02007F7D0200F1
:107CA000857D0200B17B02008B7D02009D7D02007C
:107CB0001A78072AE7D801A151F822F0DD7C0200EA
:107CC000877C0200877C0200037D0200177D020092
:107CD000377D0200377D0200FF7C02001A8954497B
:107CE00001321A8100225A801A730A78B2FA82F29B
:107CF00052099A720A7DB2FA82F25209DA720122AC
:107D000007E04C4958688A884088033202448A80D8
:107D100002221A70B7E7464C5A884649142505FBDB
:107D200002420868546850608888108102228A8064
:107D30000C600622EDE70722EBE79A7A32B9DA7A8D
:107D40008AB900221A705A805A6071E638490022B6
:107D50009A72CA68002AF2D1097C0029EFD05A80B1
:107D6000FFF704FE55E70022DA72314A116A002952
:107D7000E7D192F82420002AE3D00122EFE7FFF7B1
:107D8000A5FC46E7FFF742FC43E7294A5B8814213C
:107D900001FB03235868FFF76DFC3AE700225A60A5
:107DA000FFF754FC35E701228DF80C201A89ADF855
:107DB00018209A88DB68ADF81A20059310E002229B
:107DC0008DF80C201A89ADF818209A88ADF81A2081
:107DD000DA689B7D05929A1F534253418DF81C30FF
:107DE00003A8FFF7D5FB002649461348C8F80060F2
:107DF00000F077FB0121114800F026FC00287FF4F9
:107E0000CFADC6E603228DF80C20DA88ADF8182035
:107E10001A89CFE70422DB888DF80C20ADF81830E2
:107E2000DEE705238DF80C30DAE700BFA02900203B
:107E3000BC290020742A002084220020702A0020FF
:107E4000842A00204068FFF7A3BD000008B5012187
:107E5000044800F0E3FB18B9BDE80840FFF798BDFF
:107E600008BD00BF702A00202DE9F3419846354B2C
:107E70001B7806460D46002B5BD000295BD0098895
:107E80004FF6FF73994258D06B88002B55D06B6822
:107E90009B0754D14AB92F890DF102013846FFF7EB
:107EA00087FB30B102B0BDE8F08113885788ADF888
:107EB000023001A8FFF726FC044658B9BDF802308D
:107EC000214A142101FB032358890338C01B588120
:107ED0000820E7E700238375BDF8023083826B68D2
:107EE000036180F800800121184800F0A2FB2B8874
:107EF0002381B8F1030F6B88A38004BF0423A3750B
:107F00004FF0000508BF3368E06008BFA361E78059
:107F1000658101A90E4800F0A9FA36B1E368336023
:107F20000C4B75601B89B5723381FFF78FFF002002
:107F3000B8E70220B6E70520B4E70420B2E7032043
:107F4000B0E700BF98290020BC290020B4290020F8
:107F500084220020A029002008B5084B1A68042AB2
:107F600009D01968064A42F821000121184600F09C
:107F700060FB002008BD0C20FCE700BF7C2A00202D
:107F8000882900202DE9F04F14228BB000210DEB41
:107F9000020006F08CFE744A137803F0FF01CDE96D
:107FA00001123BB105A8FFF7F3FA002738460BB0E2
:107FB000BDE8F08F029B181D00F051FB0028F4D1A2
:107FC0004FF010234FF080525B6911695269674C82
:107FD000581C08BF02FB01F323610022A3F54053A4
:107FE0006349E360204600F055FD039407460028EE
:107FF000DCD11C238C225F495F48DFF88891DFF8D1
:10800000888100F0D4F93D46BA464FF0030B3C4658
:10801000039BDE68564430463146FFF781FB01285A
:108020004DD042B2002A36D0032822D106F5805224
:108030000868013040F08A8004318A42F8D1D9F8CA
:1080400000203AB902220123C9F80060A9F80420EF
:1080500001930CE014226243022008EB020108F8AD
:108060000200464A4E60548001340881A4B245F0B3
:1080700001050AF5805ABAF5405FC9D1BBF1010F7D
:1080800098BF0025EDB2022D03D0062D35D0002D6E
:108090003CD10B278AE71421614308EB010008F863
:1080A000012001F11002083146604244414430464B
:1080B000FFF762FB45F002050134A4B2D9E7019B4A
:1080C00063B11422624308EB0201022008F80200A7
:1080D0000134D9F800204A600881A4B2002228495E
:1080E000C9F800603046FFF747FBB9F80420022AC0
:1080F0000CBF042208221543BBE7029A0123137028
:1081000005A800235360FFF743FA4FE704A8FFF7E1
:10811000F9FAC8B10123013D03700A2D09D8DFE83F
:1081200005F006080608070807080F110F000023CE
:10813000037104A9104800F099F9FFF787FE35E7AD
:108140000323F5E70223F3E708272FE70BF1FF32BC
:108150001FFA82FB1422624308EB02014E600321E6
:1081600008F80210A8E700BF98290020502200203C
:1081700038F20200E429002084220020A0290020F7
:10818000782A0020742A0020BC29002073B50D46EF
:108190000446C8B1C1B10DF10601FFF751FBA8B10A
:1081A0000B4BBDF806006668142202FB003001216B
:1081B0000C3000F03EFA63682E600C336B600123D4
:1081C000A372002002B070BD0520FBE70A20F9E78A
:1081D000BC29002013B50446A8B10DF10601FFF734
:1081E0002FFB90B10B4ABDF80630142101FB03238D
:1081F000DA6862B1A27A52B1DA680020013ADA6034
:10820000A07202B010BD0520FBE70A20F9E70620A6
:10821000F7E700BFBC2900200B4B1B7837B504469D
:108220000D4663B168B10DF106012846FFF7C0F9AC
:1082300018B9BDF806302380658003B030BD022038
:10824000FBE70520F9E700BF98290020104B1B78B9
:1082500010B5B3B1B8B10288022A16D80D494388C7
:10826000142404FB02129C1C51898C420DDAC3F5C4
:108270007F43FD330B445381002303804380184622
:1082800010BD0220FCE70520FAE70420F8E700BF54
:1082900098290020BC29002002230022FFF7E4BD1A
:1082A00012B10223FFF7E0BD0520704718B1032388
:1082B0000022FFF7D9BD052070470000104B1B7846
:1082C00013B50446ABB14FF6FF73984213D001A823
:1082D000FFF718FA88B10523037001230371C480E6
:1082E00001A9084800F0C2F8FFF7B0FD002002B075
:1082F00010BD0220FBE70420F9E70820F7E700BFE4
:1083000098290020842200200E4B1B7807B5A3B1CA
:1083100001A8FFF7F7F990B10623037001A90A48F5
:1083200000F0A4F8094B1A780AB101221A73FFF77A
:108330008DFD002003B05DF804FB0220FAE7082061
:10834000F8E700BF9829002084220020A0290020FF
:1083500007B5ADF80600ADF804100DF1060001A94F
:10836000FFF7C2FA03B05DF804FB07B51346ADF89A
:1083700006000A4600200DF10601FFF7B5FA03B02A
:108380005DF804FB07B51346ADF806000A460DF18B
:1083900006000021FFF7A8FA03B05DF804FB20B146
:1083A00019B103680B60002070470520704710B5B5
:1083B00061B1B2FBF3F403FB1424A4B244B9C0E9E5
:1083C000001484608281C381204610BD0E20FCE72A
:1083D0000920FAE782B050E8022FC188B2EB324F91
:1083E0004FF0000317BF92B241EA014142EA014156
:1083F00004E04268B2EB324F08BF012340E80212AA
:10840000002AE8D18DF807309DF80730002B0CBF0B
:108410001120002002B0704737B550E8013F9DB2EF
:10842000C48925448489A54228BF2D1B0489A542FF
:1084300002BFBFF32F8F002207E0C5EA030540E823
:108440000154002CE9D14FF001028DF80320019373
:10845000019B9DF803200B6002F0FF0322B10B8803
:108460000068184403B030BD1846FBE70A884B8803
:108470009A4209D150E8012FC2EA024240E80123A2
:10848000002BF7D1012070470020704737B550E826
:10849000023F1FFAA3F5C488A54202BFBFF32F8F86
:1084A00000220DE0C48925448489A54228BF2D1BE4
:1084B000C3EA054540E80254002CE8D14FF0010220
:1084C0008DF803200193019B9DF803200B6002F0BF
:1084D000FF0322B14B880068184403B030BD184632
:1084E000FBE70A884B889A4209D150E8022FC2EA7A
:1084F000224240E80223002BF7D1012070470020E0
:10850000704701F01F024B090121914000EB8300ED
:1085100000F063B84B0910B501F01F040121A14020
:1085200000EB830000F04EF8E04000F0010010BDC9
:1085300001F01F0301229A404B0900EB8300D14355
:1085400000F061B84B0901F01F0150F82300C8404A
:1085500000F0010070472DE9F0474E1E7609804675
:108560000F460136002558F8254008EB8509E443FD
:1085700094FAA4F4B4FA84F44FEA451A202C06D1F4
:108580000135AE42EFD83C462046BDE8F087544462
:10859000A742F5D921464046FFF7BCFF0028F3D09B
:1085A000D9F80040E44394FAA4F4B4FA84F4E5E77B
:1085B00050E8002F0B4640E8003C9CF0000FF7D13C
:1085C0001046704750E8002F42EA010340E8003CA3
:1085D0009CF0000FF6D11046704750E8003F43EA88
:1085E000010240E8002C9CF0000FF6D110467047C5
:1085F00050E8002F02EA010340E8003C9CF0000F25
:10860000F6D11046704750E8003F03EA010240E807
:10861000002C9CF0000FF6D11046704750E8002F58
:1086200002EB010340E8003C9CF0000FF6D110463D
:10863000704750E8003F03EB010240E8002C9CF03B
:10864000000FF6D11046704750E8003FA3EB01023F
:1086500040E8002C9CF0000FF6D110467047012135
:10866000FFF7B0BF0121FFF7B8BF0021FFF7C0BF80
:1086700010B590B1D0E9012301689B1ADBB20A6002
:10868000013BDBB2FF2B026802D10020107110BD4C
:1086900011684C1C14600B70F2E70E20F7E737B539
:1086A000054600240DF107008DF80740FEF736FF60
:1086B0002A686B68116899420ED9481E106011F83B
:1086C000014CEB68A98A01FB0434AB6811791B1AD1
:1086D000DBB2994238BF13719DF80700FEF742FFE5
:1086E000204603B030BD37B5054600230DF1070025
:1086F0000C468DF80730FEF711FF2A681368591CE5
:108700001160E968641AA98AB4FBF1F41C709DF841
:108710000700FEF727FF03B030BD826810B504469E
:108720002AB143690168006998470023A36010BD1E
:108730000EB403B5039921B104AB01AA019300F073
:108740006DF802B05DF804EB03B07047826830B496
:108750000468551C8560A154D0E901329A4202D3C5
:1087600030BCFFF7DABF30BC704700002DE9F84F8E
:108770009946DDE90A431746824688460A4601269D
:10878000BA420FD24E4538BF4E4613F0010B01D10D
:1087900064B900240125B9F1010F1AD909F1FF3993
:1087A0007D43F8E7B2FBF7F20136E9E79B070ED508
:1087B000B9F1000F0CBF30252025A642EAD2013CBA
:1087C00029465046FFF7C2FF002CF6D1E1E72025ED
:1087D000F3E7B8FBF5F39F42E2D9DFF83C90B8FB32
:1087E000F5F3504619F8031005FB1388FFF7AEFFA9
:1087F000B5FBF7F3BD4207D2BBF1000F02D00CB1BD
:10880000A64203D3BDE8F88F1D46E8E72021504675
:10881000013CFFF79BFFF2E74BF002002DE9F74F19
:10882000054617468846002900F0318118F8011BDB
:1088300049B92B7B002B00F02A81284603B0BDE804
:10884000F04FFFF76ABF252940F0C080002698F856
:1088500000302D2B424608F1010823D0302B24D0C4
:108860002B2B25D000242A2B02F1010123D13B68B8
:108870001A1D1B683A601C440A4613782E2B26D119
:1088800001324FF0000A104610F8011BA1F1300C24
:10889000BCF1090F1DD80A2303FB0A13A3F1300A08
:1088A0000246F0E746F00106D1E746F00206CEE7C1
:1088B00046F00406CBE711F8013CA3F1300009288B
:1088C000DBD80A2202FB0434303C0A46CBE74FF0E7
:1088D000000A12F8011B01F0FB0068289046F8D04E
:1088E00069290ED04AD8582964D006D825296DD0D8
:1088F00098F80030002B99D19BE7632962D0642956
:10890000F6D13A68D2F80090111D89EAE97239600F
:10891000A2EBE9724FF0010B092A5BDCD34538BFAB
:10892000D3462CB1B9F1000F01DB710700D5013C32
:10893000B20702D5BAF1000F04D0F30702D4002C1D
:108940004ED10024B9F1000F52DAC9F100092D21EE
:108950002846FFF7FBFE06F00302022A05D1BAF112
:10896000000F02D1002C47D10024CDE90046534628
:108970000A2249462846FFF7F9FEB9E773294CD089
:1089800014D87029B4D13B681A1D3A6030212846AA
:108990001C68FFF7DBFE78212846FFF7D7FE002290
:1089A0000823CDE9003221461022E3E775292BD0B8
:1089B00078299DD139680A1D3A60CDE900465346B1
:1089C000102228E03B681A1D19783A602846FFF704
:1089D000BDFE8DE70A230BF1010BB2FBF3F29BE71F
:1089E000A345AFD220212846013CFFF7AFFEA6E702
:1089F0007007B0D52B21ABE7A345B6D2302128466E
:108A0000013CFFF7A3FEADE73968CDE900460A1D3A
:108A10003A6053460A220968ACE73B681A1D3A607F
:108A2000F107D3F8009020D4B9F1000F25D04846C3
:108A300006F070F90646B44200D9C4B909F1FF390D
:108A400020E028460136FFF781FE19F806100029BC
:108A5000F7D1A642BFF44CAF002C3FF449AF202120
:108A60002846013CFFF772FEF3E70026EDE72021E0
:108A70002846013CFFF76AFEDDE74E46DBE7284665
:108A8000FFF764FE19F8011F0029F8D130E703B0A1
:108A9000BDE8F08F07B50B4678B9104B104A18881F
:108AA0000E2300930F4B00040F4940F00100FDF727
:108AB000BEFF0E2003B05DF804FB3BB9074B0B4A29
:108AC00018880E2300930004064BEDE703601B6833
:108AD000114603B05DF804EB184700BF3C220020AC
:108AE00008F102005BF002000DF1020084F10200C7
:108AF0002DE9F34178B9354B354A1888354B0E24AA
:108B000000040094344940F00100FDF790FF204636
:108B100002B0BDE8F0813AB92C4B304A18882D4B91
:108B20000E2400040094EDE7D0F800C0BCF1000F63
:108B300007D1264B2A4A1888264B082400040094A3
:108B4000E0E73BB9214B274A1888224B092400044F
:108B50000094D7E74768D7F80480B3FBF8F708FB21
:108B600017373FB1194B204A18881A4B09240004C3
:108B70000094C7E78F0707D0144B1C4A1888154B81
:108B8000102400040094BDE712F0030F07D00F4B30
:108B9000174A18880F4B102400040094B2E7C768E6
:108BA000B9420BD34C1E05691C44AC4206D8DCF814
:108BB0000C40A44602B0BDE8F0416047034B0D4AAB
:108BC0001888044B1024000400949BE73C220020EA
:108BD00008F102006DF002000DF102008AF10200BE
:108BE0007EF102003DF1020090F10200BAF10200B4
:108BF000D2F10200F5F10200F7B570B9254B264A13
:108C00001888264B0E2400040094254940F00100EA
:108C1000FDF70DFF204603B0F0BDD0F800C0BCF159
:108C2000000F07D11B4B1F4A18881C4B0824000457
:108C30000094EAE73AB9174B1B4A1888174B0924E6
:108C400000040094E1E74768D7F800E00EF1FF3731
:108C50000F4207D00F4B154A1888104B1024000400
:108C60000094D2E7C768B9420CD34C1E05690EFBCD
:108C70000244AC4206D8DCF81040A44603B0BDE87C
:108C8000F0406047034B0A4A1888044B1024000444
:108C90000094BAE73C22002008F1020080F00200B4
:108CA0000DF102007EF102003DF1020093F002009E
:108CB000B9F0020070B508B10368ABB90C4D0D4CAA
:108CC0000026641B1423B4FBF3F4B44201D100204A
:108CD00009E02B6813B901361435F6E7DB6928463D
:108CE00098470028F7D070BDDB69BDE87040184791
:108CF000502200206422002029DF704728DF7047BF
:108D000070B503689D6886B004460E466DB11422A6
:108D10000021684605F0CBFFA368059323790196EF
:108D20002BB1012B0DD06846A84706B070BD0123BA
:108D30008DF8003023690293E36803936369049319
:108D4000F1E702238DF80030E3681B030293F5E797
:108D50000846704700207047024B187A003018BF51
:108D600001207047182B0020034B187A0122B0FA1B
:108D700080F05A7440097047182B002008B510463F
:108D80001A4605F06BFF002008BD000008B514224C
:108D90000021044805F08BFF0348FFF71BFB002070
:108DA00008BD00BF182B00209822002010B5094CE8
:108DB000094B43602046FFF752FC40B905F0F0FC38
:108DC0001C2320748C2205490548FFF7F0FA002087
:108DD00010BD00BF182B00202CF202008C2A0020AE
:108DE0009822002070B5244D244E2B7A2C463BB996
:108DF00023492448FFF74AFB306008B9686070BD1A
:108E00000223237233681A7972B1012A24D01846DA
:108E10000321FFF775FF0023237263601849194887
:108E2000BDE87040FFF75DBBD3E90520121AB2F52B
:108E3000805F28BF4FF48052D3E903159208012ABE
:108E4000014438BF01222844FFF756FF50B11128D2
:108E5000DDD101232372D2E7D3E903021044FFF7E7
:108E60004DFFF3E7237C002BC9D10146BDE87040DC
:108E7000022000F009B800BF182B0020302B002082
:108E80002C2B00209822002038B5831E012B45D8BA
:108E9000234C237A002B41D0022B09D1032830D058
:108EA000204B1B680022E2601A793AB1012A22D0D5
:108EB000637C7BBBBDE83840FFF794BFD3E9051264
:108EC0008D1AB5F5805F94BF521902F580529A61F0
:108ED0009142EDD102284FF0000308BF19462372DA
:108EE000104B18BF0D211868FFF70AFF0E490F48F5
:108EF000FFF7F7FADCE71A6901321A615B699A42F7
:108F0000E7E7E3680133082B01D8E360D0E70023EB
:108F1000E360DFE7BDE8384005F032BC38BD00BF94
:108F2000182B0020302B00202C2B00209822002012
:108F300000F0FD03012B08D1044B00225A74421E9D
:108F4000504250411874FFF74DBF7047182B002056
:108F500010B5064C201DFFF782FB28B9637C1BB9B6
:108F6000BDE81040FFF73EBF10BD00BF182B00202A
:108F70002DE9F34180460D460F4801A916461F46CC
:108F8000FFF74AFA0446A8B11C22002105F08FFE23
:108F90002D0B0123237101A9C4F80080A760E560AF
:108FA00066610548FFF762FAFFF7D2FF002002B0C2
:108FB000BDE8F0810420FAE7982200202DE9F7436C
:108FC00081468846104801A917461E46FFF724FA35
:108FD0000446B0B11C22002105F069FE00250A9B61
:108FE000A36001A92571C4F80090C4E90378666103
:108FF0000548FFF73BFAFFF7ABFF284603B0BDE893
:10900000F0830420FAE700BF98220020FFF730BB6E
:10901000F8B546790146721E0546002393422D6835
:1090200003D30024A64202D8F8BD0133F6E70F6847
:109030002846FFF758FB01343946F3E72DE9F8439A
:10904000868ACD1C0746FFF72AFB043E35440446BA
:10905000B5FBF6F5F0B14FF48073EDB28380C680B6
:10906000013D076081464FF00008A84512D23846FE
:10907000FFF715FB064648B163790133637108F1C8
:109080000108C9F8000007608146EEE72046FFF7B7
:10909000BFFF34462046BDE8F88301210430FFF7C6
:1090A000C8BA10B5012104460430FFF7CDFA10F01C
:1090B000FF0F04D12046BDE81040FFF7A9BF10BD47
:1090C0002DE9F843C7880546181D8846B0FBF7F41C
:1090D000164607FB14003CB9A7EB0009B14528BFB1
:1090E000B14626B9BDE8F8832D68013CF3E70430AA
:1090F000A6EB09064A4608EB0401284405F0AEFD3C
:10910000B7424C442D68B9464FF0000028BFB14625
:10911000E7E72DE9F843C7888846191D0546B1FBE6
:10912000F7F4164607FB14113CB9A7EB0109B1454A
:1091300028BFB14626B9BDE8F8832D68013CF3E7A6
:1091400004312944A6EB09064A4608EB040005F061
:1091500085FDB7424C442D68B9464FF0000128BF49
:10916000B146E7E741DF7047064B10B500241C709D
:10917000054B1C60BFF35F8F0449054800F030F8D1
:10918000204610BD3C2B0020402B002068F202003E
:10919000342B002007B500230DF107008DF80730B0
:1091A000FEF7BCF9F1EE103A23F09F03E1EE103A1E
:1091B000BFF35F8F094B4022C3F884219DF807005D
:1091C000FEF7D0F905F0ECFA20B1FFF7CBFF03B0C2
:1091D0005DF804FB20BF40BF20BFF8E700E100E0DE
:1091E0000B684A684360934208BF0023016008BFD0
:1091F00043607047436843B10268916852680B440A
:109200009342436004BF00234360704710B50D498B
:10921000A1F59472914201D800200FE08B1ADB1067
:1092200003EBD3735B1002EBC30452F83330834279
:1092300005D802D204F10802ECE7606810BD2146AF
:10924000E8E700BFB8F3020008B5FFF7DFFF024B05
:10925000002808BF184608BD7DF20200054B1B68B8
:10926000082B01BF044B1868B0FA80F0400918BF02
:1092700000207047300100103401001008B54FF095
:1092800080430022C3F80C21C3F81021C3F838250D
:109290004FF0805203F54043D2F80414C3F8201570
:1092A000D2F80814C3F82415D2F80C14C3F8281502
:1092B000D2F81014C3F82C15D2F81414C3F83015D2
:1092C000D2F81814C3F83415D2F81C14C3F840159A
:1092D000D2F82014C3F84415D2F82414C3F8481562
:1092E000D2F82814C3F84C15D2F82C14C3F8501532
:1092F000D2F83014C3F85415D2F83414C3F86015FA
:10930000D2F83814C3F86415D2F83C14C3F86815C1
:10931000D2F84014C3F86C15D2F84424C3F8702571
:10932000FFF79CFF10B1384B384A1A60FFF796FFE1
:1093300018B1374BFB22C3F81825FFF78FFF48B150
:109340003449354B0A681B6822F00F0203F00F0303
:1093500013430B60FFF782FF18B1304B4FF40072DC
:109360001A604FF08043D3F80024D20744BF6FF057
:109370000102C3F800242A4AD2F8883043F470036B
:10938000C2F88830BFF34F8FBFF36F8F4FF01023B9
:10939000D3F80022002A03DBD3F80432002B2FDAA3
:1093A000204B0122C3F80425D3F80024002AFBD067
:1093B0004FF010221221C2F80012D3F80024002A24
:1093C000FBD04FF010231222C3F80422154B1A468B
:1093D000D3F800140029FBD00021C3F80415D2F8FB
:1093E0000034002BFBD0BFF34F8F0D490E4BCA68E2
:1093F00002F4E0621343CB60BFF34F8F00BFFDE781
:109400000A4B0B4A1A6008BD8C5600404881030085
:1094100000F00040E40E0040580200104096024068
:1094200000ED00E000E001400400FA05AC2200205D
:109430000090D003074B1B5C1F2B8ABF064A4FF0DE
:10944000A04203F01F03D2F80405D840C04300F047
:109450000100704776F7020000030050074B1B5CC9
:109460001F2B86BF03F01F0305494FF0A0410122C7
:1094700002FA03F3C1F80C35704700BF76F702001B
:1094800000030050074B1B5C1F2B86BF03F01F031C
:1094900005494FF0A041012202FA03F3C1F8083553
:1094A000704700BF76F702000003005008B50020A7
:1094B000FFF7E8FF0120FFF7E5FF0220FFF7E2FFDB
:1094C0000320BDE80840FFF7DDBF08B50020FFF727
:1094D000C5FF0120FFF7C2FF0220FFF7BFFF0320F7
:1094E000BDE80840FFF7BABF0A4B185C1F288ABFC7
:1094F000094B4FF0A04300F01F00D3F804250121D1
:10950000814021EA02000A40C3F80805C3F80C258F
:10951000704700BF76F7020000030050074B1B5C4A
:109520001F2B8ABF064A4FF0A04203F01F03D2F858
:109530001005D840C04300F00100704772F70200E8
:10954000000300500B2809D00C2809D0182809D096
:1095500019280CBF03204FF0FF30704700207047E0
:109560000120704702207047014B185C704700BF14
:1095700072F70200C20710B504460CD54FF0A043A5
:109580000322C3F83427C3F83827C3F83C27C3F8AD
:109590004027FFF78BFFA3070AD54FF0A0430C220B
:1095A000C3F82C27C3F83027C3F86027C3F8642713
:1095B00010BD000038B5074C051E04F1080318BFA4
:1095C0001C4623682BB11A6822605B6828469847BE
:1095D000F7E738BD4C2B002020B9054B01225A700B
:1095E000FFF7E8BF012802D1014A9070F8E7704701
:1095F000442B002020B9034B01225A70FFF7DABF39
:10960000704700BF442B002038B50B4C237883B93A
:109610000A486360A3602361E36000F0D3F8054665
:1096200005F0BEF808B900F0D9F8012323702846E8
:1096300038BD8525FBE700BF442B0020D9950200EB
:1096400037B50B4C00230DF107008DF80730FDF7FF
:1096500065FFE368013BE360E56815B900F0D2F807
:10966000A5709DF80700FDF77DFF03B030BD00BF7A
:10967000442B0020012813B509D018B103281CD0B1
:1096800002B010BD0F4B0122C3F88020F8E70E4C4A
:1096900000230DF107008DF80730FDF73FFF237819
:1096A0000BB9FFF7B1FFE3689DF807000133E360F2
:1096B0000123A370FDF756FFE2E700F08FF8FFF7F4
:1096C000BFFFDDE700E100E0442B00201FB5037879
:1096D0008DF8003043680193037A8DF80830C36831
:1096E0000393054A054B684653F8213052F8211080
:1096F000984705B05DF804FB582B0020602B002034
:109700001FB503788DF800304368019383688DF8A6
:109710000830C3680393054A054B684653F8213067
:1097200052F82110984705B05DF804FB582B002033
:10973000602B0020F0B5194B0678DFF870E043F895
:109740002620174B94460A6943F826204B7F0EF8D3
:1097500006300C4607460FCC89B06D460FC594E81D
:109760000F0085E80F001EF80630049653B1BCF1D7
:10977000000F0C4A694608BF0022381D00F0E0FDCA
:1097800009B0F0BDBCF1000F074A694608BF0022CE
:1097900007F10C0000F0BAFBF2E700BF602B0020DD
:1097A000582B0020CD96020001970200682B002064
:1097B00000F18040002382B0036003680193019BA5
:1097C00002B07047044A137923B9012110609180D7
:1097D00018467047852070476C2B0020084B1A688C
:1097E000D20706D4E02283F800230122C3F88021A7
:1097F0001A604FF080430122C3F81825704700BF5C
:1098000000E100E0044B01221A604FF08042D2F8E0
:109810001834DB03FBD470470C000040124B1B686C
:1098200010B573B14FF48070FFF7C2FF4FF0804363
:109830000122C3F808230D4B587910B95A711B68DF
:1098400098470B4B1B6873B14FF48270FFF7B0FF62
:109850004FF080430222C3F80823044B01201B6809
:10986000BDE81040184710BD000100406C2B0020DF
:109870000401004000F1804000F5C040002382B0A8
:10988000036003680193019B02B0704703681F2BBC
:1098900083BF03F01F03036001484FF0A0407047EF
:1098A0000003005007B5019001A8FFF7EFFF019BEF
:1098B00000EB8300D0F8002722F44032C0F80027E4
:1098C000D0F8003743EA0143C0F8003703B05DF831
:1098D00004FB0000054B4FF0FF32072843F820201F
:1098E00084BF1B1883F85820704700BF742B0020DA
:1098F00010B5184C94F86A3053BB04F13003302192
:10990000FF22013911F0FF0103F8012BF9D1C8B290
:10991000FFF7E0FF01310C29F9D1062200210E48A2
:1099200005F0C5F90D4BE02283F806234022C3F869
:1099300080214FF4BE701A60FFF79CFF084B4FF078
:109940000042C3F80423012384F86A30002010BDCC
:109950000820FCE7742B0020D82B002000E100E059
:1099600000600040034B93F86A00003018BF0120EC
:10997000704700BF742B0020F7B53B4E33180546E7
:1099800093F93030002B6CDA8B78C3F34003002B53
:109990000BBF082400240C200820844202D104209C
:1099A00003B0F0BD56F82470013743D1701946F862
:1099B000242080F8304013B9331983F858508B783D
:1099C0005A0717D4D80737D501A80195FFF75EFFCE
:1099D000019B00EB8300D0F8003723F00203C0F8AE
:1099E00000372248EA0805F007070123BB40875CDF
:1099F0003B43835488780A7810F0020028D0A400F2
:109A000004F1804404F5C0442D02D4F8103523F449
:109A10004F3323F44073C4F810351204D4F81035D2
:109A200005F47C5502F4403215431D43C4F810552B
:109A30000020B5E70134B0E701A84A780195FFF7A7
:109A400025FF019B03F5E073920040F82320C8E74F
:109A5000083C344494F8605045EA821284F860204F
:109A60009EE708209CE700BF742B0020D82B002025
:109A700073B5224C2518064695F93020072A19DDC2
:109A8000224492F858309B09032B0FD1019001A872
:109A9000FFF7FCFE019AD0F81035D340DB0707D45E
:109AA00002213046FFF7FEFE02B070BD012BF7D059
:109AB0000321F6E7D3B2072BF6D8930003F18043D6
:109AC00003F5C043D3F8100540F00100C3F81005BA
:109AD00002F14000800080B2FFF7CCFE0029E3D005
:109AE00095F9303054F82330002BDDD0012303FAF0
:109AF00002F2034BC3F80423D6E700BF742B002007
:109B00000060004007B5019001A8FFF7BFFE019B70
:109B1000D0F81005D84000F0010003B05DF804FB58
:109B20002DE9F04F002489B0CDE90244624D4FF495
:109B30008072012102F1804303F5C04390B21B689B
:109B4000012B06D1D5F804330B4202D0FFF792FE69
:109B50000C430432B2F5907F4FEA4101EAD1574BF2
:109B60001B68012B0ED14FF4BE70FFF783FE4FF040
:109B7000A04344F00044D3F810350293504BD3F87F
:109B80001035039314F0FF0F1AD04E4F0025012615
:109B9000344210D0AB0003F1804303F5C043D3F847
:109BA0001005D3F8101557F8253023B1C1F3014142
:109BB000C0F3052098470135082D4FEA4606E7D146
:109BC000002C75DA0DF1100800230493C8F8043056
:109BD0004FF0FF33CDE90633DFF8E8A0DFF8E89077
:109BE00000273D4619F9014B631C48D0E4B201231C
:109BF00024F0C00604F0070203FA02F2F00808ABF2
:109C0000191811F8083C134239D00AEB0603A409CD
:109C100093F930305AF823B0BBF1000F08D1032C70
:109C20002DD118F800C04CEA020C08F800C001E081
:109C3000032CF6D001A80196FFF728FE019B11F82E
:109C4000181C03F5E07C114250F82C00C0F30140D1
:109C500005D0022813D1032C0BD1214604E00328A0
:109C60000DD1032C05D102213046FFF71BFE013533
:109C7000EDB2BBF1000F02D021463046D847013784
:109C8000042FAFD1A5B14FF0A0430299D3F810250E
:109C900003F540739142D3F8103502D103999942EC
:109CA00006D002920393049A059B0692079395E7C8
:109CB00009B0BDE8F08F00BF006000407C6100404B
:109CC00000030050742B0020D42B0020014B1B6894
:109CD000184700BFE02B00200E4B984237B50D46C9
:109CE00002D0002003B030BD00230DF107008DF835
:109CF0000730FDF713FC084B1C7914B901221D60D5
:109D00001A719DF80700FDF72DFC002CE9D01120F9
:109D1000E8E700BF00200040E02B0020034B984202
:109D200001BF034B00221A601A71704700200040E7
:109D3000E02B00200023435082B043580193019B45
:109D400002B070470A4610B54FF48E71FFF7F2FF6C
:109D5000136A9168C95C136A01331362C0F81C1559
:109D600010BD8B690A4610B54FF4847123B9FFF713
:109D7000E1FFD0F8183510BDFFF7DCFF536AD1685A
:109D8000D0F81805C854536A01335362F3E7000052
:109D90001FB501238DF80030044BCDE90110D3E944
:109DA00000126846904705B05DF804FBE82B0020E0
:109DB00030B54C4AD2F8043313F4007F85B0154611
:109DC0004FD0D2F82431002B4BD04FF49271104673
:109DD000FFF7B0FF4FF40173C2F80833424B93F81A
:109DE000291009B9012151603E4902228DF8002055
:109DF000D1F88024C1F8802403929A690292DA682B
:109E000001920022C3E906226846D3E90012904776
:109E10003448D0F81C315BB133490A6A4B699A4225
:109E20000A464BD291F82830002B47D1FFF78AFF22
:109E30002C4AD2F8443193B14FF4A2711046FFF787
:109E400079FF294B93F8291009B1012111609A6912
:109E50002AB100229A61586AD968FFF799FF05B0C4
:109E600030BDD5F804335B07D2D5D5F80831002BC7
:109E7000CED01D4C1B482146FFF773FF636AA269D1
:109E80009A422346C4D1E269E1684AB12369E3609A
:109E90000023606AA261E3616362FFF779FFB7E7BD
:109EA00094F829200AB901226A600E4A4FF4017021
:109EB000C2F8080300229A61586AEEE74FF48E71E7
:109EC0000848FFF737FF51690029B1D000230291FC
:109ED00091688DF80030019153616846D2E9001312
:109EE0009847A5E700200040E82B00201F2886BFE8
:109EF00000F01F00044B4FF0A04300F5E070022279
:109F000043F82020704700BF000300502DE9F843BC
:109F1000664B047991462C2202FB0432064692F8E5
:109F20002A200D469846002A40F0BC80604900680F
:109F3000FFF7D2FE0746002840F0B68029684A1C89
:109F400010D01F2987BF01F01F035A4A0B464FF05C
:109F5000A0420120984003F5E073C2F808050320F1
:109F600042F823006868431C0DD01F288BBF00F007
:109F70001F0303464F4A4FF0A04203F5E0734FF032
:109F8000000C42F823C03368AA6995F814C0C3F8DE
:109F900024256A7DBCF1010F4CEA0202C3F86C254E
:109FA000C3F81405C3F80C152BD1A968481C0DD0B3
:109FB0001F298BBF01F01F020A463E484FF0A04008
:109FC00002F5E0724FF0000C40F822C0E868421C35
:109FD00013D01F2887BF00F01F0C364A84464FF06D
:109FE000A0424FF0010E0EFA0CFE0CF5E07CC2F818
:109FF00008E54FF0030E42F82CE0C3F80805C3F85B
:10A0000010152C23634308EB0302C2F804902A695D
:10A0100048F80320B9F1000F31D04FF48E71306849
:10A020002D7FFFF787FE30684FF4A271FFF782FEA5
:10A030003268214BC2F80433120B53B2002BA8BF75
:10A0400003F160404FEA53134FEA4511BABF1B4872
:10A0500002F00F0500F561404FEA8303C9B203F136
:10A060006043B4BF415580F8001303F5614302F02B
:10A070001F02012101FA02F2C3F880211A6033683D
:10A080000422C3F800252C2303FB04830022C3E928
:10A09000062283F829205A61012283F82A203846B3
:10A0A000BDE8F8830827FAE71127F8E7E82B002036
:10A0B000B19D0200000300508000020014ED00E09A
:10A0C0002DE9F04103680479254D0022C3F80025ED
:10A0D0002C2202FB04520646526872B1214AC3F890
:10A0E0000823190B4AB20120520901F01F0100FA9E
:10A0F00001F120321C4840F82210D3F80C05D3F8A7
:10A100001485D3F80815D3F810754FF0FF3290423C
:10A11000C3F81425C3F80C25C3F80825C3F8102587
:10A1200001D0FFF7E3FEB8F1FF3F02D04046FFF752
:10A13000DDFE7A1C02D03846FFF7D8FE4B1C02D059
:10A140000846FFF7D3FE3068FFF7E8FD2C2303FB3A
:10A150000454002384F82A306360BDE8F08100BF16
:10A16000E82B00208402020000E100E02DE9F84322
:10A17000224F06794FF02C0909FB06748046656969
:10A18000002D37D16261A16025624FF48E710068A5
:10A1900084F82850FFF7CEFDD8F800000123836033
:10A1A0002146FFF7CFFD6368A1462BBBD8F80050CE
:10A1B000226A63699A4212D3D8F80030D3F81C217E
:10A1C000002AFBD00122DA6000202C2303FB067654
:10A1D00000237361BDE8F88394F8283043B9D5F8BB
:10A1E0001C31002BF8D049462846FFF7ABFDDFE7CE
:10A1F0000F20EAE71120EDE72846EBE7E82B0020E7
:10A200000023435082B043580193019B02B0704732
:10A210001FB501238DF80030054B8DF80800019122
:10A220006846D3E90012904705B05DF804FB00BF13
:10A23000142C00207FB5384AD2F82461002E49D072
:10A2400010464FF49271FFF7DBFF02238DF80030C8
:10A25000D2F88034C2F880340393D2F83C358DF8BC
:10A2600008302E4BDA6801920022C3E906226846C4
:10A27000D3E900129047284AD2F8443173B14FF421
:10A28000A2711046FFF7BCFF244B996931B1002140
:10A290009961D2F83C05D968FFF7BAFF1E4AD2F897
:10A2A0002031ABB14FF490711046FFF7A9FF1B4B63
:10A2B000596969B1D2F84C158DF8081000229968D7
:10A2C0008DF8002001915A616846D3E90012904749
:10A2D00004B070BDD2F81031002BCCD04FF488718F
:10A2E0001046FFF78DFF0D4BD2F83C059969884267
:10A2F000C1D1DC69D96864B1D2F8005225F02005DB
:10A30000C2F800521A699C61DA60DE61FFF780FFD3
:10A31000B1E79C61FAE700BF00200040142C002048
:10A320001F2886BF00F01F00044B4FF0A04300F52C
:10A33000E070022243F82020704700BF0003005065
:10A340002DE9F8436A4B06799146242202FB063236
:10A35000044692F820200D469846002A40F0C4801A
:10A3600064490068FFF7B8FC0746002840F0BE804B
:10A370002868421C10D01F2887BF00F01F035E4AC8
:10A3800003464FF0A0420121994003F5E073C2F863
:10A390000815032142F8231069684B1C0DD01F29B2
:10A3A0008BBF01F01F030B46534A4FF0A04203F549
:10A3B000E0734FF0000C42F823C02368AA6995F8B7
:10A3C00014C0C3F824256A7DBCF1010F4CEA0202D7
:10A3D000C3F86C25C3F80C05C3F814152BD1A96874
:10A3E000481C0DD01F298BBF01F01F020A464248AE
:10A3F0004FF0A04002F5E0724FF0000C40F822C090
:10A40000E868421C13D01F2887BF00F01F0C3A4A8F
:10A4100084464FF0A0424FF0010E0EFA0CFE0CF5F0
:10A42000E07CC2F808E54FF0030E42F82CE0C3F8D8
:10A430000805C3F810152423734308EB0302C2F880
:10A4400004902A6948F80320B9F1000F3BD04FF47B
:10A45000887120682D7FFFF7D3FE4FF4907120683C
:10A46000FFF7CEFE4FF492712068FFF7C9FE206817
:10A470004FF4A271FFF7C4FE2268204BC2F80433E8
:10A48000120B53B2002BA8BF03F160404FEA5313E5
:10A490004FEA4511BABF1A4802F00F0500F56140B6
:10A4A0004FEA8303C9B203F16043B4BF415580F85A
:10A4B000001303F5614302F01F02012101FA02F2C9
:10A4C000C3F880211A6023680822C3F800252423DA
:10A4D00003FB06830022C3E906225A61012283F8A6
:10A4E00020203846BDE8F8830827FAE71127F8E767
:10A4F000142C002035A202000003005010030200BB
:10A5000014ED00E02DE9F04103680479254D0022A7
:10A51000C3F80025242202FB04520646526872B199
:10A52000214AC3F80823190B4AB20120520901F04D
:10A530001F0100FA01F120321C4840F82210D3F824
:10A540000C05D3F81485D3F80815D3F810754FF01F
:10A55000FF329042C3F80C25C3F81425C3F8082530
:10A56000C3F8102501D0FFF7DBFEB8F1FF3F02D0A2
:10A570004046FFF7D5FE7A1C02D03846FFF7D0FEE2
:10A580004B1C02D00846FFF7CBFE3068FFF7C6FB36
:10A59000242303FB0454002384F820306360BDE8C7
:10A5A000F08100BF142C00201003020000E100E045
:10A5B00001F06043B3F1005F2DE9F041074632D16D
:10A5C0001C4B0679242505FB063598466C6964BB4F
:10A5D0006A61A96000684FF49071FFF711FE4FF4B3
:10A5E000AC713868FFF70CFE3B686A69A968C3F86C
:10A5F0004415C3F8482501229A606A68BAB9D3F8AD
:10A600002011D3F8582149B9002AF8D00F2024236B
:10A6100003FB068600237361BDE8F081002A14BFA6
:10A620000F200020F3E71020F6E71120F4E7204682
:10A63000F2E700BF142C00200220FEF755BF0000F7
:10A640002DE9F04781460D46FEF77CFF03280446BE
:10A6500004D8012D04D025B3022D2FD0BDE8F087FA
:10A66000194D47003A18A918AE5C4A7852B1DFF884
:10A670006880164842464FF40041FCF7F9FE08B9DD
:10A6800088F800903B192B449A78114B1A55002EEC
:10A69000E4D0104B1B68002BE0D03046BDE8F047FB
:10A6A00018470A48FCF72AFF074B04EB44021344FF
:10A6B0009E78074B1B5DB342D0D1E8E7024B00EB1D
:10A6C00040041C446678E2E79C2C00205C2C0020AF
:10A6D000B52C0020B02C0020382C0020022100785E
:10A6E000FFF7AEBF08B5094B1B7853B10020FEF74A
:10A6F000C9FE0120FEF7C6FE0320BDE80840FEF7B4
:10A70000C1BEBDE80840FEF7D1BE00BF392C002015
:10A71000F8B5794C237805461BB100232370FFF769
:10A72000E1FF172D00F28480DFE805F00C13133FE2
:10A730005061727C84898489919696969696C0C55C
:10A74000CDD5E0E0FFF7CEFF6C4B00241C70204617
:10A75000F8BD0020FEF76EFEF8B10020FEF792FE75
:10A76000022D0CBF4FF4E1614FF47A61634B1D7011
:10A770004FF400404FF4FA740025E0FB01454FF41C
:10A780007A7200232046294604F068F90022014627
:10A790005B48BDE8F840FCF76BBEFEF75FFE022D9C
:10A7A0000CBFC8214FF4C871E0E70020FEF742FE5D
:10A7B00040B10020FEF766FE4FF448714F4B032274
:10A7C0001A70D5E7FEF74AFEC821F7E70020FEF72A
:10A7D00031FE38B10020FEF755FE4FF47A61474B49
:10A7E0000422EDE7FEF73AFE4FF4C871F7E70020C8
:10A7F000FEF720FE48B10020FEF744FE3F4B052245
:10A800001A7041F69A110022C2E7FEF727FEF5E71B
:10A810000020FEF769FE394B06221A70002240F62E
:10A82000CD41B5E70020FEF719FE344B07221A7020
:10A8300000248CE701202070FEF756FEEEE7012091
:10A840002070FEF751FE00224FF48041A0E7FEF792
:10A850003CFE2A4B0C22EAE72A482B4EFCF74EFE20
:10A86000D5F1110504461CD0D8B9012D13D0C82349
:10A870005D434FF400474FF4FA7000214FF47A72B1
:10A880000023C7FB050104F0E9F8224601461D48F4
:10A89000FCF7EEFD04460220FEF7E0FD01233370D5
:10A8A00055E70220FEF7EEFD0023F8E7FFF71AFF59
:10A8B000124B1222BBE7FFF715FF0020FEF7CEFD7B
:10A8C0000E4B1322B3E7FFF70DFF0120FEF7C6FD85
:10A8D0000A4B1422ABE7FFF705FF0020FEF7BEFD91
:10A8E0000120FEF7BBFD054B1522A0E7FEF7EDFDAD
:10A8F000024B1D709CE700BFAC2C0020B42C002044
:10A900007C2C00203C2C0020392C0020044B1B68A0
:10A91000DB0703D5034B1878FFF7FABE704700BF7B
:10A92000A82C0020B42C0020002910B514BF03244B
:10A930000024FEF719FE1F288ABF0A4B4FF0A043E0
:10A9400000F01F0003EB8000D0F8002722F4403213
:10A95000C0F80027D0F8003743EA0443C0F80037B6
:10A96000002010BD00030050032801D8FEF7D6BD1B
:10A9700000207047044B1B6813F0010301D0FFF760
:10A98000C7BE1846704700BFA82C002038B51C4B26
:10A9900018601C4B10F00204054619601AD01A4BBF
:10A9A0001A480E221A700F22DA7010229A711122A0
:10A9B0005A72042140F26662FCF75AFA044648B91A
:10A9C000FCF7AAFA044628B90146114A1148FCF7D7
:10A9D0003DFD0446EB0711D50120FEF7CBFD6CB918
:10A9E00021460D4A0D48FCF731FD044630B90C4AAA
:10A9F0000C480121BDE83840FCF728BD204638BD91
:10AA0000A82C0020B02C00209C2C00209CF70200D9
:10AA1000DDA60200C0F702000DA90200C4F7020083
:10AA200039A60200BCF70200032813D8012A0BD173
:10AA3000012908D100F10E02D2B200EB40000C4B0C
:10AA40001A540020704700220129F6D04BB24BB1B6
:10AA5000022901D007207047054B00EB4000184445
:10AA60004270EEE7024900EB400008448270E8E7DC
:10AA70009C2C0020032802D80121FFF755BF062097
:10AA8000704708B5012202210020FFF7CDFF08B171
:10AA9000072810D1072202210120FFF7C5FF08B1C6
:10AAA000072808D100210A220846FFF7BDFF10B190
:10AAB000072808BF002008BD0388102B10B502D05E
:10AAC000112B1ED010BD1A4C2168B1B901220846C5
:10AAD000FFF7AAFF08B1072824D10722022101208D
:10AAE000FFF7A2FF08B107281CD104220221002091
:10AAF000FFF79AFF08B1072814D1236801332360B8
:10AB0000E0E70B4A1368013B1360002BDAD1FFF733
:10AB1000B8FF0028D6D0074B1B68002BD2D0BDE869
:10AB200010401847034B1B68002BE6D09847E4E71A
:10AB3000C02C0020BC2C002008B50020FFF79AFF95
:10AB400008B1062806D10120FFF794FF10B10628AE
:10AB500008BF002008BD00000D4B10B518600C4662
:10AB600029B10120FFF700FF40B102232370094BF8
:10AB70001B6853B9BDE81040FFF783BFFFF7F4FE31
:10AB800008B10B23F2E72070F1E7002010BD00BFF1
:10AB9000BC2C0020C02C002076DF704778DF704787
:10ABA0007ADF70477CDF70478FDF704733DF704795
:10ABB000FCF7C8B908B50020FFF7DCFE08B1FCF7C8
:10ABC000C1F9FFF7B9FF08B1FCF7BCF9FFF7EEFFD9
:10ABD00018B1BDE80840FCF7B5B908BD0388212BC2
:10ABE00013B5044631D005D8102B15D0112B0AD03F
:10ABF00002B010BD3B2B01D0562BF9D11321A088F8
:10AC0000FFF7CAFF1CE0154B15491888000440F0F7
:10AC10000300FBF7F5FEEBE7104B12491888000420
:10AC200040F00300FBF7ECFE0720FFF7A3FE08B19E
:10AC3000FCF788F90C4BA1880C48198001F022FF21
:10AC40000028D5D0FCF77EF9D2E7002301A980883F
:10AC5000ADF80430FFF7A8FFF2E700BF2422002080
:10AC6000C8F70200D6F70200B4220020902D002081
:10AC700008B503784BB9054B3B211888FFF78CFFCB
:10AC800018B1BDE80840FCF75DB908BDB42200204A
:10AC9000072808B513D00A280DD0042819D10D4B68
:10ACA00013211888FFF778FF30F0080311D0BDE8B2
:10ACB0000840FCF747B9BDE80840FFF77BBF054BEC
:10ACC0001A884FF6FF739A4203D1034800F001FE41
:10ACD000EAE708BDB4220020C42C002008B588B1E2
:10ACE000032813D10A4B0B491888000440F00300D5
:10ACF000FBF786FE0220FFF73DFE38B1BDE80840B5
:10AD0000FCF720B9BDE80840FFF754BF08BD00BFFD
:10AD10002422002024F8020008B50321044800F092
:10AD200071FC18B1BDE80840FCF70CB908BD00BFC4
:10AD3000C42C002030B5037885B004460D2B10D804
:10AD4000DFE803F0070F110F220F2A390F350F39F3
:10AD500032391A4B1A491888000440F00300FBF7F7
:10AD60004FFE05B030BD154B40881D8800F0ACFF8C
:10AD70002D04237A009345F00305024663881149A8
:10AD80002846FBF754FEECE7002303A940888DF822
:10AD90000C3002F04DFCE4E7FDF7B6FA30F00803A2
:10ADA000DFD0FCF7CFF8DCE7FFF7B6FFD9E70069A3
:10ADB0000028D6D0F5E78068FAE700BF24220020FB
:10ADC00036F802005FF80200FCF7BCB800B54FF49B
:10ADD0000041B3B00020FBF74FFC08B1FCF7B2F81C
:10ADE000FBF778FBFCF702FB08B1FCF7ABF87E49F8
:10ADF0000320FFF7CBFD08B1FCF7A4F807A900205A
:10AE0000FFF7AAFE08B1FCF79DF89DF81C40FEF77D
:10AE1000ABF908B1FCF796F803F044FC08B1FCF775
:10AE200091F8002307A90120079303F003FD08B15F
:10AE3000FCF788F807A803F0A7FD08B1FCF782F833
:10AE400011236A488DF8103003F064FF04AE82B21B
:10AE500066493046FFF7A6FE08B1FCF773F840F2EA
:10AE6000C230FFF79BFE08B1FCF76CF80021082206
:10AE700007A803F01CFF5E494FF0C87307A8CDE98F
:10AE80000713FFF78DFE08B1FCF75CF80021594865
:10AE900001F0F6FC08B1FCF755F8AC22002107A838
:10AEA00003F005FF544B554A0793554B0C93FC2375
:10AEB000106851688DF803300DF10303089301AB5E
:10AEC00003C312891A805923ADF8103001AB0693E1
:10AED0000A23ADF8143000238DF858304FF49672E1
:10AEE00044F250630125CDE9292307A9454B464883
:10AEF000ADF82C5010968DF89850309300F018FB58
:10AF000008B1FCF71FF801213F4800F00EFB3F4B52
:10AF10003F48079307A901F0A3FD08B1FCF712F819
:10AF20001C220DEB0200002103F0C1FE00234FF4B0
:10AF30002032CDE90732ADF82A304FF470228DF877
:10AF40002C30344B09920C930322334B8DF828207C
:10AF500007A80D9300F0DAFD08B1FBF7F3FF02F04C
:10AF600013FB08B1FBF7EEFF0522002107A803F051
:10AF70009EFE079B03F07C42284B134307939DF8EA
:10AF8000203023F0030343F0030307A88DF820309B
:10AF900002F044FB08B1FBF7D5FF214802F026FB85
:10AFA00008B1FBF7CFFF1F4D1F492888000440F070
:10AFB0000300FBF725FD022C12D128881B49000451
:10AFC00040F00300FBF71CFD02F040FB08B1FBF76B
:10AFD000B9FFFBF7B5FB0028FBD1FEF7DBF8F8E77C
:10AFE000FFF79AFEF5E700BF91AC0200E1F702001F
:10AFF0005000A0007C2D0020020601061AF8020075
:10B00000B0220020DDAC0200C42C0020B1AB020055
:10B01000902D002071AC0200C9AD02003107100371
:10B0200035AD020024220020F7F702000DF80200DF
:10B030006DDF704779DF70477DDF704764DF7047F1
:10B040002DE9F74F0C9CBDF834B0278800258046C9
:10B050008A4691462E46B8F80020B2420BDC35B144
:10B060002288013AD21B92B2FF2A39D8DA55002041
:10B0700003B0BDE8F08FD8F8042052F82600019004
:10B0800000220DF1030101A8FFF7D8FF0028EFD13E
:10B090009DF803204A4521D12288002D14BF0020AD
:10B0A000022002EB09010144594519DC3DB9013286
:10B0B00092B2228003F802A02288013222802288E4
:10B0C0000DF103011A4401A8FFF7B8FF0028CFD102
:10B0D00021889DF803200A44228001250136BAE721
:10B0E0000C20C5E72DE9F341089CBDF82450174614
:10B0F000CDE9004502220646FFF7A2FF48B910221B
:10B1000039463046CDE9084502B0BDE8F041FFF7C9
:10B1100097BF02B0BDE8F0812DE9F04F00231688FB
:10B12000138090F82D3085B007460D46144653B372
:10B13000082E01D80C2007E102A8FFF779FF0028AC
:10B1400040F0028113880822CA54238801339BB23D
:10B150001B222380CA542088013080B2208006221E
:10B160000DF10901284403F079FD23889DF808209A
:10B1700006339BB212F0FE0218BF01222380EA546C
:10B18000238801332380BB78FBB123880433B34287
:10B19000D0D802A8FFF74EFF002840F0D5802388C2
:10B1A0000322EA54238801339BB219222380EA54F4
:10B1B0002388BDF8082001339BB2E9182380EA54A4
:10B1C000120A4A70238802332380FA789AB12388BE
:10B1D000D91CB142AED80221E954238801339BB275
:10B1E00001212380E95423880B449BB22380EA5435
:10B1F00023880B4423807A68AAB12388D91CB142E2
:10B2000098D8022192F90020E954238801339BB297
:10B210000A212380E954238801339BB22380EA5416
:10B220002388013323803B89002B40F081803B8AB7
:10B2300053B1CDE900462B460722032107F1100048
:10B24000FFF750FF00287FD13B8B53B1CDE900467B
:10B250002B461522142107F11800FFF743FF0028A1
:10B2600072D13A6A002A72D1D7F82480B8F1000F5F
:10B2700030D0B8F804302188981C8A1C0244B242AD
:10B280003FF658AFFE283FF655AF03336B54238883
:10B2900001339BB2FF222380EA54238801339BB2FF
:10B2A0002380B8F80020EA54E918120A4A7020886E
:10B2B000023080B22080B8F804205AB1D8F80810C3
:10B2C00000294ED0284403F0C9FC2388B8F8042094
:10B2D0001344238097F82C30002B7DD1387898B315
:10B2E0003B88012B3DD0228802F1020CB4453FF689
:10B2F00021AF012805D17B78023313449E42FFF42D
:10B3000019AF023EB61AB6B202A905EB0C00ADF8B1
:10B310000860FFF791FEB8B93B78022B40F09F80A0
:10B32000BDF80830B34240F2B680ADF808609FE047
:10B33000CDE900462B460622022107F10800FFF75F
:10B34000D1FE00283FF473AF05B0BDE8F08FB4F82C
:10B3500000C00CF10603B3423FF6ECAE118805299C
:10B3600001D80720F0E76FF4486E01EB0E039BB2A3
:10B370004FF27D3E7345F4D95388052BF1D96FF414
:10B380004860181880B27045EBD94FF6FF708142C3
:10B3900003D0834201D09942E3D8052305F80C304D
:10B3A000238801339BB212212380E954238801337F
:10B3B0009BB223801188E954E818090A4170238858
:10B3C00002339BB223805288EA54E918120A4A7069
:10B3D00023880233238047E7BB6A002BC1D04FF09C
:10B3E00000094FF00C0A4FF0160B97F82C305FFA5B
:10B3F00089F293427FF672AFB96A0AFB02F201EB5F
:10B400000208B8F80430981CFE283FF693AE208856
:10B4100003332B54238801339BB2238005F803B0F8
:10B42000238801339BB223808A5AEA54E918120A0E
:10B430004A702088023080B22080B8F804205AB1C7
:10B44000D8F8081000298CD0284403F007FC238882
:10B45000B8F804201344238009F10109C5E7012B42
:10B460007FF463AF7B789E42FFF45FAFADF80830A6
:10B470000821BDF80830FE2B3FF65CAE2288013370
:10B48000AB542288013292B22280A95422881344FC
:10B490002380002058E70921EBE770B5C0B14AB11D
:10B4A00016880024B44203D305196D789D4208D054
:10B4B000A14201D800200BE0055D01352C44A4B267
:10B4C000F0E7A142F6D9A31C1380005D013880B2D9
:10B4D00070BD13B50023ADF8063013460DF106021A
:10B4E0000446FFF7DAFF10B1BDF80600204402B0B1
:10B4F00010BD72DF704773DF704774DF704738B577
:10B50000012204460D46B0F89810D0F89400FFF7D9
:10B51000E0FF00B1057004F13C0204F1940104F174
:10B520005400BDE83840FFF7E4BF80F830107047A2
:10B53000F8B504460F46002960D000285ED091F887
:10B540007A301BB191F89830002B59D107F1780669
:10B550000FCE4FF0000C251D84F802C00FC50FCE92
:10B560000FC596E8070085E8070084F830C0D7F8D3
:10B57000A4306363D7F8A830A3634FF6FF7504F1D6
:10B580009403C4F8A430A4F8A8500722614604F13B
:10B59000AA0003F08CFB23780BB984F854502246A0
:10B5A00004F155011F25C4F89410384622F8985F1D
:10B5B000FFF7B2FD08BB224604F17401C4F89C10E9
:10B5C00007F13C0022F8A05FFFF7A6FDA8B9A36928
:10B5D000A4F848304FF480720123A4F85020626927
:10B5E00020646264014684F83C3004F13C0204F1BA
:10B5F0005400FFF77EFF00B92370F8BD0E20FCE772
:10B600000720FAE72DE9F04190F8008004460D4646
:10B61000B8F1000F00F01281A1700020FDF74AFB85
:10B62000074620B1012363700020BDE8F08104F1DA
:10B63000AA0601460722304603F039FBE38813B11E
:10B64000A378012B04D0E3794BB1A378022B06D168
:10B65000636B9BB1012284F8B120082098473246E1
:10B6600004F1B00112F8013F5BB98A42FAD16A1EB7
:10B67000032A54D8DFE802F0070D111484F8B13022
:10B68000EDE74346F3E7A2791AB194F8242002B912
:10B690005BB9E2790AB1002B43D1237A002B42D166
:10B6A000637A002B0CBF00250425636BA570002B6B
:10B6B0003BD0033D012D38D86279002A35D094F86B
:10B6C000B22092BB84F8B420012284F8B320072072
:10B6D000984704F13C0518220021284603F0E7FAB8
:10B6E000E26A0123511E994284F83C3001D9042AB0
:10B6F00001D1D3B2474694F8242084F851301AB1CE
:10B70000BFB1A36A84F85230A178002384F8503086
:10B7100004291DD8DFE801F07C0F273A5E000025E0
:10B72000C3E70225C1E70325BFE7002384F8B33050
:10B73000CFE70123E6E7C4F8A430C4E9106302238D
:10B74000012284F83C30802384F83120A4F848306A
:10B75000A378002B5FD1636B002B3FF465AF94F8A7
:10B760003100984760E70223002A84F8313014BF83
:10B770000723032384F83C302369A4F848300023CE
:10B78000C4F8A430E36826646364E1E76369636432
:10B79000A369A4F8483012B1062384F83C306379D9
:10B7A000B3B194F8B2309BB994F8B43083B10223AA
:10B7B00084F8503004212046FFF7A1FE0028C7D1AD
:10B7C000052384F8313004F19403C4F8A430BFE7B2
:10B7D0000323F6E7E3696364236AA4F8483012B1EF
:10B7E000062384F83C30637983B194F8B2306BB9A6
:10B7F00094F8B43053B1022384F850300421204629
:10B80000FFF77DFE0028A3D10623DAE70423D8E75B
:10B8100084F831309CE72A46D4F8A41004F154008F
:10B82000FFF767FE00287FF400AF94F8301094F81B
:10B830005400FFF760FE00288DD0F6E60820F4E6FD
:10B840000388112B10B50C460AD0262B1FD0102BC5
:10B8500005D1C37B012B02D18388A1F8A83010BD8C
:10B860000022838881F8B220B1F8A8209A42F6D14C
:10B870000B79002BF3D101212046FFF7C3FE0028EE
:10B88000EDD0A36B002BEAD0BDE810401847037A37
:10B89000013B012BE3D8897805230131B1FBF3F398
:10B8A00003EB8303C91AC9B2E6E70238012810B5D1
:10B8B0000C460DD84B785BB100234B70204689783D
:10B8C000FFF7A0FE20B1A36B13B1BDE810401847ED
:10B8D00010BD38B5044690F85400FFF70EFE012362
:10B8E00084F8B230002384F8B43084F85030062154
:10B8F0002046FFF704FE054638B9A1782046FFF739
:10B9000081FE10B1A36B03B19847284638BD75DF9F
:10B91000704776DF70477ADF70477BDF7047000043
:10B92000034B1A8882420CBF18460020704700BFA4
:10B93000B82D0020024B9B6903B11847704700BF28
:10B940009C2D002037B585B22846FFF7E9FF034656
:10B9500070B1164C017A227B91420BD200F10A01A0
:10B960002846FFF7D4FFE8B1112801D0FFF7E2FF26
:10B9700003B030BD237C0022027243B13B21284634
:10B98000FFF7C7FF30F0080301D0FFF7D3FF63696B
:10B99000002BEDD000228DF80420ADF8065001A850
:10B9A0009847E5E71A7A01321A72E1E79C2D0020E8
:10B9B00013B50B46497A0F4C024669B9D4E9011018
:10B9C0001C7A002C18BF01465868FBF751FD08B1DE
:10B9D000FFF7B0FF02B010BD002119726369002BA0
:10B9E000F8D00121ADF806008DF8041001A89847A1
:10B9F000F0E700BF9C2D00204B8802889A4213D8A4
:10BA000042889A4210D380888A8840F2F313984281
:10BA100094BF031AC31A934206D800F2F31090425F
:10BA200034BF002001207047002070470388112B8D
:10BA300070B5014648D002D8102B1ED070BD122B15
:10BA400052D0502BFAD12F4BC288DB899A42F5D1C4
:10BA5000038A022BF2D186883046FFF761FF054644
:10BA60000028EBD001F1120000F0A4F930BB6868A7
:10BA7000FBF744FD0028E1D009E0C37B012BDDD1B9
:10BA80004FF6FF70FFF74CFF054620B90420BDE8D4
:10BA90007040FFF74FBF1C4A8E8806800023037258
:10BAA0001368C5F80A300A30536843601031FFF755
:10BAB000A3FF144B6872DB89002BBFD129463046A7
:10BAC000BDE87040FFF774BF8088FFF729FF044688
:10BAD0000028B3D04068FBF711FD08B1FFF72AFF3B
