:020000022000DC
:10600000000004205D620200B5620200B762020077
:10601000B9620200BB620200BD6202000000000023
:10602000000000000000000000000000BF6202004D
:10603000C162020000000000C3620200C5620200EB
:1060400081980200CB620200319D0200CF62020003
:10605000D1620200D3620200859B0200D762020077
:10606000D9620200DB620200DD620200DF62020030
:10607000E1620200E3620200E5620200E762020000
:10608000E96202009D700200ED620200EF62020010
:1060900039710200F36202001DF40200F76202008F
:1060A000F9620200FB620200FD620200FF62020070
:1060B0000163020003630200C7620200C7620200BC
:1060C0000563020007630200096302000B6302001C
:1060D0000D6302000F6302001163020013630200EC
:1060E000156302001763020019630200C762020011
:1060F000C76202001D630200C76202001B63020048
:10610000354936480A1A02D0072291438D46344950
:1061100034480A1A06D00722914381F309880222E3
:1061200082F3148830483149314A00F044F831484C
:106130003149324A00F03FF831483249324A00F0E2
:106140003AF832483249334A00F035F83248334998
:10615000334A00F030F833483349344A00F02BF822
:1061600033483449344A00F026F834483449002290
:1061700000F02CF833483449002200F027F8334867
:106180003349091A082902DB002202604160314AC2
:1061900090471F481F49884205D00268043003B465
:1061A000904703BCF7E700208646EC46002000211C
:1061B000294A9047FEE7884207D0521A05D0037853
:1061C00001300B700131013AF9D17047884202D099
:1061D00002700130FAE770470000042000E003205D
:1061E0000000042000000420700C0300E02B0020BD
:1061F0005C2C002020630200206302003EFA0200B3
:10620000700C0300E02B0020E02B0020C8FB0200F4
:10621000C8FB0200C8FB0200C8FB0200C8FB02006A
:10622000C8FB0200C8FB0200C8FB0200700C0300A0
:10623000EC0C03005C2C00205C2C00205C2C00206B
:10624000063C0020083C0020083C0020083C0020C0
:10625000085C002081620200E9AF02000F484FF0A5
:106260000701884385460E4880470E48016841F47F
:1062700070010160BFF34F8FBFF36F8FFFF740BF17
:1062800009480A490A4A884207D0521A05D00378B9
:1062900001300B700131013AF9D170470000042040
:1062A000E192020088ED00E070FB0200882B0020E4
:1062B000E02B0020FEE7FEE7FEE7FEE7FEE7FEE755
:1062C000FEE7FEE7FEE7FEE7FEE7FEE7FEE7FEE7A6
:1062D000FEE7FEE7FEE7FEE7FEE7FEE7FEE7FEE796
:1062E000FEE7FEE7FEE7FEE7FEE7FEE7FEE7FEE786
:1062F000FEE7FEE7FEE7FEE7FEE7FEE7FEE7FEE776
:10630000FEE7FEE7FEE7FEE7FEE7FEE7FEE7FEE765
:10631000FEE7FEE7FEE7FEE7FEE7FEE7FEE700BF7B
:10632000F0B595B01C46164608460D4602F0B5FE7F
:106330001A9B0D93CDE9086400242346082205A981
:1063400028460A948DF82C400C9402F0E2FE079B3C
:106350000293069B03939DF814308DF8114003F0CF
:106360000302012A1DD1BDF81440059EC3F3C203E8
:10637000C4F383148DF81030A20008230EA9284618
:1063800002F0C7FEC6F3952608AB0093224602AB87
:106390000EA9304600F0E8FB284602F082FE15B058
:1063A000F0BD022AF8D1BDF81640C3F3C203A40918
:1063B0008DF810300827082C264628BF08263B46B3
:1063C00032460EA9284602F0A4FEA41B08AB02AA7E
:1063D00031460EA8374400F02BFC002CEBD1DBE754
:1063E000014B01221A7070479D2C0020704700005D
:1063F00070B50E4D06460FCD88B06C460FC495E8BB
:106400000F00002E84E80F004FF00603084A0948E9
:10641000009308BF0022694603F0BEF908B100F0FE
:1064200091FD054B1E7008B070BD00BFC8FB020097
:10643000E1630200E02B00205C2C002007B5044B38
:106440000093044A4023FFF76BFF03B05DF804FBA1
:10645000596402005D2C002038B50D4B0D4D002015
:1064600018700D4804782D5DD2B21C4665B1043019
:1064700004F0D0F808B100F065FD084B1A7812B1AD
:106480002378002BFBD038BD0C3003F0A1FEF1E7E0
:106490009D2C0020F0340020E02B00205C2C0020FC
:1064A00008B50848084A0378D35C3BB1043004F0CF
:1064B0005BF80020BDE80840FFF79ABF0C3003F0FE
:1064C00031FEF6E7E02B0020F03400200120FFF73A
:1064D0008FBF000010B5054CFFF7F8FF04212046E0
:1064E00000F0B2FA0123637210BD00BFF42B00204C
:1064F000037813F0030F03F0040202D012B9104620
:106500007047B2B103F00303012B03D0022B09D073
:10651000012070470A6800880232C0F383100244E9
:106520000A60F5E70B684288023303EB92130B60B5
:10653000EEE70B684288013303EB92130288F4E71D
:106540002DE9F04F87B000230446851C0DF10700AC
:106550000F4690468DF8073000F0E0FF454806688A
:106560003E60D0E90132134401339B1B824600F2A6
:106570001C4600F5836900F21447AB421BD300228E
:10658000B8F1000F70D0052363F3070264F389129A
:10659000DAF80010DAF808309DF807000B400333F2
:1065A0000D444AF82320CAF8005000F0DBFF012018
:1065B00007B0BDE8F08F0121304602F03AF84846B6
:1065C00002F050F8384602F04DF8DAF80400DAF834
:1065D00008B0029000EA0B0003300AEB800002A929
:1065E000FFF786FF029B50BB0BEA03020AEB820215
:1065F00003F1020CD2680392013303EA0B0B0AEB9E
:106600008B0B02F00302012ACDF808C0DBF80C1056
:1066100022D0022A16D08346384602F026F810B15E
:10662000029BCAF804305946304602F002F8DAE913
:1066300001231344DAF8002001339B1A9DE70BEA8B
:106640000300C9E7BDF80E309B0903334FEA114B35
:106650000CEB93030293DFE7BDF80C30C3F3831315
:106660004FEA114B6344F5E7062363F3070264F333
:106670009F528DE7702D002008B50E4B0E48FF226B
:106680009A600022C3F81824C3E90022C3F8142436
:1066900083F8202402F0BAFC38B9084A084B0949AB
:1066A0009B1ADB0802469A4200D108BD21F822203D
:1066B0000132F8E7702D002030FB0200A8FA02003A
:1066C00030FB0200882B002030B50A4C71B10A4A19
:1066D0000A49121BD20800239A4201D1002030BD82
:1066E00031F82350854202D00133F5E7034654F8D0
:1066F0003300F4E7A8FA020030FB02008A2B0020E6
:10670000094B013903EBC000032909D8DFE801F088
:106710000A020406042070470079704740797047E8
:106720000020704702207047A8FA0200034BD3E90B
:106730000030C31A58425841704700BF702D0020E6
:106740002DE9F04786B0FFF7F1FF0646002840F03C
:10675000F3807A4DC5F81804BFF34F8F6868AC68B2
:1067600002902040033005EB800002A9FFF7C0FE35
:10677000029B074600285FD104EA0302991C0133FB
:1067800005EB8202234005EB8303D268DB680493A8
:1067900002F00303022B0392029162D1BDF80E3086
:1067A00067484FEA9319B9F1500FCA4628BF4FF016
:1067B000500A6AF38F130AF10801ADF80E3002F0A7
:1067C0003DFC8046002800F0A58002F066FC03A98D
:1067D0003B460822404602F073FC029924EA010677
:1067E0000136B600B24535D95FFA8AFA7EB3F6B201
:1067F000AAEB060A214003315FFA8AF4B246514EF1
:1068000005EB810108235246404602F059FC36B19F
:106810000AF1080322463146404602F051FC029B31
:1068200009F1030903EB99030293D5F81834002BFF
:106830004AD1D5F8104458E02A689A4204D86A60D0
:10684000304606B0BDE8F08704EA03008AE73D4918
:106850003446D7E7214003310823524605EB810136
:10686000DAE7012B56D1BDF80C303548C3F383115C
:10687000062928BF062161F3891302318900ADF88A
:106880000C3002F0DBFB8046002843D002F005FC10
:106890003B46082203A9404602F012FCBDF80C203A
:1068A000C2F38312BB00974203F10803BDD20299E1
:1068B0004A1C21400331029205EB8101042240462B
:1068C00002F0FEFB0137E9E7404602F0EAFBFFF782
:1068D0002DFF80F00100C6B2B2E7637A23B12368CE
:1068E00041461B68204698476468002CF5D1404615
:1068F00002F0D7FB0DF107008DF8074000F00EFE07
:10690000D5F818340BB9029B6B609DF8070000F0B6
:1069100029FEDCE7D5F8104444B90B4B0B49188825
:10692000000440F0020000F06BF8D0E72368204636
:106930009B6898476468EFE7002681E7702D002088
:1069400030FB02007C2D00209C2B0020F4FB020079
:106950002DE9F74F284C80460F46924601A90122A7
:1069600018469B46D4F80890FFF7EAFD80B3019DD6
:106970000026A91C5E4506EB010233D100211F4809
:1069800001F016FE80F310006A1C02EA090204EB13
:106990008202000405EA0903033340EA1840D0608C
:1069A00014F8232068F3C50204F8232034F82320C8
:1069B00066F3891224F8232054F8232067F39F22DA
:1069C00044F8232002F0F80242F0010204F82320E8
:1069D00094F820341BB1FFF7B3FE0028FBD103B0BD
:1069E000BDE8F08F09EA020204EB82025AF8263071
:1069F000D3600136BEE700BF702D00208C3100202F
:106A000000231A46FFF7A4BF07B50123019201AA8C
:106A1000FFF79EFF03B05DF804FB07B5CDE9002347
:106A200002236A46FFF794FF03B05DF804FB1FB52D
:106A3000CDE90123069B039301AA0323FFF788FFF7
:106A400005B05DF804FB00000F4A30B5D2F81044E1
:106A50000023214641B90372D2F810444CB9C2F860
:106A600010044160184630BD0D7A9D4205D049683A
:106A7000F0E7626842606060F4E701330A2BE8D116
:106A80004FF0FF33EEE700BF702D0020084A38B505
:106A90000123D2F8104482F820341D4604B938BDD1
:106AA0002368657220465B6898476468F6E700BF14
:106AB000702D0020037A052B10B50C460FD0437AB9
:106AC00023B1084A0849204601F032FE0749204612
:106AD00001F02EFE2046BDE8104001F01EBE002A47
:106AE000F8D0F3E74FFC020054FC020074FC0200F3
:106AF000C38873B504460D4633B1144A0092144955
:106B0000144A284601F014FE217A05291CD0637A24
:106B10004BB1A088FFF7F4FD0F4B104953F820202C
:106B2000284601F005FE227A0D4BA08853F822601A
:106B30000021FFF7C9FD0B4903463246284602B043
:106B4000BDE8704001F0F4BD02B070BD4FFC020022
:106B50005FFC020057FC02001CFC020054FC020017
:106B600084FC020077FC02002DE9F04385B01F464B
:106B70000C9D002306460C46904695F80C902B730E
:106B800029463846FFF7B4FFB8F1060F09D8DFE809
:106B900008F00412181F283340003146284601F03F
:106BA000C7FD002229463846FFF784FF85F80C9080
:106BB00005B0BDE8F08322683146284601F0B8FDF3
:106BC000EFE7D4E900233146284601F0B1FDE8E7BC
:106BD000A36800933146D4E90023284601F0A8FDBC
:106BE000DFE7E3680193A36800933146D4E900230B
:106BF000284601F09DFDD4E723690293E3680193E1
:106C0000A36800933146D4E90023284601F090FDA3
:106C1000C7E76369039323690293E3680193A36859
:106C200000933146D4E90023284601F081FDB8E7FE
:106C300008292DE9F84F80460E4617461C4636D8DF
:106C4000002593F80C901D7319461046FFF750FF6E
:106C5000DFF87CA0DFF87CB0AE422AD918F8052016
:106C60005946204601F064FD0135082DF4D116493E
:106C7000DFF864B0204601F05BFD0025AE421DD96F
:106C800018F805A0504608F0F1FD002814BF524640
:106C90002E225946204601F04BFD0135082DEDD13D
:106CA000012221463846FFF705FF84F80C90BDE825
:106CB000F88F5146204601F03BFDD5E703492046B9
:106CC00001F036FDE9E700BF4AFC020048FC020083
:106CD00046FC020040FC02004CFC02002DE9F04F93
:106CE000394E87B04FF00009384B1B785FFA89F5B1
:106CF000AB4202D807B0BDE8F08F354BD3F800A007
:106D00001AF835000124D6E9001EA0F12002C0F1D6
:106D1000200304FA02F224FA03F3134304FA00FCFA
:106D2000009301EA0C030293009B0EEA0303039312
:106D3000DDE9022313430AEBC50B41D0009B21EA96
:106D40000C012EEA0303C6E9001302F00DFF1AF846
:106D500035502049A5F12002C5F1200304FA02F2C2
:106D600024FA03F31343D1E900C2AC40134004EA10
:106D70000C0105930024C3B2CDE90034009A0491BC
:106D8000C5F12003A5F1200122FA03F302FA01F86C
:106D900048EA03081346AB401F46DDE90434444586
:106DA00008BFBB420CD1DBF804304BB19BF801109B
:106DB0004A1E51425141081A4142414128469847D2
:106DC00009F1010990E700BFC8310020943100208B
:106DD000D0310020C03100202DE9F041804620480C
:106DE00000F08CFBD0BB0125A8F12004C8F12003E2
:106DF00025FA03F305FA04F41C431A4BD3E90012F5
:106E000005FA08F501EA050602EA040756EA070052
:106E10001E461DD1404602F0A7FE134BD3E90012D7
:106E200088B129432243C3E90012D6E900231C4359
:106E30000E4B0B4819681543C6E900540022BDE803
:106E4000F04100F015BB21EA050122EA0402EAE75D
:106E500021EA050522EA0404C3E90054BDE8F081F3
:106E60009C310020C8310020C03100209831002022
:106E7000042A2DE9F34105460C4616463AD902F09C
:106E8000A3FDD8B11C4B1D491D601D4BDFF884804C
:106E90001C701C4B00221E600023C1E900231A490C
:106EA000C1E90023013CE4B200260327FF2C0CD1EA
:106EB000164A1748002100F0C9FA03E002F04AFD23
:106EC0000028DFD002B0BDE8F08123B205EBC30299
:106ED00001A992788DF8052015F833008DF8066029
:106EE00042468DF8047002F079FD013CE4B20028BE
:106EF000DCD0E7E70720E5E7D0310020C0310020F3
:106F00009431002098310020C8310020DD6C02004F
:106F1000E4FC0200D96D020070B5084D084E002453
:106F20002B789C4201D3002070BD3368012113F8F7
:106F3000340002F0CFFD0134F2E700BF94310020AD
:106F4000D03100201FB50021039001AA44F20100B6
:106F5000CDE9011100F004F805B05DF804FB000074
:106F600010B572B6FFF792FDFFF7EAFB0028FBD1E0
:106F7000104C11492088000440F00100FFF740FD4B
:106F80000E4B1B68DB0700D500BE20880C490004AF
:106F900040F00200FFF734FDBFF34F8F09490A4B61
:106FA000CA6802F4E0621343CB60BFF34F8F00BFA7
:106FB000FDE700BF9C2B0020E8FC0200F0ED00E0A4
:106FC000F4FC020000ED00E00400FA05094A5378E1
:106FD00091780133DBB2994208BF002311789942BE
:106FE0001FBF03705078182303FB002014BF043028
:106FF00000207047D431002073B5054600240DF100
:1070000007000E468DF8074000F088FA0DF10600E3
:10701000FFF7DCFF90B10670094B9DF80620456034
:107020005A709DF8070000F09DFA24B9054B4FF403
:107030008012C3F80021204602B070BD0424F0E79E
:10704000D431002000E100E0024B4FF43C6043F0FB
:107050000103184710FD020038B50C4B0C4C4FF4DF
:107060000032C3F8802001254FF48033C4F8483340
:10707000C4F808336560FFF7E7FF064BA5600024FE
:107080001C60FFF7E1FF044B1C7038BD00E100E01D
:1070900000100140F0320020E1320020F8B51F4B13
:1070A0001F491B680025C1F84051C1F84451C1F87F
:1070B0004851C1F84C51C1F80051C1F804514BB3CB
:1070C000D1F8044517490968641A24F07F442F4613
:1070D0001A68A24209D8A41A15441A7CDE691AB1AA
:1070E0001F74D3E905209047AEB90F4A0F4B1178B2
:1070F0001B788B4205D10133DBB2022B08BF002382
:10710000137012780A4B43F822500A4B4FF4801246
:10711000C3F80021F8BD3346DAE700BFF43200209F
:1071200000100140F0320020ED320020EC3200204F
:10713000E432002000E100E02DE9F04FA04AA1492F
:1071400013780978A04D994285B03CD00133DBB269
:10715000022B08BF002313709C4912789C4B0F68C8
:1071600053F822003B1823F07F4300220B602B686A
:1071700016461446944613B942B12B6006E01968CE
:1071800081420ED902B12B60091A19604FF0010833
:107190002B68DFF844A201930027BEB9DFF840B2A4
:1071A00066E0401A0C44D968C3F800C0D3F81CE06C
:1071B00031B13A1922F07F42C3E90121DE611E4656
:1071C00001227346D7E70026B046E1E73446F66968
:1071D0007E4A63681268DFF80CC2A068991A21F031
:1071E0007F41614500F2A5800144216001222274A3
:1071F0002A680023C4E90133E361002A40F0A28039
:107200002C60CAE75A1C9BF80210D2B291428BF84C
:10721000002004BF00228BF80020182202FB03B3D9
:107220001A799C68022A1CD0032A12D0012A1FD185
:10723000207CE8B9D3E90312A2605A69E2609A6936
:10724000644BA2611B78002B0CBF0B4603466360A6
:10725000BEE700222B681146002B66D142B12B609D
:1072600006E029680A468946002A59D1002323747A
:107270009BF800309BF801209A42C3D12B682FB9AC
:10728000019A9A4202D1B8F1000F43D0002B73D07B
:10729000D3F800A0504D4D4BD5F804751C68DFF8AD
:1072A00048813E1B98F8003026F07F4603369BB994
:1072B0004FF48033C5F84433C5F80433474B4FF4DB
:1072C00000324FF00109C3F880211A60C5F8009020
:1072D000FFF7BAFE88F80090B2452CBF5444A419B9
:1072E00024F07F44C5F84045D5F80435DB1B23F076
:1072F0007F43E41B033324F07F44A3420AD9D5F82B
:107300000435C5F84035FFF79FFE344B4FF400328B
:10731000C3F800212F4B00221A7005B0BDE8F08F92
:1073200094422CD09146D2699EE719740122DB6900
:1073300092E7D31A23F07F43834234BFC31A00235A
:10734000236053E721681368994213D8591A1160D2
:10735000E26155E7091AD8691A4638B10346186838
:107360008842F7D3401A1860184613462160E0613E
:10737000DC6112E71346F2E7FFF76EFECAE74C4501
:1073800011D1CB692B6073B9DFF840E00120CDE962
:107390000212CAF80800CEF800300E4B1870FFF742
:1073A00053FEDDE902121368D269C9F81C2012B13C
:1073B0001068034413602B68994218BF012755E7F2
:1073C000EC320020ED320020F4320020F0320020B8
:1073D000E4320020E03200200010014000E100E033
:1073E000D4310020FEFF7F00E132002008B5FFF716
:1073F00033FE104B00200B2218809A700E4B186041
:107400000E4B18700E4B18700E4B4FF48012E0218B
:10741000C3F8802183F814131A6002F18042A2F5A8
:107420006F22C2F8080583F81113074BD2F8042520
:107430001A6008BDD4310020F4320020EC32002064
:10744000ED32002000E100E0F0320020074B9B7895
:107450004BB132B128B10368187C20B959745A6114
:107460007047072070470820704700BFD4310020C4
:107470002DE9F7431E4FBB7805460E469046A3B351
:1074800098B304292FD943697BB3437C0024012B93
:107490000DF107000CBF8946A1468DF8074000F0AA
:1074A0003DF80DF10600FFF791FDD0B10123037007
:1074B000104B4560D3F80435C0E90498C0E90236A2
:1074C0009DF806307B709DF8070000F04BF824B95A
:1074D000094B4FF48012C3F80021204603B0BDE8E9
:1074E000F0830424EFE70724F7E70824F5E700BF5B
:1074F000D43100200010014000E100E0064A9278FB
:107500003AB130B1426922B1002202740221FFF780
:1075100073BD0820704700BFD431002070B5EFF371
:10752000108672B60C4A946801239CB993600B4B89
:107530000B4DD3F8801029401160C3F88050D3F868
:10754000841051604FF0FF32C3F88420047006B9F4
:1075500062B670BD0370FAE7F832002000E100E087
:10756000FC06FFBD084B9A6810B55AB150B9EFF34D
:10757000108172B6054A1C6814605C68546098609B
:1075800001B962B610BD00BFF832002000E100E092
:1075900070B5064D0646002455F8043B0BB1304645
:1075A00098470134042CF7D170BD00BF1033002080
:1075B000033080B240F2FD33984230B51FD8124BF1
:1075C0001A783AB91C895D892C440444A4B2B4F5F4
:1075D000806F0AD31A7DA2B99A8BDC8B22440244B5
:1075E00092B2B2F5806F0CD201220A8014461422A6
:1075F00002FB04335A8910445881002030BD092011
:10760000FCE70720FAE700BF443300200B4A0C4B8D
:107610005188142000FB0131CB6833B9042049683C
:1076200010700122074801F0E7BA052306491370DC
:1076300002238B80012200230968F3E7283300200E
:1076400044330020CC2B0020FC33002007B500235E
:1076500005490093054A09680548082301F048FADE
:1076600003B05DF804FB00BFFC33002024FD0200E2
:10767000CC2B002007B50023009301460823034AC2
:10768000034801F035FA03B05DF804FB1CFD02006D
:10769000CC2B002013B500230C4600930146042395
:1076A000074A084801F024FA38B9074B142202FBB4
:1076B00004340123237402B010BD0E20FBE700BF89
:1076C00018FD0200CC2B00204433002037B50A48B7
:1076D0000A4B42689C881968538803250333057058
:1076E0009BB2002000909B0001EB8401044801F054
:1076F000FFF903B030BD00BF28330020FC33002069
:10770000CC2B002010B50146044800F085FE1C2259
:107710000446002108F030F9204610BD002C00205E
:1077200068B10268084B9A4209D14068074B9842F9
:1077300007D0013398420CBF01200320704703207B
:1077400070470020704700BFDEC0ADDEFE011EF1B5
:107750004388033300EB8303994209D382884FF6B1
:10776000FF739A4206D00088B0FA80F04009704753
:1077700002207047012070472DE9F8430223DFF80B
:1077800060800B800D46174600F5805600F1080416
:107790004FF00109B4420FD2236801330CD03146B7
:1077A0002046FFF7D5FF48B10FB187F800900228B7
:1077B0000BD14FF480632B80BDE8F883A368D8F821
:1077C0000020934201D9C8F800302B886288033327
:1077D00013442B806388033304EB8304DAE700BF90
:1077E0003C330020154A142303FB002070B50B68BE
:1077F00044680D4604F58056ABB15C88033403EB56
:107800008404B4420DD2236801330AD031462046A5
:10781000FFF79EFF01280BD010F0FF0F05D00228C4
:10782000EFD1002003E00834EBE72C60012070BDAD
:107830006388033304EB8304E3E700BF4433002091
:10784000436873B504460D466BB3244AD1688B4236
:1078500029D31269934226D813F0030223D1204979
:107860000089098988421ED12068996888421AD106
:107870001C494868834203D900F5805083420ED3E7
:107880008A6993420DD902F58052934209D20123AD
:107890002B800020B0FA80F0400902B070BD134682
:1078A000F6E70A20F6E700232B801E46019601A981
:1078B0002888FFF797FF30B92B8801339BB2012B43
:1078C0002B80F3D9E9E7019B226899689142EED1B8
:1078D0006360034B1B892381DFE700BFCC2B0020B3
:1078E00028330020443300202DE9F8431C461C4B6C
:1078F0001B7806460F4615466BB372B36CB3DFF8C0
:1079000068804FF01409A388012B01D90A2020E0D8
:1079100009FB03F318F803302BB92146A088FFF7C1
:1079200061FF20B92060A3880133A380EBE72368BF
:107930001EB1998832889142EFD11FB119883A88D7
:107940009142EAD19A68C5E90023064B1B892B8135
:107950000020BDE8F8830220FBE70520F9E700BF1F
:1079600020330020283300204433002008B5074B83
:10797000191D5888FFF736FF18B1BDE80840FFF71A
:10798000A5BEBDE80840FFF741BE00BF2833002078
:107990002DE9F04FA04FDFF8A49289B00646B84613
:1079A0003B6823B949469D4800F070FD3860D8F81F
:1079B000005029784B1E052B00F2FA80DFE813F007
:1079C00006005E005E00EE00EE005C0126B1944B06
:1079D00000225A600124ECE02B79032B1DD8DFE84C
:1079E00003F015022A358F490B78022B084619D06F
:1079F0000B7D022B4FF0010316D114225343C21802
:107A00000020C8545068FFF735FE03E001232B71B6
:107A1000FFF71CFE002800F0BC80814B00225A605A
:107A20000E24C6E00023E8E77D4A1370002353606C
:107A300041F61D54BDE07C497C48002302222B7195
:107A40008A800122096801F0D7F8E3E7764C002626
:107A50002E712068734DFFF70DFE754BD4F800C0F2
:107A60005A8814235343EA18EE5451682160A188C0
:107A7000C2F804C011810222A280CBE7B5F814A09D
:107A8000AA7DDFF8A0B1AEB1022AEB8806D9142195
:107A900001FB0AB1DA1C088902440A81142202FBA4
:107AA0000ABAC3F57F43BAF80A20FD331344AAF893
:107AB0000A308FE7142303FB0AB318895C6804EBD0
:107AC0008004062A68D8DFE802F0274D35431D59A7
:107AD000040041F61D54AA7DEB88022A06D9142120
:107AE00001FB0AB1DA1C088902440A81142202FB54
:107AF0000ABAC3F57F43BAF80A20FD331344AAF843
:107B00000A3056E04B484C4900234360AB690360A0
:107B1000FFF796FE002871D00223AB750023009377
:107B20000423EA182146414800F0E2FF002830D043
:107B30000E24D0E72B69002B14BF03230123AB7560
:107B40000023009305F10C02042304F10801EAE785
:107B50000123AB750022EB8800929B002A6904F197
:107B60000C01E0E703290CBF05230623AB750023B6
:107B70000093042305F10802E118D4E70623AB754E
:107B80002D4B19882B4B5868FFF784FD04460028BD
:107B9000A1D109B0BDE8F08F0F249CE7002E7FF43F
:107BA00019AF2B79012B4BD0E3B1022B3FF440AF3F
:107BB0000F241422002103A807F0DEFE41F61D5316
:107BC0009C4208BF0024D8F8003004941A78023A86
:107BD000042A00F20581DFE812F0E600F200150148
:107BE0001D01240102232B710DF10A01EB6803939F
:107BF00003A8CDE90466FFF723FE08B90A24D8E7F5
:107C00000498BDF80A108388EB8003882B81FFF766
:107C100041FD044627E000BF40330020002C002037
:107C20002033002044330020FC330020CC2B0020E4
:107C3000283300200433002008340020383300208B
:107C4000DFF8FCA103AA53463146A81DFFF74CFEFE
:107C5000044658B9BAF804100498FFF71BFD04460F
:107C60000A2C3FF4E5AE002CA3D192E7082231465E
:107C7000504607F081FEF3E7002E7FF4ABAE6B4B6E
:107C80001A7BAAB11E731A78013A062A90D801A16C
:107C900051F822F03B7D0200617D02007F7D0200F1
:107CA000857D0200B17B02008B7D02009D7D02007C
:107CB0001A78072AE7D801A151F822F0DD7C0200EA
:107CC000877C0200877C0200037D0200177D020092
:107CD000377D0200377D0200FF7C02001A8954497B
:107CE00001321A8100225A801A730A78B2FA82F29B
:107CF00052099A720A7DB2FA82F25209DA720122AC
:107D000007E04C4958688A884088033202448A80D8
:107D100002221A70B7E7464C5A884649142505FBDB
:107D200002420868546850608888108102228A8064
:107D30000C600622EDE70722EBE79A7A32B9DA7A8D
:107D40008AB900221A705A805A6071E638490022B6
:107D50009A72CA68002AF2D1097C0029EFD05A80B1
:107D6000FFF704FE55E70022DA72314A116A002952
:107D7000E7D192F82420002AE3D00122EFE7FFF7B1
:107D8000A5FC46E7FFF742FC43E7294A5B8814213C
:107D900001FB03235868FFF76DFC3AE700225A60A5
:107DA000FFF754FC35E701228DF80C201A89ADF855
:107DB00018209A88DB68ADF81A20059310E002229B
:107DC0008DF80C201A89ADF818209A88ADF81A2081
:107DD000DA689B7D05929A1F534253418DF81C30FF
:107DE00003A8FFF7D5FB002649461348C8F80060F2
:107DF00000F077FB0121114800F026FC00287FF4F9
:107E0000CFADC6E603228DF80C20DA88ADF8182035
:107E10001A89CFE70422DB888DF80C20ADF81830E2
:107E2000DEE705238DF80C30DAE700BF28330020A9
:107E300044330020FC330020002C0020F8330020C5
:107E40000C3400204068FFF7A3BD000008B50121F5
:107E5000044800F0E3FB18B9BDE80840FFF798BDFF
:107E600008BD00BFF83300202DE9F3419846354B9B
:107E70001B7806460D46002B5BD000295BD0098895
:107E80004FF6FF73994258D06B88002B55D06B6822
:107E90009B0754D14AB92F890DF102013846FFF7EB
:107EA00087FB30B102B0BDE8F08113885788ADF888
:107EB000023001A8FFF726FC044658B9BDF802308D
:107EC000214A142101FB032358890338C01B588120
:107ED0000820E7E700238375BDF8023083826B68D2
:107EE000036180F800800121184800F0A2FB2B8874
:107EF0002381B8F1030F6B88A38004BF0423A3750B
:107F00004FF0000508BF3368E06008BFA361E78059
:107F1000658101A90E4800F0A9FA36B1E368336023
:107F20000C4B75601B89B5723381FFF78FFF002002
:107F3000B8E70220B6E70520B4E70420B2E7032043
:107F4000B0E700BF20330020443300203C33002042
:107F5000002C00202833002008B5084B1A68042A9A
:107F600009D01968064A42F821000121184600F09C
:107F700060FB002008BD0C20FCE700BF043400209B
:107F8000103300202DE9F04F14228BB000210DEBAF
:107F9000020007F0F1FC744A137803F0FF01CDE909
:107FA00001123BB105A8FFF7F3FA002738460BB0E2
:107FB000BDE8F08F029B181D00F051FB0028F4D1A2
:107FC0004FF010234FF080525B6911695269674C82
:107FD000581C08BF02FB01F323610022A3F54053A4
:107FE0006349E360204600F055FD039407460028EE
:107FF000DCD11C238C225F495F48DFF88891DFF8D1
:10800000888100F0D4F93D46BA464FF0030B3C4658
:10801000039BDE68564430463146FFF781FB01285A
:108020004DD042B2002A36D0032822D106F5805224
:108030000868013040F08A8004318A42F8D1D9F8CA
:1080400000203AB902220123C9F80060A9F80420EF
:1080500001930CE014226243022008EB020108F8AD
:108060000200464A4E60548001340881A4B245F0B3
:1080700001050AF5805ABAF5405FC9D1BBF1010F7D
:1080800098BF0025EDB2022D03D0062D35D0002D6E
:108090003CD10B278AE71421614308EB010008F863
:1080A000012001F11002083146604244414430464B
:1080B000FFF762FB45F002050134A4B2D9E7019B4A
:1080C00063B11422624308EB0201022008F80200A7
:1080D0000134D9F800204A600881A4B2002228495E
:1080E000C9F800603046FFF747FBB9F80420022AC0
:1080F0000CBF042208221543BBE7029A0123137028
:1081000005A800235360FFF743FA4FE704A8FFF7E1
:10811000F9FAC8B10123013D03700A2D09D8DFE83F
:1081200005F006080608070807080F110F000023CE
:10813000037104A9104800F099F9FFF787FE35E7AD
:108140000323F5E70223F3E708272FE70BF1FF32BC
:108150001FFA82FB1422624308EB02014E600321E6
:1081600008F80210A8E700BF20330020CC2B002025
:1081700028FF02006C330020002C00202833002050
:1081800000340020FC3300204433002073B50D463A
:108190000446C8B1C1B10DF10601FFF751FBA8B10A
:1081A0000B4BBDF806006668142202FB003001216B
:1081B0000C3000F03EFA63682E600C336B600123D4
:1081C000A372002002B070BD0520FBE70A20F9E78A
:1081D0004433002013B50446A8B10DF10601FFF7A2
:1081E0002FFB90B10B4ABDF80630142101FB03238D
:1081F000DA6862B1A27A52B1DA680020013ADA6034
:10820000A07202B010BD0520FBE70A20F9E70620A6
:10821000F7E700BF443300200B4B1B7837B504460B
:108220000D4663B168B10DF106012846FFF7C0F9AC
:1082300018B9BDF806302380658003B030BD022038
:10824000FBE70520F9E700BF20330020104B1B7827
:1082500010B5B3B1B8B10288022A16D80D494388C7
:10826000142404FB02129C1C51898C420DDAC3F5C4
:108270007F43FD330B445381002303804380184622
:1082800010BD0220FCE70520FAE70420F8E700BF54
:10829000203300204433002002230022FFF7E4BDF6
:1082A00012B10223FFF7E0BD0520704718B1032388
:1082B0000022FFF7D9BD052070470000104B1B7846
:1082C00013B50446ABB14FF6FF73984213D001A823
:1082D000FFF718FA88B10523037001230371C480E6
:1082E00001A9084800F0C2F8FFF7B0FD002002B075
:1082F00010BD0220FBE70420F9E70820F7E700BFE4
:1083000020330020002C00200E4B1B7807B5A3B1B2
:1083100001A8FFF7F7F990B10623037001A90A48F5
:1083200000F0A4F8094B1A780AB101221A73FFF77A
:108330008DFD002003B05DF804FB0220FAE7082061
:10834000F8E700BF20330020002C00202833002055
:1083500007B5ADF80600ADF804100DF1060001A94F
:10836000FFF7C2FA03B05DF804FB07B51346ADF89A
:1083700006000A4600200DF10601FFF7B5FA03B02A
:108380005DF804FB07B51346ADF806000A460DF18B
:1083900006000021FFF7A8FA03B05DF804FB20B146
:1083A00019B103680B60002070470520704710B5B5
:1083B00061B1B2FBF3F403FB1424A4B244B9C0E9E5
:1083C000001484608281C381204610BD0E20FCE72A
:1083D0000920FAE782B050E8022FC188B2EB324F91
:1083E0004FF0000317BF92B241EA014142EA014156
:1083F00004E04268B2EB324F08BF012340E80212AA
:10840000002AE8D18DF807309DF80730002B0CBF0B
:108410001120002002B0704737B550E8013F9DB2EF
:10842000C48925448489A54228BF2D1B0489A542FF
:1084300002BFBFF32F8F002207E0C5EA030540E823
:108440000154002CE9D14FF001028DF80320019373
:10845000019B9DF803200B6002F0FF0322B10B8803
:108460000068184403B030BD1846FBE70A884B8803
:108470009A4209D150E8012FC2EA024240E80123A2
:10848000002BF7D1012070470020704737B550E826
:10849000023F1FFAA3F5C488A54202BFBFF32F8F86
:1084A00000220DE0C48925448489A54228BF2D1BE4
:1084B000C3EA054540E80254002CE8D14FF0010220
:1084C0008DF803200193019B9DF803200B6002F0BF
:1084D000FF0322B14B880068184403B030BD184632
:1084E000FBE70A884B889A4209D150E8022FC2EA7A
:1084F000224240E80223002BF7D1012070470020E0
:10850000704701F01F024B090121914000EB8300ED
:1085100000F063B84B0910B501F01F040121A14020
:1085200000EB830000F04EF8E04000F0010010BDC9
:1085300001F01F0301229A404B0900EB8300D14355
:1085400000F061B84B0901F01F0150F82300C8404A
:1085500000F0010070472DE9F0474E1E7609804675
:108560000F460136002558F8254008EB8509E443FD
:1085700094FAA4F4B4FA84F44FEA451A202C06D1F4
:108580000135AE42EFD83C462046BDE8F087544462
:10859000A742F5D921464046FFF7BCFF0028F3D09B
:1085A000D9F80040E44394FAA4F4B4FA84F4E5E77B
:1085B00050E8002F0B4640E8003C9CF0000FF7D13C
:1085C0001046704750E8002F42EA010340E8003CA3
:1085D0009CF0000FF6D11046704750E8003F43EA88
:1085E000010240E8002C9CF0000FF6D110467047C5
:1085F00050E8002F02EA010340E8003C9CF0000F25
:10860000F6D11046704750E8003F03EA010240E807
:10861000002C9CF0000FF6D11046704750E8002F58
:1086200002EB010340E8003C9CF0000FF6D110463D
:10863000704750E8003F03EB010240E8002C9CF03B
:10864000000FF6D11046704750E8003FA3EB01023F
:1086500040E8002C9CF0000FF6D110467047012135
:10866000FFF7B0BF0121FFF7B8BF0021FFF7C0BF80
:1086700010B590B1D0E9012301689B1ADBB20A6002
:10868000013BDBB2FF2B026802D10020107110BD4C
:1086900011684C1C14600B70F2E70E20F7E737B539
:1086A000054600240DF107008DF80740FEF736FF60
:1086B0002A686B68116899420ED9481E106011F83B
:1086C000014CEB68A98A01FB0434AB6811791B1AD1
:1086D000DBB2994238BF13719DF80700FEF742FFE5
:1086E000204603B030BD37B5054600230DF1070025
:1086F0000C468DF80730FEF711FF2A681368591CE5
:108700001160E968641AA98AB4FBF1F41C709DF841
:108710000700FEF727FF03B030BD826810B504469E
:108720002AB143690168006998470023A36010BD1E
:108730000EB403B5039921B104AB01AA019300F073
:108740006DF802B05DF804EB03B07047826830B496
:108750000468551C8560A154D0E901329A4202D3C5
:1087600030BCFFF7DABF30BC704700002DE9F84F8E
:108770009946DDE90A431746824688460A4601269D
:10878000BA420FD24E4538BF4E4613F0010B01D10D
:1087900064B900240125B9F1010F1AD909F1FF3993
:1087A0007D43F8E7B2FBF7F20136E9E79B070ED508
:1087B000B9F1000F0CBF30252025A642EAD2013CBA
:1087C00029465046FFF7C2FF002CF6D1E1E72025ED
:1087D000F3E7B8FBF5F39F42E2D9DFF83C90B8FB32
:1087E000F5F3504619F8031005FB1388FFF7AEFFA9
:1087F000B5FBF7F3BD4207D2BBF1000F02D00CB1BD
:10880000A64203D3BDE8F88F1D46E8E72021504675
:10881000013CFFF79BFFF2E73BFD02002DE9F74F1C
:10882000054617468846002900F0318118F8011BDB
:1088300049B92B7B002B00F02A81284603B0BDE804
:10884000F04FFFF76ABF252940F0C080002698F856
:1088500000302D2B424608F1010823D0302B24D0C4
:108860002B2B25D000242A2B02F1010123D13B68B8
:108870001A1D1B683A601C440A4613782E2B26D119
:1088800001324FF0000A104610F8011BA1F1300C24
:10889000BCF1090F1DD80A2303FB0A13A3F1300A08
:1088A0000246F0E746F00106D1E746F00206CEE7C1
:1088B00046F00406CBE711F8013CA3F1300009288B
:1088C000DBD80A2202FB0434303C0A46CBE74FF0E7
:1088D000000A12F8011B01F0FB0068289046F8D04E
:1088E00069290ED04AD8582964D006D825296DD0D8
:1088F00098F80030002B99D19BE7632962D0642956
:10890000F6D13A68D2F80090111D89EAE97239600F
:10891000A2EBE9724FF0010B092A5BDCD34538BFAB
:10892000D3462CB1B9F1000F01DB710700D5013C32
:10893000B20702D5BAF1000F04D0F30702D4002C1D
:108940004ED10024B9F1000F52DAC9F100092D21EE
:108950002846FFF7FBFE06F00302022A05D1BAF112
:10896000000F02D1002C47D10024CDE90046534628
:108970000A2249462846FFF7F9FEB9E773294CD089
:1089800014D87029B4D13B681A1D3A6030212846AA
:108990001C68FFF7DBFE78212846FFF7D7FE002290
:1089A0000823CDE9003221461022E3E775292BD0B8
:1089B00078299DD139680A1D3A60CDE900465346B1
:1089C000102228E03B681A1D19783A602846FFF704
:1089D000BDFE8DE70A230BF1010BB2FBF3F29BE71F
:1089E000A345AFD220212846013CFFF7AFFEA6E702
:1089F0007007B0D52B21ABE7A345B6D2302128466E
:108A0000013CFFF7A3FEADE73968CDE900460A1D3A
:108A10003A6053460A220968ACE73B681A1D3A607F
:108A2000F107D3F8009020D4B9F1000F25D04846C3
:108A300006F0D5FF0646B44200D9C4B909F1FF39A2
:108A400020E028460136FFF781FE19F806100029BC
:108A5000F7D1A642BFF44CAF002C3FF449AF202120
:108A60002846013CFFF772FEF3E70026EDE72021E0
:108A70002846013CFFF76AFEDDE74E46DBE7284665
:108A8000FFF764FE19F8011F0029F8D130E703B0A1
:108A9000BDE8F08F07B50B4678B9104B104A18881F
:108AA0000E2300930F4B00040F4940F00100FDF727
:108AB000BEFF0E2003B05DF804FB3BB9074B0B4A29
:108AC00018880E2300930004064BEDE703601B6833
:108AD000114603B05DF804EB184700BFB82B002027
:108AE000F8FD02004BFD0200FDFD020074FE0200D5
:108AF0002DE9F34178B9354B354A1888354B0E24AA
:108B000000040094344940F00100FDF790FF204636
:108B100002B0BDE8F0813AB92C4B304A18882D4B91
:108B20000E2400040094EDE7D0F800C0BCF1000F63
:108B300007D1264B2A4A1888264B082400040094A3
:108B4000E0E73BB9214B274A1888224B092400044F
:108B50000094D7E74768D7F80480B3FBF8F708FB21
:108B600017373FB1194B204A18881A4B09240004C3
:108B70000094C7E78F0707D0144B1C4A1888154B81
:108B8000102400040094BDE712F0030F07D00F4B30
:108B9000174A18880F4B102400040094B2E7C768E6
:108BA000B9420BD34C1E05691C44AC4206D8DCF814
:108BB0000C40A44602B0BDE8F0416047034B0D4AAB
:108BC0001888044B1024000400949BE7B82B002065
:108BD000F8FD02005DFD0200FDFD02007AFE0200CC
:108BE0006EFE02002DFE020080FE0200AAFE0200C0
:108BF000C2FE0200E5FE0200F7B570B9254B264A19
:108C00001888264B0E2400040094254940F00100EA
:108C1000FDF70DFF204603B0F0BDD0F800C0BCF159
:108C2000000F07D11B4B1F4A18881C4B0824000457
:108C30000094EAE73AB9174B1B4A1888174B0924E6
:108C400000040094E1E74768D7F800E00EF1FF3731
:108C50000F4207D00F4B154A1888104B1024000400
:108C60000094D2E7C768B9420CD34C1E05690EFBCD
:108C70000244AC4206D8DCF81040A44603B0BDE87C
:108C8000F0406047034B0A4A1888044B1024000444
:108C90000094BAE7B82B0020F8FD020070FD020036
:108CA000FDFD02006EFE02002DFE020083FD0200AB
:108CB000A9FD020070B508B10368ABB90C4D0D4CAD
:108CC0000026641B1423B4FBF3F4B44201D100204A
:108CD00009E02B6813B901361435F6E7DB6928463D
:108CE00098470028F7D070BDDB69BDE87040184791
:108CF000CC2B0020E02B002029DF704728DF7047B5
:108D000070B503689D6886B004460E466DB11422A6
:108D10000021684606F030FEA3680593237901968A
:108D20002BB1012B0DD06846A84706B070BD0123BA
:108D30008DF8003023690293E36803936369049319
:108D4000F1E702238DF80030E3681B030293F5E797
:108D50000846704700207047024B187A003018BF51
:108D600001207047A0340020034B187A0122B0FA8A
:108D700080F05A7440097047A034002008B51046AE
:108D80001A4606F0D0FD002008BD000008B51422E8
:108D90000021044806F0F0FD0348FFF71BFB00200C
:108DA00008BD00BFA0340020142C002010B5094CD1
:108DB000094B43602046FFF752FC40B906F014FB14
:108DC0001C2320748C2205490548FFF7F0FA002087
:108DD00010BD00BFA03400201CFF0200143400208E
:108DE000142C002070B5244D244E2B7A2C463BB910
:108DF00023492448FFF74AFB306008B9686070BD1A
:108E00000223237233681A7972B1012A24D01846DA
:108E10000321FFF775FF0023237263601849194887
:108E2000BDE87040FFF75DBBD3E90520121AB2F52B
:108E3000805F28BF4FF48052D3E903159208012ABE
:108E4000014438BF01222844FFF756FF50B11128D2
:108E5000DDD101232372D2E7D3E903021044FFF7E7
:108E60004DFFF3E7237C002BC9D10146BDE87040DC
:108E7000022000F009B800BFA0340020B834002060
:108E8000B4340020142C002038B5831E012B45D8A3
:108E9000234C237A002B41D0022B09D1032830D058
:108EA000204B1B680022E2601A793AB1012A22D0D5
:108EB000637C7BBBBDE83840FFF794BFD3E9051264
:108EC0008D1AB5F5805F94BF521902F580529A61F0
:108ED0009142EDD102284FF0000308BF19462372DA
:108EE000104B18BF0D211868FFF70AFF0E490F48F5
:108EF000FFF7F7FADCE71A6901321A615B699A42F7
:108F0000E7E7E3680133082B01D8E360D0E70023EB
:108F1000E360DFE7BDE8384006F056BA38BD00BF71
:108F2000A0340020B8340020B4340020142C0020D9
:108F300000F0FD03012B08D1044B00225A74421E9D
:108F4000504250411874FFF74DBF7047A0340020C5
:108F500010B5064C201DFFF782FB28B9637C1BB9B6
:108F6000BDE81040FFF73EBF10BD00BFA034002099
:108F70002DE9F34180460D460F4801A916461F46CC
:108F8000FFF74AFA0446A8B11C22002106F0F4FCBF
:108F90002D0B0123237101A9C4F80080A760E560AF
:108FA00066610548FFF762FAFFF7D2FF002002B0C2
:108FB000BDE8F0810420FAE7142C00202DE9F743E6
:108FC00081468846104801A917461E46FFF724FA35
:108FD0000446B0B11C22002106F0CEFC00250A9BFD
:108FE000A36001A92571C4F80090C4E90378666103
:108FF0000548FFF73BFAFFF7ABFF284603B0BDE893
:10900000F0830420FAE700BF142C0020FFF730BBE8
:10901000F8B546790146721E0546002393422D6835
:1090200003D30024A64202D8F8BD0133F6E70F6847
:109030002846FFF758FB01343946F3E72DE9F8439A
:10904000868ACD1C0746FFF72AFB043E35440446BA
:10905000B5FBF6F5F0B14FF48073EDB28380C680B6
:10906000013D076081464FF00008A84512D23846FE
:10907000FFF715FB064648B163790133637108F1C8
:109080000108C9F8000007608146EEE72046FFF7B7
:10909000BFFF34462046BDE8F88301210430FFF7C6
:1090A000C8BA10B5012104460430FFF7CDFA10F01C
:1090B000FF0F04D12046BDE81040FFF7A9BF10BD47
:1090C0002DE9F843C7880546181D8846B0FBF7F41C
:1090D000164607FB14003CB9A7EB0009B14528BFB1
:1090E000B14626B9BDE8F8832D68013CF3E70430AA
:1090F000A6EB09064A4608EB0401284406F013FCD7
:10910000B7424C442D68B9464FF0000028BFB14625
:10911000E7E72DE9F843C7888846191D0546B1FBE6
:10912000F7F4164607FB14113CB9A7EB0109B1454A
:1091300028BFB14626B9BDE8F8832D68013CF3E7A6
:1091400004312944A6EB09064A4608EB040006F060
:10915000EAFBB7424C442D68B9464FF0000128BFE6
:10916000B146E7E741DF7047064B10B500241C709D
:10917000054B1C60BFF35F8F0449054800F030F8D1
:10918000204610BDC4340020C834002058FF02001F
:10919000BC34002007B500230DF107008DF807301F
:1091A000FEF7BCF9F1EE103A23F09F03E1EE103A1E
:1091B000BFF35F8F094B4022C3F884219DF807005D
:1091C000FEF7D0F906F010F920B1FFF7CBFF03B09E
:1091D0005DF804FB20BF40BF20BFF8E700E100E0DE
:1091E0000B684A684360934208BF0023016008BFD0
:1091F00043607047436843B10268916852680B440A
:109200009342436004BF00234360704710B50D498B
:10921000A1F59472914201D800200FE08B1ADB1067
:1092200003EBD3735B1002EBC30452F83330834279
:1092300005D802D204F10802ECE7606810BD2146AF
:10924000E8E700BFA800030008B5FFF7DFFF024B07
:10925000002808BF184608BD6DFF02000B7B23B134
:109260004B6803600023037170470B6803600123A0
:10927000F9E703684A68896810B5D41A8C428BBF35
:109280005B1800230360026098BF037110BD036880
:109290000A68896810B59C1A8C428BBF5B1A01233F
:1092A0000360026098BF037110BD037910B50446D6
:1092B0001BB1FFF7DEFF206810BDFFF7E8FFFAE7FC
:1092C000054B1B68082B01BF044B1868B0FA80F0EF
:1092D000400918BF00207047300100103401001011
:1092E00008B54FF080430022C3F80C21C3F81021C9
:1092F000C3F838254FF0805203F54043D2F80414E8
:10930000C3F82015D2F80814C3F82415D2F80C14A9
:10931000C3F82815D2F81014C3F82C15D2F8141479
:10932000C3F83015D2F81814C3F83415D2F81C1449
:10933000C3F84015D2F82014C3F84415D2F8241409
:10934000C3F84815D2F82814C3F84C15D2F82C14D9
:10935000C3F85015D2F83014C3F85415D2F83414A9
:10936000C3F86015D2F83814C3F86415D2F83C1469
:10937000C3F86815D2F84014C3F86C15D2F8442429
:10938000C3F87025FFF79CFF10B1384B384A1A60BC
:10939000FFF796FF18B1374BFB22C3F81825FFF7EC
:1093A0008FFF48B13449354B0A681B6822F00F0221
:1093B00003F00F0313430B60FFF782FF18B1304B2C
:1093C0004FF400721A604FF08043D3F80024D207A4
:1093D00044BF6FF00102C3F800242A4AD2F8883053
:1093E00043F47003C2F88830BFF34F8FBFF36F8F21
:1093F0004FF01023D3F80022002A03DBD3F8043205
:10940000002B2FDA204B0122C3F80425D3F80024C7
:10941000002AFBD04FF010221221C2F80012D3F81C
:109420000024002AFBD04FF010231222C3F804229C
:10943000154B1A46D3F800140029FBD00021C3F8BD
:109440000415D2F80034002BFBD0BFF34F8F0D4929
:109450000E4BCA6802F4E0621343CB60BFF34F8F38
:1094600000BFFDE70A4B0B4A1A6008BD8C5600404E
:109470004881030000F00040E40E00405802001054
:109480004096024000ED00E000E001400400FA05D3
:10949000282C00200090D003074B1B5C1F2B8ABF99
:1094A000064A4FF0A04203F01F03D2F80405D8404B
:1094B000C04300F001007047660403000003005041
:1094C000074B1B5C1F2B86BF03F01F0305494FF0A2
:1094D000A041012202FA03F3C1F80C35704700BF26
:1094E0006604030000030050074B1B5C1F2B86BF64
:1094F00003F01F0305494FF0A041012202FA03F3D4
:10950000C1F80835704700BF66040300000300502F
:1095100008B50020FFF7E8FF0120FFF7E5FF022074
:10952000FFF7E2FF0320BDE80840FFF7DDBF08B505
:109530000020FFF7C5FF0120FFF7C2FF0220FFF761
:10954000BFFF0320BDE80840FFF7BABF0A4B185C15
:109550001F288ABF094B4FF0A04300F01F00D3F82B
:1095600004250121814021EA02000A40C3F80805D0
:10957000C3F80C25704700BF6604030000030050C9
:10958000074B1B5C1F2B8ABF064A4FF0A04203F01B
:109590001F03D2F81005D840C04300F00100704707
:1095A00062040300000300500B2809D00C2809D0E6
:1095B000182809D019280CBF03204FF0FF3070473E
:1095C000002070470120704702207047014B185C53
:1095D000704700BF62040300C20710B504460CD5F3
:1095E0004FF0A0430322C3F83427C3F83827C3F849
:1095F0003C27C3F84027FFF78BFFA3070AD54FF09E
:10960000A0430C22C3F82C27C3F83027C3F86027E7
:10961000C3F8642710BD000038B5074C051E04F1DF
:10962000080318BF1C4623682BB11A6822605B68C8
:1096300028469847F7E738BDD434002020B9054BB9
:1096400001225A70FFF7E8BF012802D1014A907049
:10965000F8E77047CC34002020B9034B01225A7040
:10966000FFF7DABF704700BFCC34002038B50B4C91
:10967000237883B90A486360A3602361E36000F044
:10968000D3F8054605F0B0FE08B900F0D9F801237B
:109690002370284638BD8525FBE700BFCC34002069
:1096A0003D96020037B50B4C00230DF107008DF8F5
:1096B0000730FDF733FFE368013BE360E56815B968
:1096C00000F0D2F8A5709DF80700FDF74BFF03B03E
:1096D00030BD00BFCC340020012813B509D018B12B
:1096E00003281CD002B010BD0F4B0122C3F880200C
:1096F000F8E70E4C00230DF107008DF80730FDF759
:109700000DFF23780BB9FFF7B1FFE3689DF8070061
:109710000133E3600123A370FDF724FFE2E700F0CB
:109720008FF8FFF7BFFFDDE700E100E0CC34002059
:109730001FB503788DF8003043680193037A8DF8E4
:109740000830C3680393054A054B684653F8213037
:1097500052F82110984705B05DF804FBE034002072
:10976000E83400201FB503788DF80030436801937A
:1097700083688DF80830C3680393054A054B684633
:1097800053F8213052F82110984705B05DF804FBDA
:10979000E0340020E8340020F0B5194B0678DFF8FB
:1097A00070E043F82620174B94460A6943F82620B8
:1097B0004B7F0EF806300C4607460FCC89B06D463D
:1097C0000FC594E80F0085E80F001EF806300496D8
:1097D00053B1BCF1000F0C4A694608BF0022381D86
:1097E00000F0E0FD09B0F0BDBCF1000F074A69468A
:1097F00008BF002207F10C0000F0BAFBF2E700BF3F
:10980000E8340020E0340020319702006597020020
:10981000F034002000F18040002382B00360036830
:109820000193019B02B07047044A137923B90121C7
:10983000106091801846704785207047F4340020EE
:10984000084B1A68D20706D4E02283F800230122CD
:10985000C3F880211A604FF080430122C3F8182515
:10986000704700BF00E100E0044B01221A604FF096
:109870008042D2F81834DB03FBD470470C00004060
:10988000124B1B6810B573B14FF48070FFF7C2FF25
:109890004FF080430122C3F808230D4B587910B9CB
:1098A0005A711B6898470B4B1B6873B14FF4827059
:1098B000FFF7B0FF4FF080430222C3F80823044BA8
:1098C00001201B68BDE81040184710BD0001004092
:1098D000F43400200401004000F1804000F5C04055
:1098E000002382B0036003680193019B02B07047BC
:1098F00003681F2B83BF03F01F03036001484FF071
:10990000A04070470003005007B5019001A8FFF781
:10991000EFFF019B00EB8300D0F8002722F44032D8
:10992000C0F80027D0F8003743EA0143C0F80037F9
:1099300003B05DF804FB0000054B4FF0FF32072831
:1099400043F8202084BF1B1883F85820704700BFBD
:10995000FC34002010B5184C94F86A3053BB04F165
:1099600030033021FF22013911F0FF0103F8012BF0
:10997000F9D1C8B2FFF7E0FF01310C29F9D1062275
:1099800000210E4805F0F8FF0D4BE02283F8062376
:109990004022C3F880214FF4BE701A60FFF79CFF8D
:1099A000084B4FF00042C3F80423012384F86A30C7
:1099B000002010BD0820FCE7FC34002060350020AA
:1099C00000E100E000600040034B93F86A000030C3
:1099D00018BF0120704700BFFC340020F7B53B4E94
:1099E0003318054693F93030002B6CDA8B78C3F3CB
:1099F0004003002B0BBF082400240C2008208442C5
:109A000002D1042003B0F0BD56F82470013743D1D1
:109A1000701946F8242080F8304013B9331983F8C0
:109A200058508B785A0717D4D80737D501A8019515
:109A3000FFF75EFF019B00EB8300D0F8003723F0B7
:109A40000203C0F800372248EA0805F0070701239F
:109A5000BB40875C3B43835488780A7810F002004F
:109A600028D0A40004F1804404F5C0442D02D4F8A9
:109A7000103523F44F3323F44073C4F81035120427
:109A8000D4F8103505F47C5502F4403215431D43DB
:109A9000C4F810550020B5E70134B0E701A84A78B2
:109AA0000195FFF725FF019B03F5E073920040F855
:109AB0002320C8E7083C344494F8605045EA8212F9
:109AC00084F860209EE708209CE700BFFC3400205B
:109AD0006035002073B5224C2518064695F93020D4
:109AE000072A19DD224492F858309B09032B0FD125
:109AF000019001A8FFF7FCFE019AD0F81035D34081
:109B0000DB0707D402213046FFF7FEFE02B070BD2E
:109B1000012BF7D00321F6E7D3B2072BF6D8930039
:109B200003F1804303F5C043D3F8100540F0010072
:109B3000C3F8100502F14000800080B2FFF7CCFEB0
:109B40000029E3D095F9303054F82330002BDDD0D4
:109B5000012303FA02F2034BC3F80423D6E700BF44
:109B6000FC3400200060004007B5019001A8FFF719
:109B7000BFFE019BD0F81005D84000F0010003B0F3
:109B80005DF804FB2DE9F04F002489B0CDE90244D3
:109B9000624D4FF48072012102F1804303F5C0430E
:109BA00090B21B68012B06D1D5F804330B4202D0CA
:109BB000FFF792FE0C430432B2F5907F4FEA410169
:109BC000EAD1574B1B68012B0ED14FF4BE70FFF743
:109BD00083FE4FF0A04344F00044D3F810350293C5
:109BE000504BD3F81035039314F0FF0F1AD04E4F9B
:109BF00000250126344210D0AB0003F1804303F569
:109C0000C043D3F81005D3F8101557F8253023B109
:109C1000C1F30141C0F3052098470135082D4FEAF3
:109C20004606E7D1002C75DA0DF1100800230493E5
:109C3000C8F804304FF0FF33CDE90633DFF8E8A071
:109C4000DFF8E89000273D4619F9014B631C48D026
:109C5000E4B2012324F0C00604F0070203FA02F282
:109C6000F00808AB191811F8083C134239D00AEB78
:109C70000603A40993F930305AF823B0BBF1000F62
:109C800008D1032C2DD118F800C04CEA020C08F8BA
:109C900000C001E0032CF6D001A80196FFF728FED2
:109CA000019B11F8181C03F5E07C114250F82C00C0
:109CB000C0F3014005D0022813D1032C0BD121465B
:109CC00004E003280DD1032C05D102213046FFF713
:109CD0001BFE0135EDB2BBF1000F02D0214630462C
:109CE000D8470137042FAFD1A5B14FF0A043029957
:109CF000D3F8102503F540739142D3F8103502D103
:109D00000399994206D002920393049A059B069206
:109D1000079395E709B0BDE8F08F00BF00600040F1
:109D20007C61004000030050FC3400205C350020C2
:109D3000014B1B68184700BF683500200E4B984246
:109D400037B50D4602D0002003B030BD00230DF121
:109D500007008DF80730FDF7E1FB084B1C7914B9BB
:109D600001221D601A719DF80700FDF7FBFB002C16
:109D7000E9D01120E8E700BF00200040683500204E
:109D8000034B984201BF034B00221A601A717047BF
:109D900000200040683500200023435082B0435823
:109DA0000193019B02B070470A4610B54FF48E71C3
:109DB000FFF7F2FF136A9168C95C136A01331362FB
:109DC000C0F81C1510BD8B690A4610B54FF484719C
:109DD00023B9FFF7E1FFD0F8183510BDFFF7DCFF1E
:109DE000536AD168D0F81805C854536A01335362D6
:109DF000F3E700001FB501238DF80030044BCDE9D7
:109E00000110D3E900126846904705B05DF804FBE5
:109E10007035002030B54C4AD2F8043313F4007F7B
:109E200085B015464FD0D2F82431002B4BD04FF4DB
:109E300092711046FFF7B0FF4FF40173C2F8083378
:109E4000424B93F8291009B9012151603E49022281
:109E50008DF80020D1F88024C1F8802403929A69FB
:109E60000292DA6801920022C3E906226846D3E929
:109E7000001290473448D0F81C315BB133490A6A6C
:109E80004B699A420A464BD291F82830002B47D1B1
:109E9000FFF78AFF2C4AD2F8443193B14FF4A271F4
:109EA0001046FFF779FF294B93F8291009B10121DA
:109EB00011609A692AB100229A61586AD968FFF73D
:109EC00099FF05B030BDD5F804335B07D2D5D5F87E
:109ED0000831002BCED01D4C1B482146FFF773FFE5
:109EE000636AA2699A422346C4D1E269E1684AB131
:109EF0002369E3600023606AA261E3616362FFF7A4
:109F000079FFB7E794F829200AB901226A600E4A5E
:109F10004FF40170C2F8080300229A61586AEEE714
:109F20004FF48E710848FFF737FF51690029B1D00F
:109F30000023029191688DF80030019153616846C9
:109F4000D2E900139847A5E70020004070350020B3
:109F50001F2886BF00F01F00044B4FF0A04300F500
:109F6000E070022243F82020704700BF0003005039
:109F70002DE9F843664B047991462C2202FB04320A
:109F8000064692F82A200D469846002A40F0BC80EA
:109F900060490068FFF7D2FE0746002840F0B6800F
:109FA00029684A1C10D01F2987BF01F01F035A4A95
:109FB0000B464FF0A0420120984003F5E073C2F831
:109FC0000805032042F823006868431C0DD01F28B1
:109FD0008BBF00F01F0303464F4A4FF0A04203F52A
:109FE000E0734FF0000C42F823C03368AA6995F87B
:109FF00014C0C3F824256A7DBCF1010F4CEA0202AB
:10A00000C3F86C25C3F81405C3F80C152BD1A96847
:10A01000481C0DD01F298BBF01F01F020A463E4885
:10A020004FF0A04002F5E0724FF0000C40F822C063
:10A03000E868421C13D01F2887BF00F01F0C364A67
:10A0400084464FF0A0424FF0010E0EFA0CFE0CF5C4
:10A05000E07CC2F808E54FF0030E42F82CE0C3F8AC
:10A060000805C3F810152C23634308EB0302C2F85C
:10A0700004902A6948F80320B9F1000F31D04FF459
:10A080008E7130682D7FFFF787FE30684FF4A27124
:10A09000FFF782FE3268214BC2F80433120B53B231
:10A0A000002BA8BF03F160404FEA53134FEA45115C
:10A0B000BABF1B4802F00F0500F561404FEA830369
:10A0C000C9B203F16043B4BF415580F8001303F5F2
:10A0D000614302F01F02012101FA02F2C3F880215C
:10A0E0001A6033680422C3F800252C2303FB048381
:10A0F0000022C3E9062283F829205A61012283F84D
:10A100002A203846BDE8F8830827FAE71127F8E740
:10A1100070350020159E02000003005080000200F0
:10A1200014ED00E02DE9F04103680479254D00228B
:10A13000C3F800252C2202FB04520646526872B175
:10A14000214AC3F80823190B4AB20120520901F031
:10A150001F0100FA01F120321C4840F82210D3F808
:10A160000C05D3F81485D3F80815D3F810754FF003
:10A17000FF329042C3F81425C3F80C25C3F8082514
:10A18000C3F8102501D0FFF7E3FEB8F1FF3F02D07E
:10A190004046FFF7DDFE7A1C02D03846FFF7D8FEB6
:10A1A0004B1C02D00846FFF7D3FE3068FFF7E8FDEE
:10A1B0002C2303FB0454002384F82A306360BDE899
:10A1C000F08100BF703500208402020000E100E051
:10A1D0002DE9F843224F06794FF02C0909FB06744C
:10A1E00080466569002D37D16261A16025624FF418
:10A1F0008E71006884F82850FFF7CEFDD8F8000073
:10A20000012383602146FFF7CFFD6368A1462BBB86
:10A21000D8F80050226A63699A4212D3D8F8003005
:10A22000D3F81C21002AFBD00122DA6000202C2365
:10A2300003FB067600237361BDE8F88394F82830A9
:10A2400043B9D5F81C31002BF8D049462846FFF712
:10A25000ABFDDFE70F20EAE71120EDE72846EBE74B
:10A26000703500200023435082B043580193019B76
:10A2700002B070471FB501238DF80030054B8DF8F3
:10A28000080001916846D3E90012904705B05DF8D7
:10A2900004FB00BF9C3500207FB5384AD2F824610A
:10A2A000002E49D010464FF49271FFF7DBFF0223D6
:10A2B0008DF80030D2F88034C2F880340393D2F89D
:10A2C0003C358DF808302E4BDA6801920022C3E944
:10A2D00006226846D3E900129047284AD2F8443152
:10A2E00073B14FF4A2711046FFF7BCFF244B99697C
:10A2F00031B100219961D2F83C05D968FFF7BAFF66
:10A300001E4AD2F82031ABB14FF490711046FFF7DE
:10A31000A9FF1B4B596969B1D2F84C158DF808108B
:10A32000002299688DF8002001915A616846D3E9AE
:10A330000012904704B070BDD2F81031002BCCD081
:10A340004FF488711046FFF78DFF0D4BD2F83C0596
:10A3500099698842C1D1DC69D96864B1D2F80052E8
:10A3600025F02005C2F800521A699C61DA60DE61AE
:10A37000FFF780FFB1E79C61FAE700BF00200040D3
:10A380009C3500201F2886BF00F01F00044B4FF0B3
:10A39000A04300F5E070022243F82020704700BF80
:10A3A000000300502DE9F8436A4B067991462422B8
:10A3B00002FB0632044692F820200D469846002AF9
:10A3C00040F0C48064490068FFF7B8FC07460028E5
:10A3D00040F0BE802868421C10D01F2887BF00F0C4
:10A3E0001F035E4A03464FF0A0420121994003F546
:10A3F000E073C2F80815032142F8231069684B1C6A
:10A400000DD01F298BBF01F01F030B46534A4FF09D
:10A41000A04203F5E0734FF0000C42F823C023681C
:10A42000AA6995F814C0C3F824256A7DBCF1010F10
:10A430004CEA0202C3F86C25C3F80C05C3F81415E6
:10A440002BD1A968481C0DD01F298BBF01F01F021A
:10A450000A4642484FF0A04002F5E0724FF0000C6F
:10A4600040F822C0E868421C13D01F2887BF00F0C4
:10A470001F0C3A4A84464FF0A0424FF0010E0EFAEC
:10A480000CFE0CF5E07CC2F808E54FF0030E42F834
:10A490002CE0C3F80805C3F810152423734308EB18
:10A4A0000302C2F804902A6948F80320B9F1000FAA
:10A4B0003BD04FF4887120682D7FFFF7D3FE4FF417
:10A4C00090712068FFF7CEFE4FF492712068FFF77D
:10A4D000C9FE20684FF4A271FFF7C4FE2268204B2A
:10A4E000C2F80433120B53B2002BA8BF03F1604033
:10A4F0004FEA53134FEA4511BABF1A4802F00F054D
:10A5000000F561404FEA8303C9B203F16043B4BF71
:10A51000415580F8001303F5614302F01F02012149
:10A5200001FA02F2C3F880211A6023680822C3F8F6
:10A530000025242303FB06830022C3E906225A6177
:10A54000012283F820203846BDE8F8830827FAE77F
:10A550001127F8E79C35002099A202000003005063
:10A560001003020014ED00E02DE9F04103680479C6
:10A57000254D0022C3F80025242202FB0452064682
:10A58000526872B1214AC3F80823190B4AB201205C
:10A59000520901F01F0100FA01F120321C4840F875
:10A5A0002210D3F80C05D3F81485D3F80815D3F886
:10A5B00010754FF0FF329042C3F80C25C3F81425F4
:10A5C000C3F80825C3F8102501D0FFF7DBFEB8F16A
:10A5D000FF3F02D04046FFF7D5FE7A1C02D0384636
:10A5E000FFF7D0FE4B1C02D00846FFF7CBFE3068C9
:10A5F000FFF7C6FB242303FB0454002384F8203018
:10A600006360BDE8F08100BF9C35002010030200AC
:10A6100000E100E001F06043B3F1005F2DE9F0419B
:10A62000074632D11C4B0679242505FB0635984692
:10A630006C6964BB6A61A96000684FF49071FFF7B0
:10A6400011FE4FF4AC713868FFF70CFE3B686A6985
:10A65000A968C3F84415C3F8482501229A606A68BE
:10A66000BAB9D3F82011D3F8582149B9002AF8D043
:10A670000F20242303FB068600237361BDE8F081CD
:10A68000002A14BF0F200020F3E71020F6E7112066
:10A69000F4E72046F2E700BF9C3500200220FEF7D9
:10A6A00055BF00002DE9F04781460D46FEF77CFFBF
:10A6B0000328044604D8012D04D025B3022D2FD041
:10A6C000BDE8F087194D47003A18A918AE5C4A78E2
:10A6D00052B1DFF86880164842464FF40041FCF75B
:10A6E000C7FE08B988F800903B192B449A78114BA3
:10A6F0001A55002EE4D0104B1B68002BE0D03046DA
:10A70000BDE8F04718470A48FCF7F8FE074B04EB92
:10A71000440213449E78074B1B5DB342D0D1E8E757
:10A72000024B00EB40041C446678E2E7243600202C
:10A73000E43500203D36002038360020C0350020AA
:10A7400002210078FFF7AEBF08B5094B1B7853B163
:10A750000020FEF7C9FE0120FEF7C6FE0320BDE87B
:10A760000840FEF7C1BEBDE80840FEF7D1BE00BFFD
:10A77000C1350020F8B5794C237805461BB100237C
:10A780002370FFF7E1FF172D00F28480DFE805F06A
:10A790000C13133F5061727C84898489919696963C
:10A7A0009696C0C5CDD5E0E0FFF7CEFF6C4B0024F8
:10A7B0001C702046F8BD0020FEF76EFEF8B10020A8
:10A7C000FEF792FE022D0CBF4FF4E1614FF47A6167
:10A7D000634B1D704FF400404FF4FA740025E0FB0A
:10A7E00001454FF47A7200232046294604F07EFF8B
:10A7F000002201465B48BDE8F840FCF739BEFEF791
:10A800005FFE022D0CBFC8214FF4C871E0E70020A5
:10A81000FEF742FE40B10020FEF766FE4FF448719D
:10A820004F4B03221A70D5E7FEF74AFEC821F7E71F
:10A830000020FEF731FE38B10020FEF755FE4FF440
:10A840007A61474B0422EDE7FEF73AFE4FF4C871F8
:10A85000F7E70020FEF720FE48B10020FEF744FE97
:10A860003F4B05221A7041F69A110022C2E7FEF70B
:10A8700027FEF5E70020FEF769FE394B06221A7025
:10A88000002240F6CD41B5E70020FEF719FE344B1B
:10A8900007221A7000248CE701202070FEF756FE74
:10A8A000EEE701202070FEF751FE00224FF48041B8
:10A8B000A0E7FEF73CFE2A4B0C22EAE72A482B4E83
:10A8C000FCF71CFED5F1110504461CD0D8B9012DAA
:10A8D00013D0C8235D434FF400474FF4FA700021B2
:10A8E0004FF47A720023C7FB050104F0FFFE2246F5
:10A8F00001461D48FCF7BCFD04460220FEF7E0FDC2
:10A900000123337055E70220FEF7EEFD0023F8E740
:10A91000FFF71AFF124B1222BBE7FFF715FF0020CB
:10A92000FEF7CEFD0E4B1322B3E7FFF70DFF01201C
:10A93000FEF7C6FD0A4B1422ABE7FFF705FF002028
:10A94000FEF7BEFD0120FEF7BBFD054B1522A0E77B
:10A95000FEF7EDFD024B1D709CE700BF3436002072
:10A960003C36002004360020C4350020C1350020CC
:10A97000044B1B68DB0703D5034B1878FFF7FABEBF
:10A98000704700BF303600203C360020002910B54B
:10A9900014BF03240024FEF719FE1F288ABF0A4BA8
:10A9A0004FF0A04300F01F0003EB8000D0F8002719
:10A9B00022F44032C0F80027D0F8003743EA0443BD
:10A9C000C0F80037002010BD00030050032801D854
:10A9D000FEF7D6BD00207047044B1B6813F001033F
:10A9E00001D0FFF7C7BE1846704700BF30360020C1
:10A9F00038B51C4B18601C4B10F00204054619605A
:10AA00001AD01A4B1A480E221A700F22DA7010222E
:10AA10009A7111225A72042140F26662FCF728FAF8
:10AA2000044648B9FCF778FA044628B90146114AA9
:10AA30001148FCF70BFD0446EB0711D50120FEF78A
:10AA4000CBFD6CB921460D4A0D48FCF7FFFC0446CE
:10AA500030B90C4A0C480121BDE83840FCF7F6BC7F
:10AA6000204638BD303600203836002024360020FD
:10AA70008C04030041A70200B004030071A9020086
:10AA8000B40403009DA60200AC040300032813D8FD
:10AA9000012A0BD1012908D100F10E02D2B200EB3C
:10AAA00040000C4B1A540020704700220129F6D0B8
:10AAB0004BB24BB1022901D007207047054B00EB88
:10AAC000400018444270EEE7024900EB40000844A1
:10AAD0008270E8E724360020032802D80121FFF71E
:10AAE00055BF0620704708B5012202210020FFF75C
:10AAF000CDFF08B1072810D1072202210120FFF75E
:10AB0000C5FF08B1072808D100210A220846FFF72F
:10AB1000BDFF10B1072808BF002008BD0388102B17
:10AB200010B502D0112B1ED010BD1A4C2168B1B93E
:10AB300001220846FFF7AAFF08B1072824D10722FF
:10AB400002210120FFF7A2FF08B107281CD104222F
:10AB500002210020FFF79AFF08B1072814D12368CB
:10AB600001332360E0E70B4A1368013B1360002BBD
:10AB7000DAD1FFF7B8FF0028D6D0074B1B68002BAF
:10AB8000D2D0BDE810401847034B1B68002BE6D01D
:10AB90009847E4E7483600204436002008B50020F6
:10ABA000FFF79AFF08B1062806D10120FFF794FFAE
:10ABB00010B1062808BF002008BD00000D4B10B5DD
:10ABC00018600C4629B10120FFF700FF40B10223B5
:10ABD0002370094B1B6853B9BDE81040FFF783BFD2
:10ABE000FFF7F4FE08B10B23F2E72070F1E7002035
:10ABF00010BD00BF443600204836002033DF7047C8
:10AC000076DF704778DF70477ADF70477CDF704708
:10AC10008FDF70477047FCF795B908B50020FFF744
:10AC2000DBFE08B1FCF78EF9FFF7B8FF08B1FCF7BF
:10AC300089F9FFF7E3FF18B1BDE80840FCF782B9D6
:10AC400008BD0000034B0448197881F00101197018
:10AC500004F0DDBA54380020A037002010B51249A6
:10AC6000124C1348FEF721FB236881B201331148CF
:10AC7000236004F084FA30F0080209D020F00202C8
:10AC8000112A05D043F20142904201D0FCF75AF953
:10AC900022680323B2FBF3F303EB4303D31A064A00
:10ACA00018BF0123137010BD683700204C360020F8
:10ACB00078370020A03700203A2C002008B50D4935
:10ACC0000D48FEF7F2FA4FF6FE72C1B20B4803F0E0
:10ACD0007FFF30F008020BD020F00202112A07D0CB
:10ACE00043F20142904203D0BDE80840FCF72AB984
:10ACF00008BD00BF1C3700202C370020083700207B
:10AD00000388212B13B5044636D005D8102B0CD060
:10AD1000112B23D002B010BD3B2B01D0562BF9D103
:10AD20001321A088FFF76CFF13E0174B1749188811
:10AD3000000440F00300FBF763FE0720FFF74CFE22
:10AD400008B1FCF7FFF8124BA1881248198002F0F5
:10AD500093F80028DED0FCF7F5F8DBE70A4B227AFF
:10AD600018880D49000440F00300FBF74DFE084B26
:10AD70004FF6FF721A80CDE7002301A98088ADF855
:10AD80000430FFF745FFE4E79C2B0020C5040300D7
:10AD9000382C0020F0370020D00403000A8840F649
:10ADA00077239A4210B50C4609D1084B4A88188877
:10ADB0008B880749000440F00300FBF72EFE214674
:10ADC0000448BDE8104004F025BA00BF9C2B0020C9
:10ADD000E9040300A037002008B503784BB9054B00
:10ADE0003B211888FFF70CFF18B1BDE80840FCF7BD
:10ADF000A9B808BD382C0020072808B513D00A28A8
:10AE00000DD0042819D10D4B13211888FFF7F8FE37
:10AE100030F0080311D0BDE80840FCF793B8BDE856
:10AE20000840FFF7FABE054B1A884FF6FF739A42A7
:10AE300003D1034800F01BFFEAE708BD382C0020CF
:10AE40005036002008B588B1032813D10A4B0B49AE
:10AE50001888000440F00300FBF7D2FD0220FFF742
:10AE6000BBFD38B1BDE80840FCF76CB8BDE8084050
:10AE7000FFF7D3BE08BD00BF9C2B00206A0503006E
:10AE800008B51B4B1B78002B31D01A491A48FEF726
:10AE90000CFA81B2194804F0A0F916491648FEF7D9
:10AEA00004FA81B2154804F098F912491248FEF7E5
:10AEB000FCF981B2114804F090F90E490E48FEF7F2
:10AEC000F4F981B20D4804F088F90A490A48FEF7FE
:10AED000ECF981B2094804F080F906490648FEF70A
:10AEE000E4F9BDE8084081B2044804F076B908BD31
:10AEF0003A2C0020FC3700200C380020A03700201E
:10AF000008B50321044800F04BFD18B1BDE8084026
:10AF1000FCF718B808BD00BF5036002030B50378E4
:10AF200085B004460D2B10D8DFE803F0070F110F92
:10AF3000220F2A390F350F3932391A4B1A4918881E
:10AF4000000440F00300FBF75BFD05B030BD154B7E
:10AF500040881D8801F086F82D04237A009345F07F
:10AF600003050246638811492846FBF760FDECE7BC
:10AF7000002303A940888DF80C3002F053FDE4E76C
:10AF8000FDF7C2F930F00803DFD0FBF7DBFFDCE7A9
:10AF9000FFF7B6FFD9E700690028D6D0F5E780684B
:10AFA000FAE700BF9C2B00207C050300A5050300E9
:10AFB000FBF7C8BF08B570B1094B0A4918880004EF
:10AFC00040F00300FBF71CFD02F03AFD38B1BDE88C
:10AFD0000840FBF7B7BFBDE80840FFF791BF08BDC9
:10AFE0009C2B0020B804030080B54FF40041B8B09A
:10AFF0000020FBF741FB08B1FBF7A4FFFBF76AFA5F
:10B00000FCF7F4F908B1FBF79DFFB04AB048012105
:10B01000FCF71CFA08B1FBF795FFAE4AAE480121D8
:10B02000FCF714FA08B1FBF78DFFAC4AAC480121DC
:10B03000FCF70CFA08B1FBF785FFAA4AAA480121E0
:10B04000FCF704FA08B1FBF77DFFA8490320FFF7DE
:10B05000CFFC08B1FBF776FF0DA90020FFF7AEFD8E
:10B0600008B1FBF76FFF9DF83450AE1E7542754175
:10B07000FEF77AF808B1FBF765FF04F037F908B17D
:10B08000FBF760FF00230DA901200D9304F0FCF9EC
:10B0900008B1FBF757FF0DA804F0BEFA08B1FBF7A3
:10B0A00051FF112392488DF8203004F098FC90490C
:10B0B00082B208A8FFF7AAFD08B1FBF743FF40F2F0
:10B0C0004130FFF79FFD08B1FBF73CFF082200214C
:10B0D0000DA8884C04F050FC4FF0C8730DA8CDE9C2
:10B0E0000D43FFF791FD08B1FBF72CFF8249834820
:10B0F00001F0BEFD08B1FBF725FF0021AC220DA831
:10B1000004F03AFC02238DF8343040F20163ADF8CC
:10B1100036300323ADF84430794B129301234FF4BA
:10B1200096708DF8B03044F25063CDE92F030DA92D
:10B13000744B7548369300F0C9FB08B1FBF702FF6A
:10B140000121714800F0BFFB704B7148029302A9C6
:10B1500001F080FE08B1FBF7F5FE03231422002165
:10B1600003A88DF8073004F007FC01228DF81020A9
:10B170000DF107020023059203A9664A664803936E
:10B1800006928DF81C3003F089FF08B1FBF7DAFE58
:10B190001422002108A804F0EFFB002308930A936F
:10B1A0005E4B0B930122112308A95D488DF82420E2
:10B1B0008DF8303003F03FFC08B1FBF7C3FE4022AE
:10B1C00000210DA804F0D8FB0DA8564900F0E4FFBB
:10B1D00011230DA8ADF8703003F0BCFD08B1FBF7EA
:10B1E000B1FE51495148512301266427C1E9003776
:10B1F0008E600E73FEF732F84D494E488C224FF4A4
:10B200009673C1E9002300240A238B600C73FEF7B8
:10B2100025F8494949480F604FF4FA73C1E90136EE
:10B220000C73FEF71BF821461C220DA804F0A4FBAA
:10B230004FF470234FF42031CDE90E1303238DF822
:10B240004030354B0D949B89ADF842303C4B129306
:10B250000DA83C4B8DF84440139300F025FE08B137
:10B26000FBF770FE02F08AFB08B1FBF76BFE0522CC
:10B2700000210DA804F080FB0D9B334A1A40334B8C
:10B2800013430D939DF8383023F0030343F0030379
:10B290000DA88DF8383002F0BBFB08B1FBF752FE69
:10B2A0002B4802F09DFB08B1FBF74CFE2948FCF748
:10B2B00053FE08B1FBF746FE274B284918880004C7
:10B2C00040F00300FBF79CFB002249E0BDAC02000C
:10B2D000180503005DAC02001C05030081AE0200EE
:10B2E0002005030045AC020024050300F9AD02006F
:10B2F00028050300400108029DAD020054370020DC
:10B300002C2C002045AE02005036002017AC020065
:10B31000F037002011000011A03700206411110047
:10B3200008370020330503001C3700202C3700208D
:10B330006837002078370020FC3700200C380020C8
:10B34000D9AD0200B1AF02000C0000FC31071003C0
:10B350001DAF020015AC02009C2B00204705030026
:10B360004FF480311548FCF783F808B1FBF7EAFD8C
:10B3700000224FF400411248FCF77AF808B1FBF7BD
:10B38000E1FD002242F266610E48FCF771F808B157
:10B39000FBF7D8FD00224FF420310B48FCF768F88A
:10B3A00008B1FBF7CFFD2846FFF704FEFBF7C8F90D
:10B3B0000028FBD1FDF7EEFEF8E700BF3437002090
:10B3C0008037002014380020343800206DDF7047AB
:10B3D00079DF70477DDF704764DF70472DE9F74FF5
:10B3E0000C9CBDF834B02788002580468A469146DB
:10B3F0002E46B8F80020B2420BDC35B12288013A63
:10B40000D21B92B2FF2A39D8DA55002003B0BDE82A
:10B41000F08FD8F8042052F82600019000220DF198
:10B42000030101A8FFF7D8FF0028EFD19DF8032002
:10B430004A4521D12288002D14BF0020022002EBB2
:10B4400009010144594519DC3DB9013292B222800B
:10B4500003F802A022880132228022880DF1030124
:10B460001A4401A8FFF7B8FF0028CFD121889DF822
:10B4700003200A44228001250136BAE70C20C5E7E3
:10B480002DE9F341089CBDF824501746CDE900454D
:10B4900002220646FFF7A2FF48B91022394630467D
:10B4A000CDE9084502B0BDE8F041FFF797BF02B013
:10B4B000BDE8F0812DE9F04F00231688138090F845
:10B4C0002D3085B007460D46144653B3082E01D8DB
:10B4D0000C2007E102A8FFF779FF002840F0028165
:10B4E00013880822CA54238801339BB21B2223806D
:10B4F000CA542088013080B2208006220DF1090153
:10B50000284404F010FA23889DF8082006339BB2E3
:10B5100012F0FE0218BF01222380EA54238801336F
:10B520002380BB78FBB123880433B342D0D802A870
:10B53000FFF74EFF002840F0D58023880322EA540D
:10B54000238801339BB219222380EA542388BDF853
:10B55000082001339BB2E9182380EA54120A4A708A
:10B56000238802332380FA789AB12388D91CB14208
:10B57000AED80221E954238801339BB201212380F4
:10B58000E95423880B449BB22380EA5423880B445C
:10B5900023807A68AAB12388D91CB14298D80221A5
:10B5A00092F90020E954238801339BB20A212380B9
:10B5B000E954238801339BB22380EA542388013362
:10B5C00023803B89002B40F081803B8A53B1CDE939
:10B5D00000462B460722032107F11000FFF750FF1A
:10B5E00000287FD13B8B53B1CDE900462B46152275
:10B5F000142107F11800FFF743FF002872D13A6ABF
:10B60000002A72D1D7F82480B8F1000F30D0B8F8F2
:10B6100004302188981C8A1C0244B2423FF658AF7D
:10B62000FE283FF655AF03336B54238801339BB29A
:10B63000FF222380EA54238801339BB22380B8F889
:10B640000020EA54E918120A4A702088023080B2B9
:10B650002080B8F804205AB1D8F8081000294ED03C
:10B66000284404F060F92388B8F8042013442380A8
:10B6700097F82C30002B7DD1387898B33B88012B7C
:10B680003DD0228802F1020CB4453FF621AF0128DB
:10B6900005D17B78023313449E42FFF419AF023E7A
:10B6A000B61AB6B202A905EB0C00ADF80860FFF7B8
:10B6B00091FEB8B93B78022B40F09F80BDF808306E
:10B6C000B34240F2B680ADF808609FE0CDE9004695
:10B6D0002B460622022107F10800FFF7D1FE0028C1
:10B6E0003FF473AF05B0BDE8F08FB4F800C00CF1C3
:10B6F0000603B3423FF6ECAE1188052901D80720B6
:10B70000F0E76FF4486E01EB0E039BB24FF27D3E03
:10B710007345F4D95388052BF1D96FF44860181894
:10B7200080B27045EBD94FF6FF70814203D083425F
:10B7300001D09942E3D8052305F80C302388013362
:10B740009BB212212380E954238801339BB22380CA
:10B750001188E954E818090A4170238802339BB222
:10B7600023805288EA54E918120A4A702388023367
:10B77000238047E7BB6A002BC1D04FF000094FF090
:10B780000C0A4FF0160B97F82C305FFA89F29342AF
:10B790007FF672AFB96A0AFB02F201EB0208B8F851
:10B7A0000430981CFE283FF693AE208803332B54B8
:10B7B000238801339BB2238005F803B0238801332B
:10B7C0009BB223808A5AEA54E918120A4A702088E8
:10B7D000023080B22080B8F804205AB1D8F808109E
:10B7E00000298CD0284404F09EF82388B8F804205F
:10B7F0001344238009F10109C5E7012B7FF463AFEE
:10B800007B789E42FFF45FAFADF808300821BDF8A9
:10B810000830FE2B3FF65CAE22880133AB54228801
:10B82000013292B22280A95422881344238000203E
:10B8300058E70921EBE770B5C0B14AB1168800247A
:10B84000B44203D305196D789D4208D0A14201D8B6
:10B8500000200BE0055D01352C44A4B2F0E7A142C5
:10B86000F6D9A31C1380005D013880B270BD13B5FA
:10B870000023ADF8063013460DF106020446FFF72B
:10B88000DAFF10B1BDF80600204402B010BD72DF2F
:10B89000704773DF704774DF704738B50122044684
:10B8A0000D46B0F89810D0F89400FFF7E0FF00B113
:10B8B000057004F13C0204F1940104F15400BDE868
:10B8C0003840FFF7E4BF80F830107047F8B5044601
:10B8D0000F46002960D000285ED091F87A301BB165
:10B8E00091F89830002B59D107F178060FCE4FF020
:10B8F000000C251D84F802C00FC50FCE0FC596E8B9
:10B90000070085E8070084F830C0D7F8A4306363E7
:10B91000D7F8A830A3634FF6FF7504F19403C4F879
:10B92000A430A4F8A8500722614604F1AA0004F04C
:10B9300023F823780BB984F85450224604F15501BA
:10B940001F25C4F89410384622F8985FFFF7B2FD1F
:10B9500008BB224604F17401C4F89C1007F13C00B6
:10B9600022F8A05FFFF7A6FDA8B9A369A4F84830A4
:10B970004FF480720123A4F850206269206462644D
:10B98000014684F83C3004F13C0204F15400FFF716
:10B990007EFF00B92370F8BD0E20FCE70720FAE710
:10B9A0002DE9F04190F8008004460D46B8F1000FF3
:10B9B00000F01281A1700020FDF77CF9074620B14C
:10B9C000012363700020BDE8F08104F1AA0601465E
:10B9D0000722304603F0D0FFE38813B1A378012B90
:10B9E00004D0E3794BB1A378022B06D1636B9BB1F2
:10B9F000012284F8B12008209847324604F1B001B2
:10BA000012F8013F5BB98A42FAD16A1E032A54D860
:10BA1000DFE802F0070D111484F8B130EDE743467A
:10BA2000F3E7A2791AB194F8242002B95BB9E2795C
:10BA30000AB1002B43D1237A002B42D1637A002B29
:10BA40000CBF00250425636BA570002B3BD0033D84
:10BA5000012D38D86279002A35D094F8B22092BBF3
:10BA600084F8B420012284F8B3200720984704F119
:10BA70003C0518220021284603F07EFFE26A0123DC
:10BA8000511E994284F83C3001D9042A01D1D3B225
:10BA9000474694F8242084F851301AB1BFB1A36A04
:10BAA00084F85230A178002384F8503004291DD83E
:10BAB000DFE801F07C0F273A5E000025C3E702258E
:10BAC000C1E70325BFE7002384F8B330CFE70123A4
:10BAD000E6E7C4F8A430C4E910630223012284F825
