:020000022000DC
:1060000000000120396202009162020093620200E6
:10601000956202009762020099620200000000008F
:106020000000000000000000000000009B62020071
:106030009D620200000000009F620200A162020057
:10604000DD850200A7620200198A0200AB6202002D
:10605000AD620200AF62020099880200B3620200E2
:10606000B5620200B7620200B9620200BB620200C0
:10607000BD620200BF620200C1620200C362020090
:10608000C562020079660200C9620200CB620200AA
:1060900015670200CF62020089CB0200D3620200C2
:1060A000D5620200D7620200D9620200DB62020000
:1060B000DD620200DF620200A3620200A36202004E
:1060C000E1620200E3620200E5620200E7620200B0
:0C60D000E9620200EB620200ED620200D7
:1060DC00354936480A1A02D0072291438D46344975
:1060EC0034480A1A06D00722914381F30988022208
:1060FC0082F3148830483149314A00F044F8314871
:10610C003149324A00F03FF831483249324A00F006
:10611C003AF832483249334A00F035F832483349BC
:10612C00334A00F030F833483349344A00F02BF846
:10613C0033483449344A00F026F8344834490022B4
:10614C0000F02CF833483449002200F027F833488B
:10615C003349091A082902DB002202604160314AE6
:10616C0090471F481F49884205D00268043003B489
:10617C00904703BCF7E700208646EC460020002140
:10618C00294A9047FEE7884207D0521A05D0037877
:10619C0001300B700131013AF9D17047884202D0BD
:1061AC0002700130FAE770470000012000E0002087
:1061BC000000012000000120DCD00200342200206D
:1061CC0059220020F0620200F062020048CF020067
:1061DC00DCD002003422002034220020E4CF020064
:1061EC00E4CF0200E4CF0200E4CF0200E4CF0200CF
:1061FC00E4CF0200E4CF0200E4CF0200DCD00200C6
:10620C0004D102005C2200205C2200205C220020D1
:10621C00142B0020142B0020142B0020142B0020F6
:10622C00144B00205D620200C18F02000F484FF03A
:10623C000701884385460E4880470E48016841F4A3
:10624C0070010160BFF34F8FBFF36F8FFFF740BF3B
:10625C0009480A490A4A884207D0521A05D00378DD
:10626C0001300B700131013AF9D170470000012067
:10627C004581020088ED00E0D0CF020020220020F2
:10628C0034220020FEE7FEE7FEE7FEE7FEE7FEE72E
:10629C00FEE7FEE7FEE7FEE7FEE7FEE7FEE7FEE7CA
:1062AC00FEE7FEE7FEE7FEE7FEE7FEE7FEE7FEE7BA
:1062BC00FEE7FEE7FEE7FEE7FEE7FEE7FEE7FEE7AA
:1062CC00FEE7FEE7FEE7FEE7FEE7FEE7FEE7FEE79A
:1062DC00FEE7FEE7FEE7FEE7FEE7FEE7FEE7FEE78A
:0462EC00FEE700BF0A
:1062F0002DE9F04F394E87B04FF00009384B1B782D
:106300005FFA89F5AB4202D807B0BDE8F08F354B94
:10631000D3F800A01AF835000124D6E9001EA0F138
:106320002002C0F1200304FA02F224FA03F313431B
:1063300004FA00FC009301EA0C030293009B0EEAAE
:1063400003030393DDE9022313430AEBC50B41D09A
:10635000009B21EA0C012EEA0303C6E9001302F0B8
:1063600091FA1AF835502049A5F12002C5F1200311
:1063700004FA02F224FA03F31343D1E900C2AC4059
:10638000134004EA0C0105930024C3B2CDE90034A4
:10639000009A0491C5F12003A5F1200122FA03F32C
:1063A00002FA01F848EA03081346AB401F46DDE94C
:1063B0000434444508BFBB420CD1DBF804304BB178
:1063C0009BF801104A1E51425141081A4142414175
:1063D0002846984709F1010990E700BF9022002064
:1063E0005C22002098220020882200202DE9F04124
:1063F0008046204800F070FBD0BB0125A8F12004A6
:10640000C8F1200325FA03F305FA04F41C431A4BE0
:10641000D3E9001205FA08F501EA050602EA0407C5
:1064200056EA07001E461DD1404602F02BFA134BD8
:10643000D3E9001288B129432243C3E90012D6E907
:1064400000231C430E4B0B4819681543C6E9005442
:106450000022BDE8F04100F0F9BA21EA050122EA84
:106460000402EAE721EA050522EA0404C3E900542C
:10647000BDE8F081642200209022002088220020C4
:1064800060220020042A2DE9F34105460C461646F9
:106490003AD902F033F9D8B11C4B1D491D601D4B90
:1064A000DFF884801C701C4B00221E600023C1E9B1
:1064B00000231A49C1E90023013CE4B20026032766
:1064C000FF2C0CD1164A1748002100F0ADFA03E06A
:1064D00002F0DAF80028DFD002B0BDE8F08123B284
:1064E00005EBC30201A992788DF8052015F8330059
:1064F0008DF8066042468DF8047002F009F9013CFF
:10650000E4B20028DCD0E7E70720E5E79822002086
:10651000882200205C22002060220020902200209F
:10652000F1620200E4CF0200ED63020070B5084D95
:10653000084E00242B789C4201D3002070BD3368A4
:10654000012113F8340002F057F90134F2E700BFDB
:106550005C220020982200201FB50021039001AA90
:1065600044F20100CDE9011100F004F805B05DF836
:1065700004FB000072B6094B1B68DB0700D500BEA8
:10658000BFF34F8F0649074BCA6802F4E06213431A
:10659000CB60BFF34F8F00BFFDE700BFF0ED00E021
:1065A00000ED00E00400FA05094A537891780133C0
:1065B000DBB2994208BF0023117899421FBF0370D4
:1065C0005078182303FB002014BF043000207047CC
:1065D0009C22002073B5054600240DF107000E46ED
:1065E0008DF8074000F088FA0DF10600FFF7DCFF98
:1065F00090B10670094B9DF8062045605A709DF8D1
:10660000070000F09DFA24B9054B4FF48012C3F83F
:106610000021204602B070BD0424F0E79C22002037
:1066200000E100E0024B4FF43C6043F001031847E7
:10663000F0CF020038B50C4B0C4C4FF40032C3F8CD
:10664000802001254FF48033C4F84833C4F8083360
:106650006560FFF7E7FF064BA56000241C60FFF7AD
:10666000E1FF044B1C7038BD00E100E00010014068
:10667000B8230020A9230020F8B51F4B1F491B6831
:106680000025C1F84051C1F84451C1F84851C1F842
:106690004C51C1F80051C1F804514BB3D1F8044535
:1066A00017490968641A24F07F442F461A68A242E9
:1066B00009D8A41A15441A7CDE691AB11F74D3E9EB
:1066C00005209047AEB90F4A0F4B11781B788B42CB
:1066D00005D10133DBB2022B08BF002313701278FF
:1066E0000A4B43F822500A4B4FF48012C3F80021A2
:1066F000F8BD3346DAE700BFBC230020001001409C
:10670000B8230020B5230020B4230020AC230020B0
:1067100000E100E02DE9F04FA04AA1491378097883
:10672000A04D994285B03CD00133DBB2022B08BFAB
:10673000002313709C4912789C4B0F6853F8220079
:106740003B1823F07F4300220B602B68164614464B
:10675000944613B942B12B6006E0196881420ED904
:1067600002B12B60091A19604FF001082B68DFF89D
:1067700044A201930027BEB9DFF840B266E0401A98
:106780000C44D968C3F800C0D3F81CE031B13A1901
:1067900022F07F42C3E90121DE611E4601227346D9
:1067A000D7E70026B046E1E73446F6697E4A6368DB
:1067B0001268DFF80CC2A068991A21F07F41614588
:1067C00000F2A58001442160012222742A6800237E
:1067D000C4E90133E361002A40F0A2802C60CAE7DB
:1067E0005A1C9BF80210D2B291428BF8002004BFD1
:1067F00000228BF80020182202FB03B31A799C6850
:10680000022A1CD0032A12D0012A1FD1207CE8B909
:10681000D3E90312A2605A69E2609A69644BA261EB
:106820001B78002B0CBF0B4603466360BEE70022BB
:106830002B681146002B66D142B12B6006E0296817
:106840000A468946002A59D1002323749BF8003058
:106850009BF801209A42C3D12B682FB9019A9A4222
:1068600002D1B8F1000F43D0002B73D0D3F800A0B1
:10687000504D4D4BD5F804751C68DFF848813E1B20
:1068800098F8003026F07F4603369BB94FF48033EA
:10689000C5F84433C5F80433474B4FF400324FF08A
:1068A0000109C3F880211A60C5F80090FFF7BAFE0D
:1068B00088F80090B2452CBF5444A41924F07F44BA
:1068C000C5F84045D5F80435DB1B23F07F43E41BB6
:1068D000033324F07F44A3420AD9D5F80435C5F820
:1068E0004035FFF79FFE344B4FF40032C3F80021D0
:1068F0002F4B00221A7005B0BDE8F08F94422CD0C7
:106900009146D2699EE719740122DB6992E7D31A96
:1069100023F07F43834234BFC31A0023236053E72D
:1069200021681368994213D8591A1160E26155E73A
:10693000091AD8691A4638B1034618688842F7D34D
:10694000401A1860184613462160E061DC6112E7C6
:106950001346F2E7FFF76EFECAE74C4511D1CB694B
:106960002B6073B9DFF840E00120CDE90212CAF8CC
:106970000800CEF800300E4B1870FFF753FEDDE92B
:1069800002121368D269C9F81C2012B110680344BE
:1069900013602B68994218BF012755E7B4230020E4
:1069A000B5230020BC230020B8230020AC23002006
:1069B000A82300200010014000E100E09C220020FC
:1069C000FEFF7F00A923002008B5FFF733FE104B20
:1069D00000200B2218809A700E4B18600E4B187016
:1069E0000E4B18700E4B4FF48012E021C3F880213B
:1069F00083F814131A6002F18042A2F56F22C2F8E4
:106A0000080583F81113074BD2F804251A6008BD56
:106A10009C220020BC230020B4230020B5230020AA
:106A200000E100E0B8230020074B9B784BB132B166
:106A300028B10368187C20B959745A61704707203F
:106A400070470820704700BF9C2200202DE9F743C3
:106A50001E4FBB7805460E469046A3B398B3042953
:106A60002FD943697BB3437C0024012B0DF1070030
:106A70000CBF8946A1468DF8074000F03DF80DF1A6
:106A80000600FFF791FDD0B101230370104B456064
:106A9000D3F80435C0E90498C0E902369DF8063001
:106AA0007B709DF8070000F04BF824B9094B4FF4B8
:106AB0008012C3F80021204603B0BDE8F08304240F
:106AC000EFE70724F7E70824F5E700BF9C22002042
:106AD0000010014000E100E0064A92783AB130B17E
:106AE000426922B1002202740221FFF773BD08201F
:106AF000704700BF9C22002070B5EFF3108672B67D
:106B00000C4A946801239CB993600B4B0B4DD3F84E
:106B1000801029401160C3F88050D3F88410516070
:106B20004FF0FF32C3F88420047006B962B670BD1E
:106B30000370FAE7C023002000E100E0FC06FFBD7F
:106B4000084B9A6810B55AB150B9EFF3108172B67C
:106B5000054A1C6814605C685460986001B962B6AC
:106B600010BD00BFC023002000E100E070B5064D5D
:106B70000646002455F8043B0BB1304698470134D3
:106B8000042CF7D170BD00BFD8230020033080B2A1
:106B900040F2FD33984230B51FD8124B1A783AB9FB
:106BA0001C895D892C440444A4B2B4F5806F0AD3D7
:106BB0001A7DA2B99A8BDC8B2244024492B2B2F5C0
:106BC000806F0CD201220A801446142202FB043387
:106BD0005A8910445881002030BD0920FCE7072065
:106BE000FAE700BF0C2400200B4A0C4B51881420FC
:106BF00000FB0131CB6833B90420496810700122D1
:106C0000074801F03FB805230649137002238B8023
:106C1000012200230968F3E7F02300200C24002060
:106C200020220020D424002007B50023054900932A
:106C3000054A09680548082300F0F6FF03B05DF82F
:106C400004FB00BFD424002004D002002022002036
:106C500007B50023009301460823034A034800F0C8
:106C6000E3FF03B05DF804FBFCCF0200202200200C
:106C700013B500230C46009301460423074A084835
:106C800000F0D2FF38B9074B142202FB0434012371
:106C9000237402B010BD0E20FBE700BFF8CF020046
:106CA000202200200C24002037B50A480A4B4268F5
:106CB0009C88196853880325033305709BB2002014
:106CC00000909B0001EB8401044800F0ADFF03B08D
:106CD00030BD00BFF0230020D4240020202200205B
:106CE00010B50146044800F085FE1C220446002130
:106CF00006F0C7F8204610BDC024002068B1026825
:106D0000084B9A4209D14068074B984207D001339B
:106D100098420CBF012003207047032070470020D9
:106D2000704700BFDEC0ADDEFE011EF143880333B5
:106D300000EB8303994209D382884FF6FF739A428E
:106D400006D00088B0FA80F04009704702207047F2
:106D5000012070472DE9F8430223DFF860800B80A3
:106D60000D46174600F5805600F108044FF0010962
:106D7000B4420FD2236801330CD031462046FFF7CE
:106D8000D5FF48B10FB187F8009002280BD14FF41E
:106D900080632B80BDE8F883A368D8F80020934275
:106DA00001D9C8F800302B886288033313442B8044
:106DB0006388033304EB8304DAE700BF0424002074
:106DC000154A142303FB002070B50B6844680D4678
:106DD00004F58056ABB15C88033403EB8404B44201
:106DE0000DD2236801330AD031462046FFF79EFFBB
:106DF00001280BD010F0FF0F05D00228EFD10020A2
:106E000003E00834EBE72C60012070BD6388033396
:106E100004EB8304E3E700BF0C240020436873B550
:106E200004460D466BB3244AD1688B4229D31269BC
:106E3000934226D813F0030223D1204900890989FF
:106E400088421ED12068996888421AD11C49486836
:106E5000834203D900F5805083420ED38A6993425E
:106E60000DD902F58052934209D201232B800020D4
:106E7000B0FA80F0400902B070BD1346F6E70A2070
:106E8000F6E700232B801E46019601A92888FFF70C
:106E900097FF30B92B8801339BB2012B2B80F3D99C
:106EA000E9E7019B226899689142EED16360034B48
:106EB0001B892381DFE700BF20220020F023002070
:106EC0000C2400202DE9F8431C461C4B1B78064679
:106ED0000F4615466BB372B36CB3DFF868804FF0A2
:106EE0001409A388012B01D90A2020E009FB03F330
:106EF00018F803302BB92146A088FFF761FF20B9AD
:106F00002060A3880133A380EBE723681EB1998832
:106F100032889142EFD11FB119883A889142EAD163
:106F20009A68C5E90023064B1B892B810020BDE828
:106F3000F8830220FBE70520F9E700BFE8230020E3
:106F4000F02300200C24002008B5074B191D588899
:106F5000FFF736FF18B1BDE80840FFF7A5BEBDE852
:106F60000840FFF741BE00BFF02300202DE9F04F9D
:106F7000A04FDFF8A49289B00646B8463B6823B913
:106F800049469D4800F070FD3860D8F800502978D7
:106F90004B1E052B00F2FA80DFE813F006005E00BE
:106FA0005E00EE00EE005C0126B1944B00225A60B8
:106FB0000124ECE02B79032B1DD8DFE803F0150248
:106FC0002A358F490B78022B084619D00B7D022BEE
:106FD0004FF0010316D114225343C2180020C854A5
:106FE0005068FFF735FE03E001232B71FFF71CFE0D
:106FF000002800F0BC80814B00225A600E24C6E0BD
:107000000023E8E77D4A13700023536041F61D54C6
:10701000BDE07C497C48002302222B718A8001223A
:10702000096800F02FFEE3E7764C00262E712068F9
:10703000734DFFF70DFE754BD4F800C05A8814232A
:107040005343EA18EE5451682160A188C2F804C085
:1070500011810222A280CBE7B5F814A0AA7DDFF847
:10706000A0B1AEB1022AEB8806D9142101FB0AB106
:10707000DA1C088902440A81142202FB0ABAC3F509
:107080007F43BAF80A20FD331344AAF80A308FE789
:10709000142303FB0AB318895C6804EB8004062AF6
:1070A00068D8DFE802F0274D35431D59040041F64A
:1070B0001D54AA7DEB88022A06D9142101FB0AB1CE
:1070C000DA1C088902440A81142202FB0ABAC3F5B9
:1070D0007F43BAF80A20FD331344AAF80A3056E079
:1070E0004B484C4900234360AB690360FFF796FEB1
:1070F000002871D00223AB75002300930423EA1803
:107100002146414800F090FD002830D00E24D0E701
:107110002B69002B14BF03230123AB7500230093BD
:1071200005F10C02042304F10801EAE70123AB7521
:107130000022EB8800929B002A6904F10C01E0E731
:1071400003290CBF05230623AB75002300930423FA
:1071500005F10802E118D4E70623AB752D4B198819
:107160002B4B5868FFF784FD04460028A1D109B0D5
:10717000BDE8F08F0F249CE7002E7FF419AF2B7928
:10718000012B4BD0E3B1022B3FF440AF0F2414226C
:10719000002103A805F075FE41F61D539C4208BF6F
:1071A0000024D8F8003004941A78023A042A00F235
:1071B0000581DFE812F0E600F20015011D0124014F
:1071C00002232B710DF10A01EB68039303A8CDE9AB
:1071D0000466FFF723FE08B90A24D8E70498BDF82F
:1071E0000A108388EB8003882B81FFF741FD04465A
:1071F00027E000BF08240020C0240020E82300204E
:107200000C240020D424002020220020F023002081
:10721000CC230020E024002000240020DFF8FCA183
:1072200003AA53463146A81DFFF74CFE044658B941
:10723000BAF804100498FFF71BFD04460A2C3FF42B
:10724000E5AE002CA3D192E708223146504605F066
:1072500018FEF3E7002E7FF4ABAE6B4B1A7BAAB19E
:107260001E731A78013A062A90D801A151F822F02B
:10727000177302003D7302005B730200617302002A
:107280008D71020067730200797302001A78072A71
:10729000E7D801A151F822F0B9720200637202002E
:1072A00063720200DF720200F372020013730200C5
:1072B00013730200DB7202001A89544901321A81E9
:1072C00000225A801A730A78B2FA82F252099A722C
:1072D0000A7DB2FA82F25209DA72012207E04C49C1
:1072E00058688A884088033202448A8002221A70D1
:1072F000B7E7464C5A884649142505FB0242086800
:10730000546850608888108102228A800C600622AE
:10731000EDE70722EBE79A7A32B9DA7A8AB90022E6
:107320001A705A805A6071E6384900229A72CA6807
:10733000002AF2D1097C0029EFD05A80FFF704FE21
:1073400055E70022DA72314A116A0029E7D192F832
:107350002420002AE3D00122EFE7FFF7A5FC46E74F
:10736000FFF742FC43E7294A5B88142101FB032312
:107370005868FFF76DFC3AE700225A60FFF754FCAB
:1073800035E701228DF80C201A89ADF818209A886B
:10739000DB68ADF81A20059310E002228DF80C206E
:1073A0001A89ADF818209A88ADF81A20DA689B7D02
:1073B00005929A1F534253418DF81C3003A8FFF7E2
:1073C000D5FB002649461348C8F8006000F077FB5B
:1073D0000121114800F011FC00287FF4CFADC6E672
:1073E00003228DF80C20DA88ADF818201A89CFE72F
:1073F0000422DB888DF80C20ADF81830DEE7052379
:107400008DF80C30DAE700BFF02300200C240020B8
:10741000D4240020C0240020D0240020E424002014
:107420004068FFF7A3BD000008B50121044800F043
:10743000CEFB18B9BDE80840FFF798BD08BD00BFF6
:10744000D02400202DE9F3419846354B1B780646A1
:107450000D46002B5BD000295BD009884FF6FF73E7
:10746000994258D06B88002B55D06B689B0754D13C
:107470004AB92F890DF102013846FFF787FB30B179
:1074800002B0BDE8F08113885788ADF8023001A83A
:10749000FFF726FC044658B9BDF80230214A1421F2
:1074A00001FB032358890338C01B58810820E7E7F4
:1074B00000238375BDF8023083826B68036180F816
:1074C00000800121184800F08DFB2B882381B8F142
:1074D000030F6B88A38004BF0423A3754FF000053E
:1074E00008BF3368E06008BFA361E780658101A938
:1074F0000E4800F0A9FA36B1E36833600C4B7560B2
:107500001B89B5723381FFF78FFF0020B8E7022097
:10751000B6E70520B4E70420B2E70320B0E700BFD8
:10752000E82300200C24002004240020C024002094
:10753000F023002008B5084B1A68042A09D01968FE
:10754000064A42F821000121184600F04BFB0020BA
:1075500008BD0C20FCE700BFDC240020D82300205D
:107560002DE9F04F14228BB000210DEB020005F045
:1075700088FC744A137803F0FF01CDE901123BB196
:1075800005A8FFF7F3FA002738460BB0BDE8F08FE7
:10759000029B181D00F03CFB0028F4D14FF0102393
:1075A0004FF080525B6911695269674C581C08BFE3
:1075B00002FB01F323610022A3F540536349E3601A
:1075C000204600F028FB039407460028DCD11C234A
:1075D0008C225F495F48DFF88891DFF8888100F0EE
:1075E000D4F93D46BA464FF0030B3C46039BDE6898
:1075F000564430463146FFF781FB01284DD042B258
:10760000002A36D0032822D106F5805208680130BE
:1076100040F08A8004318A42F8D1D9F800203AB982
:1076200002220123C9F80060A9F8042001930CE0AC
:1076300014226243022008EB020108F80200464AC5
:107640004E60548001340881A4B245F001050AF56A
:10765000805ABAF5405FC9D1BBF1010F98BF002530
:10766000EDB2022D03D0062D35D0002D3CD10B27D5
:107670008AE71421614308EB010008F8012001F1B9
:10768000100208314660424441443046FFF762FB35
:1076900045F002050134A4B2D9E7019B63B114227D
:1076A000624308EB0201022008F802000134D9F815
:1076B00000204A600881A4B200222849C9F800606D
:1076C0003046FFF747FBB9F80420022A0CBF04221A
:1076D00008221543BBE7029A0123137005A8002373
:1076E0005360FFF743FA4FE704A8FFF7F9FAC8B170
:1076F0000123013D03700A2D09D8DFE805F00608D3
:107700000608070807080F110F000023037104A9DA
:10771000104800F099F9FFF787FE35E70323F5E7F6
:107720000223F3E708272FE70BF1FF321FFA82FB52
:107730001422624308EB02014E60032108F8021094
:10774000A8E700BFE82300202022002018D0020074
:1077500034240020C0240020F0230020D82400205E
:10776000D42400200C24002073B50D460446C8B173
:10777000C1B10DF10601FFF751FBA8B10B4BBDF8EC
:1077800006006668142202FB003001210C3000F074
:1077900029FA63682E600C336B600123A37200200A
:1077A00002B070BD0520FBE70A20F9E70C24002099
:1077B00013B50446A8B10DF10601FFF72FFB90B1F8
:1077C0000B4ABDF80630142101FB0323DA6862B1CD
:1077D000A27A52B1DA680020013ADA60A07202B0EF
:1077E00010BD0520FBE70A20F9E70620F7E700BFF8
:1077F0000C2400200B4B1B7837B504460D4663B1B3
:1078000068B10DF106012846FFF7C0F918B9BDF8B7
:1078100006302380658003B030BD0220FBE70520E1
:10782000F9E700BFE8230020104B1B7810B5B3B177
:10783000B8B10288022A16D80D494388142404FBE3
:1078400002129C1C51898C420DDAC3F57F43FD3333
:107850000B445381002303804380184610BD02204F
:10786000FCE70520FAE70420F8E700BFE823002042
:107870000C24002002230022FFF7E4BD12B10223F2
:10788000FFF7E0BD0520704718B103230022FFF782
:10789000D9BD052070470000104B1B7813B5044676
:1078A000ABB14FF6FF73984213D001A8FFF718FA57
:1078B00088B10523037001230371C48001A908481E
:1078C00000F0C2F8FFF7B0FD002002B010BD0220AA
:1078D000FBE70420F9E70820F7E700BFE8230020D2
:1078E000C02400200E4B1B7807B5A3B101A8FFF7F9
:1078F000F7F990B10623037001A90A4800F0A4F833
:10790000094B1A780AB101221A73FFF78DFD002086
:1079100003B05DF804FB0220FAE70820F8E700BF97
:10792000E8230020C0240020F023002007B5ADF894
:107930000600ADF804100DF1060001A9FFF7C2FA28
:1079400003B05DF804FB07B51346ADF806000A4620
:1079500000200DF10601FFF7B5FA03B05DF804FB56
:1079600007B51346ADF806000A460DF106000021E2
:10797000FFF7A8FA03B05DF804FB20B119B1036862
:107980000B60002070470520704710B561B1B2FB55
:10799000F3F403FB1424A4B244B9C0E900148460D6
:1079A0008281C381204610BD0E20FCE70920FAE742
:1079B00082B050E8022FC188B2EB324F4FF0000383
:1079C00017BF92B241EA014142EA014104E0426834
:1079D000B2EB324F08BF012340E80212002AE8D17F
:1079E0008DF807309DF80730002B0CBF11200020C8
:1079F00002B0704737B550E8013F9DB2C4892544B5
:107A00008489A54228BF2D1B0489A54202BFBFF36C
:107A10002F8F002207E0C5EA030540E80154002C3F
:107A2000E9D14FF001028DF803200193019B9DF8ED
:107A300003200B6002F0FF0322B10B88006818449A
:107A400003B030BD1846FBE70A884B889A4209D13B
:107A500050E8012FC2EA024240E80123002BF7D18F
:107A6000012070470020704737B550E8023F1FFAE9
:107A7000A3F5C488A54202BFBFF32F8F00220DE0FB
:107A8000C48925448489A54228BF2D1BC3EA054526
:107A900040E80254002CE8D14FF001028DF8032099
:107AA0000193019B9DF803200B6002F0FF0322B1BC
:107AB0004B880068184403B030BD1846FBE70A88BD
:107AC0004B889A4209D150E8022FC2EA224240E88C
:107AD0000223002BF7D1012070470020704701F0EE
:107AE0001F024B090121914000EB830000F059B8BF
:107AF0004B0910B501F01F040121A14000EB8300E8
:107B000000F044F8E04000F0010010BD01F01F0358
:107B100001229A404B0900EB8300D14300F04CB89E
:107B20004B0901F01F0150F82300C84000F001008C
:107B300070472DE9F0474E1E760980460F46013604
:107B4000002558F8254008EB8509E44394FAA4F48D
:107B5000B4FA84F44FEA451A202C06D10135AE421E
:107B6000EFD83C462046BDE8F0875444A742F5D9FB
:107B700021464046FFF7BCFF0028F3D0D9F800406B
:107B8000E44394FAA4F4B4FA84F4E5E750E8002F4F
:107B900042EA010340E8003C9CF0000FF6D1104699
:107BA000704750E8003F43EA010240E8002C9CF097
:107BB000000FF6D11046704750E8003F03EA01027B
:107BC00040E8002C9CF0000FF6D11046704750E8BA
:107BD000002F02EB010340E8003C9CF0000FF6D1BF
:107BE0001046704750E8003F03EB010240E8002CCC
:107BF0009CF0000FF6D11046704750E8003FA3EB11
:107C0000010240E8002C9CF0000FF6D110467047AE
:107C10000121FFF7BBBF0B4620B11BB1036011462A
:107C20001B6818470E2070472DE9F04108B302B3D6
:107C3000D0F800E0BEF1000F1ED0FBB14768D7F8C6
:107C40000480B3FBF8F708FB1737BFB942EA010C11
:107C50001CF0030F14D1C768B94211D34C1E05693B
:107C60001C44AC420CD8DEF80C40A446BDE8F04100
:107C700060470E20BDE8F0810820FBE70920F9E706
:107C80001020F7E7F0B5D8B1D0F800C0BCF1000F74
:107C900018D0CAB14768D7F800E00EF1FF370F429D
:107CA00014D1C768B94211D34C1E05690EFB0244BA
:107CB000AC420BD8DCF81040A446BDE8F040604769
:107CC0000E20F0BD0820FCE70920FAE71020F8E7B5
:107CD00070B508B10368ABB90C4D0D4C0026641BA0
:107CE0001423B4FBF3F4B44201D1002009E02B6863
:107CF00013B901361435F6E7DB69284698470028A2
:107D0000F7D070BDDB69BDE8704018472022002025
:107D10003422002029DF704728DF704770B50368E0
:107D20009D6886B004460E466DB114220021684657
:107D300005F0A7F8A3680593237901962BB1012BD1
:107D40000DD06846A84706B070BD01238DF80030FD
:107D500023690293E368039363690493F1E70223C1
:107D60008DF80030E3681B030293F5E7084670477F
:107D700000207047024B187A003018BF012070476E
:107D800088250020034B187A0122B0FA80F05A743B
:107D9000400970478825002008B510461A4605F0AE
:107DA00047F8002008BD000008B51422002104484F
:107DB00005F067F80348FFF7FBFD002008BD00BF92
:107DC000882500207825002010B5094C094B436018
:107DD0002046FFF71DFF40B904F0BCFE1C232074B1
:107DE0008C2205490548FFF7D0FD002010BD00BFDB
:107DF000882500200CD00200EC24002078250020EB
:107E000070B5244D244E2B7A2C463BB92349244887
:107E1000FFF72AFE306008B9686070BD0223237244
:107E200033681A7972B1012A24D018460321FFF76A
:107E300075FF00232372636018491948BDE870403C
:107E4000FFF73DBED3E90520121AB2F5805F28BFC7
:107E50004FF48052D3E903159208012A014438BF38
:107E600001222844FFF756FF50B11128DDD101232C
:107E70002372D2E7D3E903021044FFF74DFFF3E783
:107E8000237C002BC9D10146BDE87040022000F0E0
:107E900009B800BF88250020A02500209C250020CF
:107EA0007825002038B5831E012B45D8234C237A32
:107EB000002B41D0022B09D1032830D0204B1B6866
:107EC0000022E2601A793AB1012A22D0637C7BBB9E
:107ED000BDE83840FFF794BFD3E905128D1AB5F518
:107EE000805F94BF521902F580529A619142EDD1A0
:107EF00002284FF0000308BF19462372104B18BF29
:107F00000D211868FFF70AFF0E490F48FFF7D7FD4C
:107F1000DCE71A6901321A615B699A42E7E7E368B4
:107F20000133082B01D8E360D0E70023E360DFE7EB
:107F3000BDE8384004F0FEBD38BD00BF88250020F4
:107F4000A02500209C2500207825002000F0FD03BE
:107F5000012B08D1044B00225A74421E504250415A
:107F60001874FFF74DBF70478825002010B5064CE8
:107F7000201DFFF74DFE28B9637C1BB9BDE81040FA
:107F8000FFF73EBF10BD00BF882500202DE9F3415B
:107F900080460D460F4801A916461F46FFF72AFDE9
:107FA0000446A8B11C22002104F06BFF2D0B012315
:107FB000237101A9C4F80080A760E56066610548E7
:107FC000FFF742FDFFF7D2FF002002B0BDE8F081CD
:107FD0000420FAE7782500202DE9F74381468846FA
:107FE000104801A917461E46FFF704FD0446B0B12C
:107FF0001C22002104F045FF00250A9BA36001A973
:108000002571C4F80090C4E9037866610548FFF75C
:108010001BFDFFF7ABFF284603B0BDE8F08304204B
:10802000FAE700BF7825002041DF7047064B10B506
:1080300000241C70054B1C60BFF35F8F044905488A
:1080400000F030F8204610BDAC250020B0250020FF
:1080500038D00200A425002007B500230DF1070049
:108060008DF80730FEF748FDF1EE103A23F09F033C
:10807000E1EE103ABFF35F8F094B4022C3F8842131
:108080009DF80700FEF75CFD04F064FD20B1FFF7EA
:10809000CBFF03B05DF804FB20BF40BF20BFF8E773
:1080A00000E100E00B684A684360934208BF002388
:1080B000016008BF43607047436843B1026891683C
:1080C00052680B449342436004BF002343607047EF
:1080D0000C4B1B78062B10D10B4B1B681A070CD1CD
:1080E0000A4B186800F0F003302B08D000F0E000D5
:1080F000A0F14003584258417047002070470120CA
:10810000704700BFE00F00F0E40F00F0E80F00F050
:10811000094B1B78062B0CD1084B1B681A0708D19A
:10812000074B186800F0F000A0F1300358425841A6
:1081300070470020704700BFE00F00F0E40F00F030
:10814000E80F00F008B5FFF7C3FF28B17D4B7E4A6A
:108150001B68C3F304231360FFF7DAFF10B17B4BF6
:108160007B4A1A60FFF7B4FF28B17A4B7A4A1B6842
:10817000C3F342331360FFF7CBFF20B1774AD368D4
:1081800023F08073D360FFF7A3FF40B14FF080432B
:108190000022C3F80C21C3F81021C3F83825FFF7DB
:1081A000B7FF10B16E4B03221A60FFF7B1FF40B169
:1081B0006C4B05221A6001229A6700229A603F22C6
:1081C0005A60694B1B78062B50D1684B1B68190706
:1081D0004CD1674B1B6803F0F003502B46D14FF096
:1081E0008052644BD2F80414C3F82015D2F8081456
:1081F000C3F82415D2F80C14C3F82815D2F81014BB
:10820000C3F82C15D2F81414C3F83015D2F818148A
:10821000C3F83415D2F81C14C3F84015D2F8201452
:10822000C3F84415D2F82414C3F84815D2F828141A
:10823000C3F84C15D2F82C14C3F85015D2F83014EA
:10824000C3F85415D2F83414C3F86015D2F83814B2
:10825000C3F86415D2F83C14C3F86815D2F840147A
:10826000C3F86C15D2F84424C3F87025FFF730FF2B
:1082700028B1414B414A1B6803F04F031360FFF7DD
:1082800027FF48B14FF08043D3F80024D20744BF02
:108290006FF00102C3F80024394B1B68062B08D18C
:1082A000384B1B68062B01BF374A136843F48063C1
:1082B0001360364AD2F8883043F47003C2F888302D
:1082C000BFF34F8FBFF36F8F4FF01023D3F800220F
:1082D000002A03DBD3F80432002B2FDA2C4B0122C7
:1082E000C3F80425D3F80024002AFBD04FF0102255
:1082F0001521C2F80012D3F80024002AFBD04FF059
:1083000010231522C3F80422214B1A46D3F8001477
:108310000029FBD00021C3F80415D2F80034002B4B
:10832000FBD0BFF34F8F19491A4BCA6802F4E062C1
:108330001343CB60BFF34F8F00BFFDE7164B174AC7
:108340001A6008BD240300104035014074C0074086
:108350000DF0ADBA440200103C050040F0ED00E025
:10836000A005004010560040E00F00F0E40F00F0C0
:10837000E80F00F000C0004058020010E40E00407A
:1083800030010010340100103C17004000ED00E007
:1083900000E001400400FA05342200200090D003E0
:1083A000054A4FF0A043105CD3F8043523FA00F0DF
:1083B000C04300F00100704748D00200044B1A5C33
:1083C000012393404FF0A042C2F80C35704700BF24
:1083D00048D00200044B1A5C012393404FF0A042A6
:1083E000C2F80835704700BF48D0020008B5002029
:1083F000FFF7F0FF0120FFF7EDFF0220FFF7EAFF94
:108400000320BDE80840FFF7E5BF08B50020FFF7EF
:10841000D5FF0120FFF7D2FF0220FFF7CFFF032097
:10842000BDE80840FFF7CABF074A4FF0A041105C03
:10843000D1F804350122824022EA03001340C1F83A
:108440000805C1F80C35704748D00200014B185C94
:10845000704700BF44D0020038B5074C051E04F138
:10846000080318BF1C4623682BB11A6822605B689A
:1084700028469847F7E738BDBC25002020B9054BB2
:1084800001225A70FFF7E8BF012802D1014A90701B
:10849000F8E77047B425002020B9034B01225A7039
:1084A000FFF7DABF704700BFB425002038B50B4C8A
:1084B000237883B90A486360A3602361E36000F016
:1084C00061F8054604F046FB08B900F067F801239F
:1084D0002370284638BD8525FBE700BFB425002062
:1084E0007D84020037B50B4C00230DF107008DF899
:1084F0000730FEF701FBE368013BE360E56815B96F
:1085000000F060F8A5709DF80700FEF719FB03B0B6
:1085100030BD00BFB4250020012813B509D018B123
:1085200003281CD002B010BD0F4B0122C3F88020DD
:10853000F8E70E4C00230DF107008DF80730FEF729
:10854000DBFA23780BB9FFF7B1FFE3689DF807006A
:108550000133E3600123A370FEF7F2FAE2E700F0D3
:108560001DF8FFF7BFFFDDE700E100E0B4250020C4
:1085700000F18040002382B0036003680193019BF7
:1085800002B07047044A137923B901211060918029
:108590001846704785207047C8250020084B1A6888
:1085A000D20706D4E02283F800230122C3F88021F9
:1085B0001A604FF080430122C3F81825704700BFAE
:1085C00000E100E0044B01221A604FF08042D2F833
:1085D0001834DB03FBD470470C000040124B1B68BF
:1085E00010B573B14FF48070FFF7C2FF4FF08043B6
:1085F0000122C3F808230D4B587910B95A711B6832
:1086000098470B4B1B6873B14FF48270FFF7B0FFB4
:108610004FF080430222C3F80823044B01201B685B
:10862000BDE81040184710BD00010040C8250020DB
:108630000401004000F1804000F5C040002382B0FA
:10864000036003680193019B02B07047800000F152
:10865000A040D0F8003723F44033C0F80037D0F8FA
:10866000003743EA0141C0F800177047054B4FF04F
:10867000FF32072843F8202084BF1B1883F84820C6
:10868000704700BFD025002010B5184C94F8583022
:1086900053BB04F130032021FF22013911F0FF0107
:1086A00003F8012BF9D1C8B2FFF7E0FF01310C2923
:1086B000F9D1042200210E4804F0E3FB0D4BE02227
:1086C00083F806234022C3F880214FF4BE701A605D
:1086D000FFF7B0FF084B4FF00042C3F8042301231B
:1086E00084F85830002010BD0820FCE7D025002079
:1086F0002426002000E100E000600040034B93F8D6
:108700005800003018BF0120704700BFD02500205E
:10871000F0B5374B1C1894F93040002C1C4664DA35
:108720008D78C5F34005002D0BBF082300230C26D0
:108730000826B34201D10420F0BD54F8237001375C
:108740003FD1261844F8232086F8303015B9E218B6
:1087500082F848008A78550713D4D60733D58200AB
:1087600002F1A042D2F8005725F00205C2F80057E6
:10877000204EC50800F007070122BA40775D3A4352
:1087800072558A780D7812F0020225D09B0003F111
:10879000804303F5C0430202D3F8101521F447319A
:1087A00021F44071C3F810152D04D3F8101502F40C
:1087B000F85205F440352A430A43C3F81025002037
:1087C000BAE70133B5E74D7800F5E0724FF0A04607
:1087D000AD0046F82250CBE7083B234493F85010F5
:1087E00041EA851583F85050E9E70820A4E700BF67
:1087F000D02500202426002038B5204C251895F9D6
:108800003020072A18DD224492F848309B09032BB8
:108810000DD14FF0A043D3F81035C34013F0010F32
:108820000CBF02210321BDE83840FFF70FBF012B29
:1088300014BF03210221F6E7D3B2072B1CD8930003
:1088400003F1804303F5C043D3F8100540F0010065
:10885000C3F8100502F14000800080B2FFF7EAFE85
:1088600051B195F9303054F823302BB1012303FA7C
:1088700002F2034BC3F8042338BD00BFD02500200B
:10888000006000404FF0A043D3F8103523FA00F009
:1088900000F00100704700002DE9F04F85B0002482
:1088A000594D01944FF48072012102F1804303F588
:1088B000C04390B21B68012B06D1D5F804330B429C
:1088C00002D0FFF7B7FE0C430432B2F5907F4FEAB7
:1088D0004101EAD14D4B1B68012B0AD14FF4BE7008
:1088E000FFF7A8FE4FF0A04344F00044D3F8103542
:1088F000019314F0FF0F1AD0454F01260025344292
:1089000010D0AB0003F1804303F5C043D3F810054A
:10891000D3F8101557F8253023B1C1F30141C0F346
:10892000042098470135082D4FEA4606E7D1002C70
:1089300063DA00224FF0FF33CDE90223344D354E88
:108940000024A24601274FF0A04816F9012B531C22
:1089500046D0D2B222F0C0094FEAD90104A8084497
:1089600002F0070310F804CC07FA03F31CEA030F24
:1089700036D005EB090C92099CF930C055F82CB0A3
:10898000BBF1000F0AD1032A2AD10DF1080E1EF8FF
:1089900001C04CEA030C0EF801C001E0032AF4D038
:1089A00009F5E07110F80C0C58F821101842C1F3C9
:1089B000014105D0022913D1032A0BD1114604E04D
:1089C00003290DD1032A05D102214846FFF73EFEB7
:1089D0000134E4B2BBF1000F02D011464846D8473B
:1089E0000AF1010ABAF1040FAFD134B14FF0A0433C
:1089F000019AD3F81035934202D105B0BDE8F08F4B
:108A00000193029B03939AE7006000407C61004061
:108A1000D025002020260020014B1B68184700BFEE
:108A20002C26002008B5094B1B7853B10020FFF716
:108A3000D1FC0120FFF7CEFC0320BDE80840FFF782
:108A4000C9BCBDE80840FFF7D1BC00BF34260020F8
:108A5000F8B5794C237805461BB100232370FFF746
:108A6000E1FF172D00F28480DFE805F00C13133FBF
:108A70005061727C84898489919696969696C0C539
:108A8000CDD5E0E0FFF7CEFF6C4B00241C702046F4
:108A9000F8BD0020FFF784FCF8B10020FFF79AFC36
:108AA000022D0CBF4FF4E1614FF47A61634B1D70EE
:108AB0004FF400404FF4FA740025E0FB01454FF4F9
:108AC0007A7200232046294604F010F9002201465C
:108AD0005B48BDE8F840FDF7B9BFFFF76FFC022D1A
:108AE0000CBFC8214FF4C871E0E70020FFF758FC25
:108AF00040B10020FFF76EFC4FF448714F4B03224A
:108B00001A70D5E7FFF75AFCC821F7E70020FFF7F6
:108B100047FC38B10020FFF75DFC4FF47A61474B0A
:108B20000422EDE7FFF74AFC4FF4C871F7E7002095
:108B3000FFF736FC48B10020FFF74CFC3F4B052205
:108B40001A7041F69A110022C2E7FFF737FCF5E7E9
:108B50000020FFF769FC394B06221A70002240F60C
:108B6000CD41B5E70020FFF729FC344B07221A70EE
:108B700000248CE701202070FFF756FCEEE701206F
:108B80002070FFF751FC00224FF48041A0E7FFF76F
:108B90003CFC2A4B0C22EAE72A482B4EFDF79CFFAF
:108BA000D5F1110504461CD0D8B9012D13D0C82326
:108BB0005D434FF400474FF4FA7000214FF47A728E
:108BC0000023C7FB050104F091F8224601461D4829
:108BD000FDF73CFF04460220FFF7F0FB0123337052
:108BE00055E70220FFF7F6FB0023F8E7FFF71AFF2F
:108BF000124B1222BBE7FFF715FF0020FFF7DEFB49
:108C00000E4B1322B3E7FFF70DFF0120FFF7D6FB52
:108C10000A4B1422ABE7FFF705FF0020FFF7CEFB5E
:108C20000120FFF7CBFB054B1522A0E7FFF7EDFB7B
:108C3000024B1D709CE700BF88260020892600207B
:108C4000582600203826002034260020044B1B68BC
:108C500013F0010301D0FFF7FBBE1846704700BFB9
:108C600084260020032813D8012A0BD1012908D11A
:108C700000F10E02D2B200EB40000C4B1A5400205F
:108C8000704700220129F6D04BB24BB1022901D026
:108C900007207047054B00EB400018444270EEE798
:108CA000024900EB400008448270E8E77826002083
:108CB000032808B512D8FFF7C9FB800000F1A040D7
:108CC000D0F8003723F44033C0F80037D0F800372D
:108CD00043F44033C0F80037002008BD0620FCE70D
:108CE00008B5012202210020FFF7BCFF08B10728C8
:108CF00010D1072202210120FFF7B4FF08B1072895
:108D000008D100210A220846FFF7ACFF10B107285E
:108D100008BF002008BD00000388102B10B502D04A
:108D2000112B1ED010BD1A4C2168B1B90122084682
:108D3000FFF798FF08B1072824D10722022101205C
:108D4000FFF790FF08B107281CD104220221002060
:108D5000FFF788FF08B1072814D123680133236087
:108D6000E0E70B4A1368013B1360002BDAD1FFF7F1
:108D7000B7FF0028D6D0074B1B68002BD2D0BDE828
:108D800010401847034B1B68002BE6D09847E4E7D8
:108D9000902600208C26002008B50020FFF788FFD1
:108DA00008B1062806D10120FFF782FF10B106287E
:108DB00008BF002008BD76DF70477ADF70477CDF90
:108DC00070478FDF704733DF70474CDF70474FF0DD
:108DD000A0420123D2F8041503FA00F020EA0103AF
:108DE0000840C2F80835C2F80C057047FDF7B4BB5F
:108DF00013B50A4C002301A80193FFF7E6FF226890
:108E00000199914203D001A9054800F043FB019B61
:108E100023600D20FFF7DBFF02B010BDAC27002060
:108E20008427002013B50C460F20FFF7D0FF012246
:108E30000023012CCDE9002305D16946044800F048
:108E400071FB02B010BD002CFBD101A9F6E700BFF9
:108E5000842700200388212B13B5044623D003D890
:108E6000102B0AD002B010BD3B2B01D0562BF9D1EC
:108E70001321A088FFF79FFF1CE00720FFF7E6FE05
:108E800008B1FDF769FB0E4BA1880E48198002F06E
:108E90000FF808B1FDF760FB00224FF400410A48CB
:108EA000FDF7D4FDDEE7002301A98088ADF804308A
:108EB000FFF787FF0028D5D0FDF74EFBD2E700BFB4
:108EC0004C220020A02700206427002008B503784A
:108ED0004BB9054B3B211888FFF76DFF18B1BDE872
:108EE0000840FDF739BB08BD4C22002010B50E200C
:108EF0000C46FFF76CFF012C08D106490B880133A3
:108F00000B800548BDE8104000F0E8BA0CB90149F3
:108F1000F7E710BD942600208427002008B548B14B
:108F2000032814D10220FFF791FE80B1BDE808406C
:108F3000FDF712BBFFF78AFE08B1FDF70DFBFFF747
:108F40002BFF08B1FDF708FBFFF73DFFEDE708BD7C
:108F500008B50321044800F0F8FD18B1BDE8084049
:108F6000FDF7FABA08BD00BF982600200378043B3D
:108F700007B5092B0DD8DFE803F0050C0F1E0C1AFE
:108F80000C1E171E002301A940888DF8043002F042
:108F900065FD03B05DF804FBFEF7A4FC30F00803A8
:108FA000F7D0FDF7D9FAF4E7FFF7D2FFF1E7006950
:108FB0000028EED0F5E78068FAE7FDF7CDBA0000AB
:108FC00000B5ADB0FDF700FD08B1FDF7C5FA694A7F
:108FD00069480121FDF728FD4FF0A0430322C3F8A3
:108FE00034270221C3F838276448C3F83C2740F2ED
:108FF0006662FDF747FA08B1FDF7AEFAFDF796FA9B
:1090000008B1FDF7A9FAFFF711F808B1FDF7A4FAC6
:1090100003F01AFD08B1FDF79FFA002301A9012012
:10902000019303F0E1FD08B1FDF796FA01A803F002
:1090300033FE08B1FDF790FA112351488DF8003046
:1090400003F052FF4E4982B26846FFF7B8FE08B1FE
:10905000FDF782FA0021082201A803F012FF494916
:109060004FF0C87301A8CDE90113FFF7A6FE08B1C0
:10907000FDF772FA0021444801F04DFE08B1FDF7FA
:109080006BFA424B4248019301A901F0FFFE08B17F
:10909000FDF762FA3F4800F0A1F8AC22002101A8D8
:1090A00003F0EFFE02238DF8043040F201633A4AE8
:1090B000ADF806300123ADF8503015928DF88030B0
:1090C0004FF4967244F25063CDE9232301A9334B48
:1090D00033482A9300F0C7FC08B1FDF73DFA01219F
:1090E0002F4800F0BDFC1C22002101A803F0C9FE9E
:1090F00000234FF42032CDE90132ADF812304FF4A5
:1091000070228DF81430274B039206930322264BCE
:109110008DF8102001A8079300F074FF08B1FDF747
:109120001BFA02F047FC08B1FDF716FA05220021F0
:1091300001A803F0A6FE019B03F07C421B4B1343E6
:1091400001939DF8083023F0030343F0030301A8C3
:109150008DF8083002F078FC08B1FDF7FDF91448ED
:1091600002F05AFC08B1FDF7F7F9FFF7F1FEFEF740
:1091700073FFFCE7F18D02004CD002003822002082
:1091800050D002005000A00050270020ED8D0200BA
:10919000A027002084270020482200201D8F0200E5
:1091A00098260020CD8E0200BB8F020031071003ED
:1091B0006D8F0200A8DF7047AADF7047AEDF7047EF
:1091C00062DF70470388102B02D0112B03D0704749
:1091D00083880B8070474FF6FF73FAE72DE9F0475D
:1091E000AB4B9AB006AA03F11007044694463D46DD
:1091F00018685968164603C60833BB423246F7D191
:109200004FF20D030DF10E016046ADF80C30FFF783
:10921000D7FF08B1FDF7A0F922464FF6FF7322F8F9
:10922000023B03A90120FFF7C5FF08B1FDF794F940
:109230000AAA974B914618685968164603C6083320
:10924000AB423246F7D14BF6EF630DF112014846BF
:10925000ADF81030FFF7B4FF08B1FDF77DF91C221F
:10926000002113A803F00DFE9DF84C300DF1040809
:1092700023F00A0343F00A030322002140468DF83D
:109280004C3003F0FEFD9DF80630CDF860800127DC
:1092900067F342038DF806309DF84C3002AE43F080
:1092A000100341F2111A0322002130468DF84C3090
:1092B000ADF804A003F0E5FD9DF80A30ADF808A074
:1092C00067F34203142200210EA88DF80A3003F040
:1092D000D8FD04ABCDE90E3604232868ADF8443040
:1092E000ADF8403005AB059012930EAA231D13A9CB
:1092F0006088FFF761FF08B1FDF72EF9644B4E4619
:1093000018685968324603C20833AB421646F7D193
:109310004BF20B030DF112014846ADF81030FFF788
:109320004FFF08B1FDF718F91C22002113A803F024
:10933000A8FD9DF84C3023F00A0343F00A030322F2
:10934000002140468DF84C3003F09BFD9DF806301F
:10935000CDF86080012767F342038DF806309DF851
:109360004C3002AE43F0100341F2111A03220021E7
:1093700030468DF84C30ADF804A003F082FD9DF826
:109380000A30ADF808A067F34203142200210EA8AA
:109390008DF80A3003F075FD04232868ADF84430D9
:1093A000ADF8403005AB04AF059012930EAA04F15E
:1093B0000C0313A96088CDE90E76FFF7FDFE08B116
:1093C000FDF7CAF8324BCC4618685968624603C2AA
:1093D0000833AB429446F7D14AF6AB330DF1120194
:1093E0004846ADF81030FFF7EBFE08B1FDF7B4F8D2
:1093F0001C22002113A803F044FD9DF84C3023F0FB
:109400000A0343F00A030322002140468DF84C3042
:1094100003F037FD9DF80630CDF860804FF001096C
:1094200069F342038DF806309DF84C3041F2111A71
:1094300043F010030322002130468DF84C30ADF884
:1094400004A003F01EFD9DF80A30ADF808A069F3F2
:109450004203142200210EA88DF80A3003F011FDFA
:1094600004232868ADF84430ADF8403005AB0590D2
:1094700012930EAA04F1140313A96088CDE90E76A5
:10948000FFF79AFE08B1FDF767F81AB0BDE8F0875C
:1094900063D0020030B502884FF6FF739A4287B05E
:1094A00004460D4618D004230021102202A8ADF86E
:1094B000063003F0E6FCA388ADF8083001238DF8F0
:1094C0000A300023ADF80C3002A90DF10603208804
:1094D000CDE90435FFF772FE07B030BD30B5028824
:1094E0004FF6FF739A4287B004460D4618D0042306
:1094F0000021102202A8ADF8063003F0C2FCA389B7
:10950000ADF8083001238DF80A300023ADF80C3097
:1095100002A90DF106032088CDE90435FFF74EFEC0
:1095200007B030BD70B502884FF6FF739A4286B01F
:1095300004460E4617D001250021102202A8ADF8DE
:10954000065003F09EFCA38AADF808300023ADF866
:109550000C3002A90DF1060320888DF80A50CDE9E0
:109560000436FFF72BFE06B070BD6DDF704779DF64
:1095700070477DDF704764DF70472DE9F74F0C9C23
:10958000BDF834B02788002580468A4691462E468D
:10959000B8F80020B2420BDC35B12288013AD21B68
:1095A00092B2FF2A39D8DA55002003B0BDE8F08F17
:1095B000D8F8042052F82600019000220DF1030192
:1095C00001A8FFF7D8FF0028EFD19DF803204A45F6
:1095D00021D12288002D14BF0020022002EB0901B6
:1095E0000144594519DC3DB9013292B2228003F899
:1095F00002A022880132228022880DF103011A4440
:1096000001A8FFF7B8FF0028CFD121889DF80320DB
:109610000A44228001250136BAE70C20C5E72DE96E
:10962000F341089CBDF824501746CDE900450222BD
:109630000646FFF7A2FF48B9102239463046CDE969
:10964000084502B0BDE8F041FFF797BF02B0BDE8A2
:10965000F0812DE9F04F00231688138090F82D300B
:1096600085B007460D46144653B3082E01D80C208A
:1096700007E102A8FFF779FF002840F00281138874
:109680000822CA54238801339BB21B222380CA5468
:109690002088013080B2208006220DF10901284483
:1096A00003F0C6FB23889DF8082006339BB212F016
:1096B000FE0218BF01222380EA542388013323804D
:1096C000BB78FBB123880433B342D0D802A8FFF79C
:1096D0004EFF002840F0D58023880322EA542388D7
:1096E00001339BB219222380EA542388BDF8082055
:1096F00001339BB2E9182380EA54120A4A70238886
:1097000002332380FA789AB12388D91CB142AED8AB
:109710000221E954238801339BB201212380E954BB
:1097200023880B449BB22380EA5423880B44238074
:109730007A68AAB12388D91CB14298D8022192F93B
:109740000020E954238801339BB20A212380E95485
:10975000238801339BB22380EA542388013323807A
:109760003B89002B40F081803B8A53B1CDE9004614
:109770002B460722032107F11000FFF750FF0028B6
:109780007FD13B8B53B1CDE900462B4615221421E6
:1097900007F11800FFF743FF002872D13A6A002A48
:1097A00072D1D7F82480B8F1000F30D0B8F8043067
:1097B0002188981C8A1C0244B2423FF658AFFE280A
:1097C0003FF655AF03336B54238801339BB2FF221E
:1097D0002380EA54238801339BB22380B8F8002009
:1097E000EA54E918120A4A702088023080B22080B8
:1097F000B8F804205AB1D8F8081000294ED02844EF
:1098000003F016FB2388B8F804201344238097F84C
:109810002C30002B7DD1387898B33B88012B3DD07C
:10982000228802F1020CB4453FF621AF012805D190
:109830007B78023313449E42FFF419AF023EB61AFE
:10984000B6B202A905EB0C00ADF80860FFF791FE77
:10985000B8B93B78022B40F09F80BDF80830B34286
:1098600040F2B680ADF808609FE0CDE900462B4697
:109870000622022107F10800FFF7D1FE00283FF47D
:1098800073AF05B0BDE8F08FB4F800C00CF106036B
:10989000B3423FF6ECAE1188052901D80720F0E766
:1098A0006FF4486E01EB0E039BB24FF27D3E7345A1
:1098B000F4D95388052BF1D96FF44860181880B299
:1098C0007045EBD94FF6FF70814203D0834201D03F
:1098D0009942E3D8052305F80C30238801339BB265
:1098E00012212380E954238801339BB223801188FD
:1098F000E954E818090A4170238802339BB2238097
:109900005288EA54E918120A4A70238802332380E5
:1099100047E7BB6A002BC1D04FF000094FF00C0A9B
:109920004FF0160B97F82C305FFA89F293427FF6CE
:1099300072AFB96A0AFB02F201EB0208B8F8043010
:10994000981CFE283FF693AE208803332B542388BF
:1099500001339BB2238005F803B0238801339BB207
:1099600023808A5AEA54E918120A4A702088023081
:1099700080B22080B8F804205AB1D8F80810002925
:109980008CD0284403F054FA2388B8F804201344F8
:10999000238009F10109C5E7012B7FF463AF7B78D0
:1099A0009E42FFF45FAFADF808300821BDF80830E3
:1099B000FE2B3FF65CAE22880133AB542288013285
:1099C00092B22280A954228813442380002058E7B1
:1099D0000921EBE770B5C0B14AB116880024B44242
:1099E00003D305196D789D4208D0A14201D800200B
:1099F0000BE0055D01352C44A4B2F0E7A142F6D995
:109A0000A31C1380005D013880B270BD13B5002324
:109A1000ADF8063013460DF106020446FFF7DAFFF3
:109A200010B1BDF80600204402B010BD72DF7047CF
:109A300073DF704738B5012204460D46B0F8981020
:109A4000D0F89400FFF7E2FF00B1057004F13C028A
:109A500004F1940104F15400BDE83840FFF7E6BF7B
:109A600080F830107047F8B504460F46002968D0DA
:109A7000002866D091F87A301BB191F89830002B0D
:109A800061D1D7F8A030042B5DD0D7F89C30042BDF
:109A900059D007F178060FCE4FF0000C251D84F841
:109AA00002C00FC50FCE0FC596E8070085E8070076
:109AB00084F830C0D7F8A4306363D7F8A830A36324
:109AC0004FF6FF7504F19403C4F8A430A4F8A8502D
:109AD0000722614604F1AA0003F0D3F923780BB9F9
:109AE00084F85450224604F155011F25C4F89410FF
:109AF000384622F8985FFFF7ACFD08BB224604F118
:109B00007401C4F89C1007F13C0022F8A05FFFF735
:109B1000A0FDA8B9A369A4F848304FF480720123CE
:109B2000A4F85020626920646264014684F83C30E5
:109B300004F13C0204F15400FFF778FF00B92370F0
:109B4000F8BD0E20FCE70720FAE7F8B507780446D1
:109B50000D46002F00F00D81A1700020FEF7B8F82F
:109B6000014618B1012363700020F8BD04F1AA0674
:109B70000722304603F085F9E38813B1A378012B5F
:109B800004D0E3794BB1A378022B06D1636BA3B168
:109B9000012284F8B12008209847334604F1B0012F
:109BA00013F8012F12B98B42FAD117466B1E032B03
:109BB00052D8DFE803F0050B0F1284F8B130ECE760
:109BC000A3791BB194F8243003B95FB9E3790BB1E1
:109BD000002F43D1237A002B42D1637A002B0CBF94
:109BE00000250425636BA570002B3BD0033D012DA0
:109BF00038D86279002A35D094F8B22092BB84F824
:109C0000B420012284F8B3200720984704F13C05D2
:109C100018220021284603F034F9E36A94F824203E
:109C2000581E0121022828BF0B4684F83C1084F8F6
:109C3000513032B1884296BFA36A84F8521084F83A
:109C40005230A178002384F8503004291BD8DFE873
:109C500001F07A0D25385C000025C3E70225C1E735
:109C60000325BFE7002384F8B330CFE7C4F8A4305E
:109C7000C4E910630223012284F83C30802384F875
:109C80003120A4F84830A378002B5FD1636B002B00
:109C90003FF46AAF94F83100984765E70223002A41
:109CA00084F8313014BF0723032384F83C30236940
:109CB000A4F848300023C4F8A430E3682664636441
:109CC000E1E763696364A369A4F8483012B106232D
:109CD00084F83C306379B3B194F8B2309BB994F80E
:109CE000B43083B1022384F8503004212046FFF7BA
:109CF000A1FE0028C7D1052384F8313004F1940374
:109D0000C4F8A430BFE70323F6E7E3696364236A7A
:109D1000A4F8483012B1062384F83C30637983B14B
:109D200094F8B2306BB994F8B43053B1022384F88C
:109D3000503004212046FFF77DFE0028A3D10623E2
:109D4000DAE70423D8E784F831309CE72A46D4F8D0
:109D5000A41004F15400FFF769FE00287FF405AF5A
:109D600094F8301094F85400FFF762FE00288DD06C
:109D7000FBE60820F9E60388112B10B50C460AD043
:109D8000262B1FD0102B05D1C37B012B02D183883A
:109D9000A1F8A83010BD0022838881F8B220B1F864
:109DA000A8209A42F6D10B79002BF3D1012120464D
:109DB000FFF7CBFE0028EDD0A36B002BEAD0BDE867
:109DC00010401847037A013B012BE3D8897805231B
:109DD0000131B1FBF3F303EB8303C91AC9B2E6E720
:109DE0000238012810B50C460DD84B785BB1002322
:109DF0004B7020468978FFF7A8FE20B1A36B13B102
:109E0000BDE81040184710BD75DF704776DF70471A
:109E10007ADF70477BDF7047034B1A8882420CBFA2
:109E200018460020704700BFCC270020024B9B69DA
:109E300003B11847704700BFB027002037B585B27F
:109E40002846FFF7E9FF034670B1164C017A227BE2
:109E500091420BD200F10A012846FFF7D5FFE8B185
:109E6000112801D0FFF7E2FF03B030BD237C0022B0
:109E7000027243B13B212846FFF7C8FF30F00803C8
:109E800001D0FFF7D3FF6369002BEDD000228DF8DE
:109E90000420ADF8065001A89847E5E71A7A013288
:109EA0001A72E1E7B027002013B50B46497A0F4C30
:109EB000024669B9D4E901101C7A002C18BF01468A
:109EC0005868FCF7C3FD08B1FFF7B0FF02B010BD42
:109ED000002119726369002BF8D00121ADF806004A
:109EE0008DF8041001A89847F0E700BFB0270020C4
:109EF0004B8802889A4213D842889A4210D38088AD
:109F00008A8840F2F313984294BF031AC31A93420B
:109F100006D800F2F310904234BF002001207047B1
:109F2000002070470388112B70B5014648D002D835
:109F3000102B1ED070BD122B52D0502BFAD12F4BAC
:109F4000C288DB899A42F5D1038A022BF2D1868836
:109F50003046FFF761FF05460028EBD001F1120003
:109F600000F0A4F930BB6868FCF7B6FD0028E1D02A
:109F700009E0C37B012BDDD14FF6FF70FFF74CFFEB
:109F8000054620B90420BDE87040FFF74FBF1C4ACA
:109F90008E880680002303721368C5F80A300A30E1
:109FA000536843601031FFF7A3FF144B6872DB89DD
:109FB000002BBFD129463046BDE87040FFF774BF83
:109FC0008088FFF729FF04460028B3D04068FCF7DB
:109FD00083FD08B1FFF72AFF4FF6FF732380A9E73F
:109FE00086883046FFF718FF05460028A2D00831C2
:109FF0000A30FFF77DFF6872DCE700BFB027002062
:10A00000E0270020F8B5064648B305460FCD154FAA
:10A010003C460FC495E8070084E807003068124BFF
:10A020003B60B0B1FFF7F4FEC0B931680A681A604E
:10A030004A685A600D480E4A4FF6FF7303800D4B75
:10A0400040F8043F0021FCF7EFFC002818BF032074
:10A0500004E01846FFF7DEFE0028EBD0F8BD0E2026
:10A06000FCE700BFB0270020E0270020CC2700201D
:10A070003D9E0200E8270020F7B5174601900E46E6
:10A0800091B1019C6CB100252C46294601A8FDF731
:10A0900047FD18B13946A8B2B04701340135142D37
:10A0A000F3D1204603B0F0BD0C46FAE773B5019139
:10A0B000019C06466CB100252C46294601A8FDF7F7
:10A0C0002FFD18B106EB440301349D800135142D9A
:10A0D000F3D13046346002B070BD00002DE9F04786
:10A0E00003888488112B8CB006463CD01A2B3FD0B5
:10A0F000102B17D1274DAB68DB4300936968684686
:10A10000FDF75AFD009901A8FFF7D0FF0DF10809EE
:10A110004FF00008019B984507D3132C13D9042056
:10A12000FCF71AFA0CB0BDE8F08739F802AB00274B
:10A130000137514605EB8700FDF7E8FC1D2FF7D1ED
:10A1400008F10108E6E721461348FDF7C8FC21465F
:10A150001248FDF7C4FCF37B012BE3D010482146E5
:10A16000FDF7BDFCDEE70C482146FDF7CFFCD9E743
:10A17000057A0C482D09012D214606D9FDF7AFFCC3
:10A18000022D21460848F0D0EAE7FDF7BFFC214642
:10A190000548EAE708280020102800200C280020A5
:10A1A00014280020182800201C280020132801460D
:10A1B00002D80248FDF7B4BC002070470C280020EC
:10A1C00010B50446FFF7F2FF38B121460348FDF70A
:10A1D000A7FC002814BF0220012010BD1428002075
:10A1E00010B50446FFF7E2FF28B121460248BDE85A
:10A1F0001040FDF795BC10BD1828002008B51821A7
:10A200000248FDF796FCC0B208BD00BF0828002038
:10A2100070B50A4D064628460C46FDF781FC58B13C
:10A220003046FFF7C3FF38B1A01D314605EB800073
:10A23000BDE87040FDF774BC002070BD0828002008
:10A24000F8B50D4C054620460E461746FDF768FC4E
:10A2500080B12846FFF7AAFF60B1B01D04EB800073
:10A2600029461FB1BDE8F840FDF739BCBDE8F8400C
:10A27000FDF74CBCF8BD00BF08280020F8B50A4C1B
:10A2800005460E46014620461746FDF749FC48B1F3
:10A29000043504EB85043A46A0683146BDE8F84031
:10A2A000FFF7EABEF8BD00BF08280020007800F0E4
:10A2B00001007047024B034918780022FFF7DEBF08
:10A2C000832800208DA30200024B03491878002246
:10A2D000FFF7D4BF8228002025A4020010B5044651
:10A2E000408800F0A1FBA0802046BDE8104001F0AE
:10A2F0005DBB30B587B005460C461422002101A88D
:10A3000002F0BFFD072301A88DF80430ADF8065018
:10A310000394FFF7E3FF07B030BD000030B587B00E
:10A3200005461422002101A802F0ABFD4FF6FF7391
:10A330009D42ADF8065023D0284600F014FA0B28B1
:10A34000044615D005D860B121462846FFF7D1FF55
:10A3500005E011280ED043F202039842F4D1002206
:10A3600009E00E2301A88DF80430FFF7B7FFF6E7E8
:10A370000F23F7E70122034B28461978FFF760FF08
:10A3800007B030BD81280020FFF7C8BF70B5234E4D
:10A3900086B031780446FFF73BFF0546C0BB204638
:10A3A00000F030FA0828014622D006D888B10628E5
:10A3B0001ED02046FFF79DFF09E043F202039842BA
:10A3C00005D043F20143984224D01128F1D1012253
:10A3D00014E02946142201A802F053FD102301A81D
:10A3E0008DF80430ADF806400125FFF777FFEEE762
:10A3F000204600F019FB00F01FFA0022084B20460F
:10A400001978FFF71DFF2A4631782046FFF718FF1D
:10A4100006B070BD2046FFF781FFD8E784280020F2
:10A420008328002070B5002186B006461C4801F044
:10A43000A7FC054670B3304600F050F911280146DC
:10A440001CD004D840B33046FFF753FF05E0862800
:10A4500006D043F202039842F5D1002425460EE0CF
:10A460001422002101A802F00CFD062301A88DF89A
:10A470000430ADF80660FFF731FFEEE70024094B2A
:10A480002A4619783046FFF7DBFE1CB921460448FE
:10A4900001F09CFC06B070BD2C460546EFE700BFFE
:10A4A0008028002082280020037810B5044673B964
:10A4B0004088FFF733FF608800F092F938B1044B11
:10A4C000608819780122BDE81040FFF7B9BE10BDC1
:10A4D000832800200378082B37B504462CD1417A15
:10A4E00051BB057A072D1BD0082D29D0012D23D172
:10A4F0006A462946808801F089F8E8B9019B1B78F3
:10A50000D3B1A08800F0B8FA4FF6FF73984213D089
:10A510000D4B2A461978FFF793FEFFF7CBFE0BE0B1
:10A52000808800F0A9FA4FF6FF73984204D0074BD9
:10A5300001221978FFF784FEFFF7C6FE03B030BD95
:10A54000034801F043FCF7E783280020822800201D
:10A550008028002070B5FFF751FE104E104D30706E
:10A56000FFF74CFE2870FFF749FE0E4C2070FFF7F6
:10A5700045FE0D4B18703378182B0DD02B78182B07
:10A580000AD02378182B07D0182805D007480121B6
:10A5900001F0EFFB002070BD0320FCE782280020C3
:10A5A0008128002083280020842800208028002083
:10A5B00010B503888488522B86B016D0542B21D036
:10A5C000502B15D1037B012B12D1827A012A0FD196
:10A5D000018942F6021399420AD11B4B2046197891
:10A5E000FFF72EFEFFF770FE02E02046FFF796FE13
:10A5F000164B174918780022FFF740FEFFF75AFE66
:10A6000006B010BD1422002101A802F03AFC11236B
:10A6100020468DF80430ADF8064000F005FAADF89C
:10A62000080000F009F90B4B204619780022FFF7CB
:10A6300007FE094B204600221978FFF701FE01A80A
:10A64000FFF74CFED4E700BF8228002081280020BD
:10A6500089A302008428002083280020AFDF7047F0
:10A66000B1DF7047B2DF7047B3DF704773B50F4B90
:10A670000F4C93E803006D4685E80300002229464D
:10A68000208801F0BAF84FF6FF762388B34201D054
:10A69000112801D102B070BD184601F0A0F80022C7
:10A6A0002946208001F0A9F8EFE700BF78D002002A
:10A6B00086280020044B1A884FF6FF739A4201D077
:10A6C000FFF7D4BF704700BF86280020024B4FF62B
:10A6D000FF721A8000207047862800202DE9F7437A
:10A6E000804600F0A1F94FF6FF739842064637D036
:10A6F00001224FF003096B4608213046571C00F039
:10A7000089FFBFB2054630BB01990A46032342F8D0
:10A71000049B06314046FFF7A5FF044648B9324680
:10A720000821304601F048F80446204603B0BDE851
:10A73000F0830C280DD0052800D12C460821304686
:10A7400000F0D4FF002818BF03243A46002DD2D1D0
:10A75000EBE70125F2E7072814BF04460C24E4E7E1
:10A7600043F20204E1E72DE9F341804600F05CF991
:10A770004FF6FF73984217D1002403252646012780
:10A780002B46224631464046FFF76AFF042820D078
:10A79000082823D00B281DD115F002030FD18EB944
:10A7A000A4B902B0BDE8F0816A46082100F02EFF8E
:10A7B0000028E1D1019B9E1D9C881D68DFE70125D3
:10A7C0000027DDE703251C461E46F9E7032534462E
:10A7D000F6E71120002F08BF0B20E2E70020F9E781
:10A7E0001FB50DF10703039300F01EF902AA012122
:10A7F00000F00CFF20B9039B187805B05DF804FB4E
:10A800000020FAE738B504460A48FFF72DFF70B973
:10A81000084B43F203054FF6FF7219882046FFF7F5
:10A820001DFFA84204D11A8801321A80F3E70320E1
:10A8300038BD00BF8828002013B5074A044692E8B7
:10A8400003006B4683E8030000221946204600F00F
:10A85000D4FF02B010BD00BF80D0020046DF7047B9
:10A8600070B5084D084E002431786888FFF7D0FC99
:10A8700008B9E0B270BD0134142C05F10C05F3D118
:10A88000FF20F7E78C2800208A2800200A4B10B50B
:10A8900019780446FFF7BCFC58B1084B00205A88D1
:10A8A000A24201D1C0B210BD0130142803F10C0343
:10A8B000F5D1FF20F7E700BF8A2800208C28002070
:10A8C00038B505460C4609B9FF2038BD4FF6FF7371
:10A8D0009842F9D00E4B01221978FFF7B1FC2846B7
:10A8E000FFF7D4FFFF2803D1FFF7BAFFFF28EBD013
:10A8F00008490C234343CA1855804FF6FF75CD52C3
:10A9000021685160131DA2889A80A2799A71DCE7B0
:10A910008A2800208C280020421E00F10F0312F824
:10A92000010F10B99A42FAD170470120704708B55B
:10A9300070B171B103780A78534013F0FE0F08D15B
:10A9400006220131013002F038FAB0FA80F04009F5
:10A9500008BD0020FCE72DE9F04700F101084F1C7D
:10A9600006460D4600F1110901F1110A102239467F
:10A97000404602F022FA0446E0B94046FFF7CCFF19
:10A9800018B13846FFF7C8FF044651464846FFF75E
:10A99000CEFF737C03F0FC03042B04D06B7C03F02C
:10A9A000FC03042B02D1201C18BF012000F0010081
:10A9B000BDE8F0870024E8E730B585B004460D46D1
:10A9C00000F006FC02AA0DF10601072000F008FCC9
:10A9D00010B94FF6FF700BE0BDF80630AB42F1D076
:10A9E00003992046FFF7B7FF0028EBD0BDF806001B
:10A9F00005B030BD10B50A4C0A49182222704FF636
:10AA0000FF7300220132142A4B8001F10C01F9D1AD
:10AA1000FFF7F4FB182820700CBF0320002010BDA6
:10AA20008A2800208C28002008B5FFF72FFFFF2878
:10AA30001DBF0C234343034A4FF6FF7018BFD05A83
:10AA400008BD00BF8C28002010B50C46FFF71EFF84
:10AA5000FF280CD0074B0C2202FB003050F8043FBB
:10AA600023608388A3808379A371002010BD052013
:10AA7000FCE700BF8C280020084A30B500230C24D6
:10AA800004FB03F18D5A854202D10A44508830BD3F
:10AA90000133142BF4D14FF6FF70F8E78C28002017
:10AAA000038843B9821C00F10A0312F8010B10B9A4
:10AAB0009A42FAD170470120704710B50446FFF75B
:10AAC000EFFF58B122880B889A4208D10822023140
:10AAD000A01C02F072F9B0FA80F0400910BD00200D
:10AAE000FCE71FB5044600F073FB02AA0DF1060156
:10AAF000072000F075FB10B94FF6FF7007E00399CF
:10AB000020464631FFF7D9FF18B1BDF8060004B062
:10AB100010BD039920462A31FFF7CFFF0028E4D06B
:10AB2000F3E7000010B50C46FFF7B0FEFF281FBF8B
:10AB30000C234343014AD45210BD00BF8C2800208F
:10AB400070B50446FFF798FF0646204600F0E2FD88
:10AB50004FF6FF75AE42044609D040B93046FFF7C4
:10AB600095FEFF281FBF0C234343024AD5522046BF
:10AB700070BD00BF8C28002070B58CB014466A46AA
:10AB80000D4600F11003164613F8011D02F8011BD3
:10AB90009842F9D10D22002104A802F072F92B7815
:10ABA0008DF81F306B788DF81E303046AB788DF8FD
:10ABB0001D30FFF753FE9DF82F3023709DF82E3087
:10ABC00063709DF82D30A3700CB070BD30B5037864
:10ABD00003F0FE03042B85B004460D4618D1411C3A
:10ABE000032201A802F024F90322211D03A802F088
:10ABF0001FF902AA03A92846FFF7BEFF032202A9F4
:10AC000001A802F0DAF8B0FA80F0400905B030BDD2
:10AC10000020FBE730B50388102B93B04FD1041D03
:10AC20000FCC07AD0FC50FCC0FC594E807009DF8FA
:10AC3000203003F0FE03062B85E8070008D000F063
:10AC4000C7FA9DF820305B08012B04D9022B3FD0B6
:10AC50004FF6FF7410E002AA0DF10601072000F084
:10AC6000BFFA0028F4D0039908A81131FFF75FFE5E
:10AC70000028F0D0BDF80640BDF81C0008A9FFF779
:10AC80001FFE4FF6FF739C4219D0BDF81C00FFF762
:10AC9000FDFDFF281EBF0C234343124AADF80C40B4
:10ACA00018BFD452BDF81C30ADF80A3002A80023FA
:10ACB0008DF8083000F07CFE02A8FFF7F5FB13B01A
:10ACC00030BD039908A80131FFF780FF0028D1D1DA
:10ACD00002AA0DF10601072000F082FA0028F0D147
:10ACE000B6E700BF8C28002090DF7047A5DF7047D3
:10ACF000B5DF70471FB50023ADF80810ADF80A1096
:10AD00006A4602A903930093ADF80430FFF7ECFF05
:10AD100005B05DF804FB78B14FF0171303601B23F7
:10AD200003711723C380038141F61B3200230161A5
:10AD300043818281184670470E20704713B5034641
:10AD400080880C4690B91A88232A00F083800FD897
:10AD5000102A20D0112A41D0A37A3BB1E1880020EB
:10AD6000FFF7C4FF10B94FF48073638102B010BDC8
:10AD70003A2A3BD0552A51D0242AEDD11A7A0B69B0
:10AD80004A73002BE8D04DF67A21ADF8040000910B
:10AD90008DF804205AE0DB7B0A790A73012B13D06B
:10ADA000022B14D0E18823898B4205D20020FFF7C3
:10ADB0009DFF70B90123E372217B637B8B42CBD271
:10ADC0000020FFF797FFC7E70B88E380EAE74B888F
:10ADD000FBE7112804BF0123A372EDE71723CB8003
:10ADE0000B8141F61B3348818B81B5E75B89CA88AB
:10ADF000934228BF1346172B0A6938BF17230B81CC
:10AE00004AB1C97A39B140F677210091ADF80430E2
:10AE1000694620469047002363819DE7DB88C98807
:10AE2000A072172B38BF17238B4228BF0B462381F4
:10AE3000FFF75EFFE37A002B8ED12369002B8BD0C6
:10AE400040F6772200922289ADF804206946204618
:10AE5000984781E7197A237B994228BF1946B0E7C2
:10AE6000B0DF704766DF7047034610B500214088A9
:10AE7000FFF7F8FF024608B91A7210BD112801D178
:10AE80000122F9E75B68BDE81040184760B159B18D
:10AE90000378DE2B0AD00B684360DE2303704FF685
:10AEA000FF734380002070470E20704708207047D2
:10AEB00028B10378DE2B04D14180002070470E209A
:10AEC000704708207047F0B5054685B00C46F1B1D3
:10AED000E8B10B78DE2B1AD182884B889A4204D1D4
:10AEE0000B7A13B10846FFF7BFFF2B88112B32D026
:10AEF000512B0ED0012B0AD12B7A012B07D1A98817
:10AF00006288914203D123722046FFF7ADFF05B05E
:10AF1000F0BDAE886388B342F9D1AF79022FF6D184
:10AF2000AD7B2B1F022BF2D800211022684601F0C6
:10AF3000A8FF052D14BF4FF4C073002369463046A7
:10AF40008DF80070ADF80430FFF78AFF0028DED0DE
:10AF500063689847DBE76388AA889A4204BF4FF684
:10AF6000FF736380D3E7012804D0043804288CBF22
:10AF700000200120704773B504460D461646002197
:10AF80000822684601F07DFFA5F58041A4F58040C8
:10AF90006B46324689B280B2FCF7C8FC002818BF65
:10AFA000052002B070BD0000F0B5204D8BB000212F
:10AFB00008226846297001F064FF4FF6FF7000F028
:10AFC000C5FC4FF6FF770446BC4211D0A4F580467D
:10AFD000B6B26A4602A93046FCF7C2FC0A2809D07C
:10AFE0003046FCF759FC082806460BD101232B708C
:10AFF0000BB0F0BD204600F04DFC204600F0A6FC52
:10B000000446E1E7002EF3D0142200210DEB0200EC
:10B0100001F037FF072305A88DF81430ADF818406C
:10B020000796ADF8167000F049FAE1E78429002090
:10B030004FF6FF73438000F041BA000070B504463C
:10B0400086B01422002101A801F01BFFA0892378FB
:10B050002B4D00F5804080B25A1EADF80800042A3E
:10B0600025D8DFE802F00303032F440043F6FE7601
:10B07000B042E18904D901F5804292B2B24216D8B9
:10B08000DA1E534253418DF80D30A3680493636870
:10B090008DF80C108BB908238DF804309DF814300E
:10B0A00043F001038DF8143001A8FFF7C1FF2B789E
:10B0B0000BB1FFF779FF06B070BD09228DF80420AF
:10B0C0000593F1E743F6FE739842F0D8E389002B2D
:10B0D000EDD163683BB90A238DF8043000F0DAFB48
:10B0E00001232B70E0E70B238DF80430F8E71323DE
:10B0F0008DF804304FF6FF73ADF80830D4E700BF89
:10B100008429002030B5174889B0FCF713FA20BB1A
:10B11000FCF726FA044610BB00F08EFB08222146FD
:10B1200003A801F0AEFE03AA05A94CF20700FCF744
:10B130000AFC10B1204609B030BD01A905A8FCF7F2
:10B1400013FB019B9D8805F58045ADB205A8FCF772
:10B150002FFB284600F086FBE5E70324EAE7862478
:10B16000E8E700BF3DB00200F0B5FF2887B0044615
:10B170000E4615461F4627D80846FFF7F4FE18B3BB
:10B1800003AA2046FFF7F7FE18B10524204607B0B2
:10B19000F0BD01A903A8FCF7E7FA04460028F4D1A2
:10B1A000019BAE705A882A802FB9029B6B6003A85E
:10B1B000FCF7FEFAEAE73B689200934206D3029955
:10B1C000686801F035FEF2E70724DFE70424DDE7D5
:10B1D00008220021014801F054BE00BF7C29002054
:10B1E000F0B587B007460E461546FFF7BCFE04468D
:10B1F000F8B1A7F58040104A03A980B2FCF7A3FB81
:10B2000018B10024204607B0F0BD01A903A8FCF73F
:10B21000ABFA0028F5D1019BAF705A889B882A8031
:10B2200003F58043029A6A6003A83380FCF7C0FAF2
:10B23000E8E70124E6E700BF7C29002008B50346C3
:10B2400080780A46FFF78FFE40B119881046FCF758
:10B25000D1FA092804D8034B185C08BD0720FCE785
:10B260000320FAE790D0020007B5019001A8FCF78F
:10B27000DBFA002818BF032003B05DF804FB30B5EB
:10B2800089B0FF28044601921D4644D88B781846A1
:10B29000FFF769FE00283ED0A4F58042ADF80820F3
:10B2A000A3F58042ADF80A204A6803920A88049206
:10B2B000194605AA2046FFF75EFE0528019B13D11B
:10B2C00063B902A905A8FCF7D5FA0728044624D0DB
:10B2D00013D8C8B10324204609B030BD01AA02A981
:10B2E00005A8FCF7CBFAF0E713B101A8FCF79CFA2C
:10B2F00002A905A8FCF7C8FAE7E708280FD00E282E
:10B300000CBF11240324E6E7002DE4D0294605A84C
:10B31000FCF733FBDFE70724DDE78624DBE71124B6
:10B32000D9E74FF6FF7000F09DBAFF2808B505D8A1
:10B3300000F09EFAFFF738FE002008BD0720FCE76A
:10B3400000F0BCBA00F0E8BA00F000BB30B50A6803
:10B35000064B012A01D9002005E01401E55A854277
:10B3600002D10A60181930BD0132F2E73C2A0020F0
:10B3700037B500230D460446019301A9FFF7E6FF08
:10B3800038B18378AB4206D1837B9B0703D18368B6
:10B390000BB903B030BD019B0133019301A92046D5
:10B3A000ECE710B5044600F0D1FB204601F068FA46
:10B3B0002046FFF77FF92046BDE81040FFF78AB826
:10B3C0008378013B072B07D8DFE803F00706060662
:10B3D000060704091423038070470123FBE7436831
:10B3E0009B8809339B08F6E770B50E4E044600258E
:10B3F000237BAB420ED84FF6FF732380A37000234C
:10B40000C4E901334FF47F43A381A37B23F00303FB
:10B41000A37370BD617B2944C9B2304600F064FC5F
:10B420000135E5E72C2A002037B58378417B0446B7
:10B4300000252048CDE900558DF8023000F03DFC94
:10B44000B8B1237BA278019003EB83039B0068468D
:10B450008DF80220ADF80030FFF7B2FF2346626896
:10B4600033F8080B6946FFF70AFF072815D002D802
:10B4700078B1032011E0112811D08628F9D1A37BDF
:10B4800023F0030343F00103A3730B4B01221A7053
:10B4900003E0A37B23F00303A37303B030BDA37BBE
:10B4A00023F0030343F00203A373034B01221A703A
:10B4B0002846F2E72C2A0020282A0020F0B5364D35
:10B4C000C368AA68934287B0074619D0AA69934215
:10B4D00018D1012405EB04103B78304E092B13D012
:10B4E000132B30D0082B30D17C7A74BB78B3FFF7A4
:10B4F0007BFF3846FFF755FF33787BB907B0F0BDC7
:10B500000024E7E70020E7E77C7AF4B9F8B1837B11
:10B51000846043F00203837301233370AB7B98078D
:10B5200017D51D48FFF780FFD0B90123AA7F9107E7
:10B5300002D4D2072BD554B31948FFF775FF002862
:10B54000DCD001230DE00124D3E70024D1E7044639
:10B55000CFE713F00103E9D0002CE2D12346E5E761
:10B5600000231B018628EB5AADF808304FF6FF7216
:10B570000EBF06230723039001A8ADF806200CBFD9
:10B580008DF804308DF80430FFF70BFFB6E7002B81
:10B59000B4D13370B2E700BF3C2A0020282A002033
:10B5A0004C2A00201FB5144B0022987BC3E90122CE
:10B5B000C3E905229A7F4FF6FF714FF47F4420F0D4
:10B5C000030022F00302198099709C8198731982FC
:10B5D00099749C839A7702235022CDE9013201238A
:10B5E0000093A022054B0649064800F049FB0028BD
:10B5F00018BF032004B010BD3C2A00205C2A0020A4
:10B60000882900202C2A0020FFF78BBE0023FFF79B
:10B61000ABBD00002DE9F84381460E4614461F4697
:10B62000002B5CD0CB1F012B02D90720BDE8F8838B
:10B63000531E012BF9D8FFF783FE05460028F4D0EE
:10B6400031464846FFF794FE804650BBFF214FF637
:10B65000FF70FFF78DFE804608B3A0F8009086705B
:10B6600098F80D30FF2B21D121461F4800F051FBE7
:10B67000FF2888F80D001AD14FF6FF73A8F80030A4
:10B680000023C8E901334FF47F43A8F80C3098F841
:10B690000E3088F8020023F0030388F80E301120E2
:10B6A000C4E7037BA342DBD00F20BFE7002588F867
:10B6B0000C4098F80D100C4800F0FFFA88B104EB2C
:10B6C00084042401A4B2A408BE7078603C8025B133
:10B6D000082E02D1A400063C84800020A6E70E209C
:10B6E000A4E70320A2E700BF2C2A002038B5FFF70B
:10B6F0003FFE054660B1406810B1FFF7B5FD28B9BF
:10B7000000242846FFF770FE204638BD0324F8E7E2
:10B710000524F9E737B500240546019401A9FFF790
:10B7200015FE58B93CB92846FFF7FFFD044610B195
:10B73000072818BF0324204603B030BD817828466F
:10B74000FFF7D4FF10B1052818BF0324019B013374
:10B75000019301A92846E2E7CB1F012B73B50E46E2
:10B7600021D8FFF705FE0446F8B14568FDB9417BD5
:10B77000104800F0A2FACDE900558DF8026078B1CA
:10B78000237B019003EB83039B006846ADF80030F8
:10B79000FFF716FE211D6846FFF750FD092800D16E
:10B7A000032002B070BD0720FBE70520F9E7002069
:10B7B000F7E700BF2C2A002038B5CB1F012B0C4621
:10B7C000154608D8FFF7D4FD38B105808470BDE870
:10B7D0003840FFF729BE072038BD0520FCE7FFF7FA
:10B7E000B1BDFFF7B1BD07B513889B00019301AB55
:10B7F000FFF7BAFC03B05DF804FB13460022FFF725
:10B800003EBD10B54FF6FF7304469C4208460AD170
:10B810004FF4807100F0F7FAB0F5807F044609D14B
:10B820004FF6FF7406E0FF2CFAD8214600F0A8FA84
:10B830000028F5D0204610BD10B5094C402200214B
:10B84000204601F01EFB20464FF4807100F091FA73
:10B8500004F120004FF48071BDE8104000F089BA77
:10B860005D2A00200149FFF7CCBF00BF5D2A002000
:10B870004FF6FF73984210B5044606D00449FFF70F
:10B88000C0FF231A5842584110BD0020FCE700BFFA
:10B890007D2A0020FF2810B5044609D80146054836
:10B8A00000F094FA21460448BDE8104000F08EBA3A
:10B8B00010BD00BF5D2A00207D2A0020FF28014620
:10B8C00002D8024800F0D3BA002070475D2A002059
:10B8D000FF28014602D8024800F0C9BA002070478C
:10B8E0007D2A002038B54FF6FF73984218BF01300B
:10B8F0000D4614BF84B20024FF2C03D94FF6FF7409
:10B90000204638BD2146284600F0B1FA0028F7D17C
:10B910000134A4B2F0E7000070B50B490A4EFFF7FE
:10B92000E1FF4FF6FF750446AC4201D1204670BDE1
:10B930002046FFF7CDFF0028F8D020463146FFF71C
:10B94000D1FF0446F0E700BF5D2A00200149FFF760
:10B95000C9BF00BF7D2A0020F8B5074D074E074636
:10B9600000243378A34200DCF8BD55F8043B384688
:10B9700098470134F5E700BFA82A0020B72A002025
:10B98000074B1B7810B504464BB1FFF743F920462F
:10B9900000F0CCFF2046BDE81040FEF709BE10BD08
:10B9A000B62A002008B1FFF7D7BF7047FFF7D4BF12
:10B9B000FFF7D2BF08B5FFF7A5FB08B1032008BD0C
:10B9C000FFF7F0FD0028F9D100F08AFF0028F5D13B
:10B9D00000F040FB0028F1D1FEF7BCFD0028EDD1BE
:10B9E000FEF774FE0028E9D1FFF704F80028E5D13E
:10B9F000054B4FF6FF721A80044B1860044B187009
:10BA0000044B01221A70DAE7B42A0020BC2A002075
:10BA1000B82A0020B62A0020084B1B7853B1084AE8
:10BA20001378022B08D8074941F82300013313701B
:10BA3000002070470820704704207047B62A002075
:10BA4000B72A0020A82A0020034B1B780BB100F076
:10BA50007DBF0820704700BFB62A002009B100F062
:10BA600093BF70472DE9F04F1C462C4B1B7887B0D5
:10BA700083468A469146002B4ED04FF6FF70FFF763
:10BA8000AEFE01230025ADF8103004AA03AB062159
:10BA900006460395ADF812500593FFF7A4FE07285C
:10BAA00036D04FF6FF7843464FF0FF37E0B1052818
:10BAB00018D04FF6FF7296422CD1BBF1000F01D087
:10BAC000ABF80030BAF1000F01D0CAF80050B9F15C
